.MAIN.	MACRO V05.06R Sunday 24-Sep-23 10:55  Page 1


      1						.mcall	.exit
      2						.enabl	LC
      3						.list	MEB	; enable macro-extensions binary listing
      4	000000					.asect
      5		001000 				.=1000
      6
      7		020000 			Vaddr = 20000
      8
      9					; //////////////////////////////////////////////////////////////////////////////
     10					; // START
     11					; //////////////////////////////////////////////////////////////////////////////
     12
     13	001000				Start:	; clear screen
     14	001000	012700 	001144 			mov	#MsgCls, R0			; we needed THIS!!! or else keys and print buffer will be stuck
     15	001004	004767 	000050 			call	PriStr
     16
     17						; run PPU code
     18	001010	012767 	000001 	000064 		mov	#1, PPCOMM		; ask PPU for 'phase 1 ready'
     19	001016	012704 	001336 			mov	#PPUSTA, R4		; run PPU code
     20	001022	012705 	002543 			mov	#<PPUEND-PPUSTA/2>, R5
     21	001026	004767 	000174 			call	PPRUN
     22	001032	005767 	000044 			tst	PPCOMM			; wait for 'ppu phase 1 ready'
     23	001036	001375 				bne	.-4			; TODO: check timer to not wait forever?
     24
     25						; set PPU flag to 'running'
     26	001040	005267 	000036 			inc	PPCOMM
     27
     28						; wait for PPU to finish
     29	001044	005767 	000032 			tst	PPComm
     30	001050	001375 				bne	.-4
     31
     32						; clear PPU RAM
     33	001052	004767 	000244 			call	PPRele			; release PPU memory
     34
     35	001056					.exit
	001056	104350 				EMT	^o350
     36
     37
     38					; print string with channel 0
     39					; r0 = addr
     40	001060				PriStr:
     41	001060	112001 				movb	(R0)+, R1
     42	001062	001406 				beq	99$
     43	001064	105737 	177564 			tstb	@#177564
     44	001070	100375 				bpl	.-4
     45	001072	110137 	177566 			movb	r1, @#177566
     46	001076	000770 				br	pristr
     47	001100	000207 			99$:	return
     48
     49
     50	001102	000000 			PPcomm:	.word	0	; PPU command
     51	001104	   105 	   122 	   122 	Msg010:	.asciz	/ERR: PPU allocate memory failed/
	001107	   072 	   040 	   120
	001112	   120 	   125 	   040
	001115	   141 	   154 	   154
	001120	   157 	   143 	   141
	001123	   164 	   145 	   040
.MAIN.	MACRO V05.06R Sunday 24-Sep-23 10:55  Page 1-1


	001126	   155 	   145 	   155
	001131	   157 	   162 	   171
	001134	   040 	   146 	   141
	001137	   151 	   154 	   145
	001142	   144 	   000
     52	001144	   033 	   014 	   110 	MsgCls: .byte	033, 014, 110, 0
	001147	   000
     53						.even
     54
     55
     56					; //////////////////////////////////////////////////////////////////////////////
     57					; // CPU -> PPU exchange
     58					; //////////////////////////////////////////////////////////////////////////////
     59
     60					; PPU message
     61					;
     62	001150	001154 			PPMSG:	.WORD	PPARR	; address of beginning of array
     63	001152	177777 			        .WORD	177777	; end of transmission
     64
     65					; PPU data exchange array
     66					;
     67	001154	   000 			PPARR:	.BYTE	0	; return value (0 - OK)
     68	001155	   000 			PPCMD:	.BYTE	0	; command
     69	001156	000032 				.WORD	32	; device type (32 - PPU mem)
     70	001160	000000 			PPAPP:	.WORD	0	; address for PPU
     71	001162	000000 			PPACP:	.WORD	0	; address for CPU
     72	001164	000000 			PPLEN:	.WORD	0	; length in words
     73
     74					; send command to PPU with exch array
     75	001166	010046 			PPSEN:	mov	R0, -(SP)
     76	001170	010146 				mov	R1, -(SP)
     77	001172	012700 	001150 			mov	#PPMSG, R0	; array address
     78	001176	012701 	000005 			mov	#5, R1		; bytes to send+1 (sending from @#PP_MSG)
     79	001202	000402 				br	1$
     80	001204	112037 	176676 		2$:	movb	(R0)+, @#176676
     81	001210	105737 	176674 		1$:	tstb	@#176674	; test if we are ready to send
     82	001214	100375 				bpl	1$		; cycle if >= 0 (not set last bit in byte)
     83	001216	077106 				sob	R1, 2$
     84	001220	012601 				mov	(SP)+, R1
     85	001222	012600 				mov	(SP)+, R0
     86	001224	000207 				return
     87
     88					; send and start PPU code
     89					; R4 - start addr in CPU
     90					; R5 - length / 2
     91	001226	112767 	000001 	177721 	PPRUN:	movb	#1, PPCMD	; 1 - allocate memory
     92	001234	010567 	177724 			mov	R5, PPLEN
     93	001240	004767 	177722 			call	PPSEN
     94	001244	105767 	177704 			tstb	PPARR		; test if allocate success
     95	001250	001405 				beq	1$		; 0 - OK
     96	001252	012700 	001104 			mov	#Msg010, R0
     97	001256	004767 	177576 			call	PriStr
     98	001262					.exit			; fatal error - out of memory in PPU
	001262	104350 				EMT	^o350
     99	001264	112767 	000020 	177663 	1$:	movb	#20, PPCMD	; 20 - write to PPU mem
    100	001272	010567 	177666 			mov	R5, PPLEN
    101	001276	010467 	177660 			mov 	R4, PPACP
.MAIN.	MACRO V05.06R Sunday 24-Sep-23 10:55  Page 1-2


    102	001302	004767 	177660 			call	PPSEN
    103	001306	112767 	000030 	177641 		movb	#30, PPCMD	; 30 - run
    104	001314	004767 	177646 			call	PPSEN
    105	001320	000207 				return
    106
    107					; release PPU memory in case of something..
    108	001322	112767 	000002 	177625 	PPRELE:	movb	#2, PPCMD	; 2 - release memory
    109	001330	004767 	177632 			call	PPSEN
    110	001334	000207 				return
    111
    112
    113					; //////////////////////////////////////////////////////////////////////////////
    114					; // PPU first phase
    115					; //////////////////////////////////////////////////////////////////////////////
    116
    117	001336	106427 	000200 		PPUSTA:	mtps	#200
    118
    119	001342	010700 				mov	PC, R0
    120	001344	062700 	000614 			add	#INTKB1-., R0		; keyboard interrupt addr
    121	001350	013767 	000300 	000646 		mov	@#300, BKW300		; replace keyboard interrupt
    122	001356	010037 	000300 			mov	R0, @#300
    123						; construct our own lines table
    124	001362	010700 				mov	PC, R0
    125	001364	062700 	000644 			add	#PPLIN1-., R0
    126	001370	062700 	000010 			add	#10, R0			; align addr with 8. bytes
    127	001374	042700 	000007 			bic	#7, R0
    128	001400	010002 				mov	R0, R2			; save addr and use later
    129						; 1st element - set palette (YRGB YRGB YRGB YRGB)
    130						;                           (0011 0010 0001 0000)
    131						;                           (0111 0110 0101 0100)
    132	001402	012720 	114610 			mov	#^B1001100110001000, (R0)+
    133	001406	012720 	146252 			mov	#^B1100110010101010, (R0)+
    134	001412	005020 				clr	(R0)+			; vaddr is not used here
    135	001414	010010 				mov	R0, (R0)		; next element addr
    136	001416	062710 	000002 			add	#2, (R0)
    137	001422	052720 	000002 			bis	#2, (R0)+		; #2 = 010 - next element is scale&cursor
    138						; 2nd line - set scale, lumi and cursor
    139	001426	012720 	000020 			mov	#^B0000000000010000, (R0)+ ; no cursor
    140	001432	012720 	000027 			mov	#^B0000000000010111, (R0)+ ; 320x288, max luminance (..00111-640, ..10111 - 320)
    141	001436	005020 				clr	(R0)+			; vaddr is not used here
    142	001440	010010 				mov	R0, (R0)
    143	001442	062720 	000002 			add	#2, (R0)+		; next element is 2-words
    144						; 16 not used lines
    145	001446	012703 	000020 			mov	#16., R3
    146	001452	005020 			10$:	clr	(R0)+
    147	001454	010010 				mov	R0, (R0)
    148	001456	062720 	000002 			add	#2, (R0)+
    149	001462	077305 				sob	R3, 10$
    150						; 16 'empty' lines
    151	001464	012703 	000020 			mov	#16., R3
    152	001470	012701 	007730 			mov	#Vaddr/2-40., R1
    153	001474	010120 			20$:	mov	R1, (R0)+
    154	001476	010010 				mov	R0, (R0)
    155	001500	062720 	000002 			add	#2, (R0)+
    156	001504	077305 				sob	R3, 20$
    157						; next 256 'main' lines
    158	001506	012701 	010000 			mov	#Vaddr/2, R1
.MAIN.	MACRO V05.06R Sunday 24-Sep-23 10:55  Page 1-3


    159	001512	012703 	000400 			mov	#256., R3
    160	001516	010067 	000504 			mov	R0, LiMain
    161	001522	010120 			30$:	mov	R1, (R0)+
    162	001524	010010 				mov	R0, (R0)
    163	001526	062720 	000002 			add	#2, (R0)+
    164	001532	062701 	000050 			add	#40., R1
    165	001536	077307 				sob	R3, 30$
    166						; last 16 empty lines
    167	001540	012701 	007730 			mov	#Vaddr/2-40., R1
    168	001544	012703 	000020 			mov	#16., R3
    169	001550	010120 			40$:	mov	R1, (R0)+
    170	001552	010010 				mov	R0, (R0)
    171	001554	062720 	000002 			add	#2, (R0)+
    172	001560	077305 				sob	R3, 40$
    173						; set new lines table
    174	001562	013767 	000270 	000430 		mov	@#270, BKW270		; backup old table
    175	001570	013767 	000272 	000424 		mov	@#272, BKW272
    176	001576	005037 	000270 			clr	@#270
    177	001602	052702 	000006 			bis	#6, R2			; first line is palette
    178	001606	010237 	000272 			mov	R2, @#272		; saved addr
    179						; new vsync int
    180	001612	010700 				mov	PC, R0
    181	001614	062700 	000372 			add	#IntVsy-., R0
    182	001620	013767 	000100 	000370 		mov	@#100, Bkw100
    183	001626	010037 	000100 			mov	R0, @#100
    184
    185	001632	106427 	000000 			mtps	#0
    186
    187						; clear current command (phase 1 ready)
    188	001636	012737 	000441 	177010 		mov	#PPCOMM/2, @#177010
    189	001644	005037 	177014 			clr	@#177014
    190
    191	001650	005067 	002764 			clr	Angle3
    192	001654	012767 	000221 	002761 		mov	#145., Angle3+3
    193
    194					; rotate lines
    195	001662	005767 	000316 		Rotate:	tst	KeyPr0
    196	001666	001106 				bne	PPExit
    197	001670	005767 	000320 			tst	VsyCnt
    198	001674	001772 				beq	Rotate
    199	001676	005067 	000312 		1$:	clr	VsyCnt
    200
    201	001702	016701 	000320 			mov	LiMain, R1
    202	001706	012703 	000200 			mov	#128., R3
    203
    204	001712	005204 				inc	R4
    205
    206	001714	005067 	002716 			clr	Angle2+2
    207	001720	005067 	002710 			clr	Angle2
    208
    209	001724	005267 	002712 			inc	Angle3+2
    210	001730	016700 	002706 			mov	Angle3+2, R0
    211	001734	042700 	177400 			bic	#^B1111111100000000, R0
    212	001740	006300 				asl	R0
    213	001742	060700 				add	PC, R0
    214	001744	016000 	003700 			mov	CosTbl-.(R0), R0
    215	001750	072027 	000010 			ash	#8., R0
.MAIN.	MACRO V05.06R Sunday 24-Sep-23 10:55  Page 1-4


    216	001754	010067 	000060 			mov	R0, 110$+2
    217
    218	001760	012767 	060005 	000046 		mov	#60005, 100$			; add R0,R5 command
    219	001766	032767 	000400 	002646 		bit	#^B100000000, Angle3+2
    220	001774	001003 				bne	10$
    221	001776	012767 	160005 	000030 		mov	#160005, 100$			; sub R0,R5 command
    222
    223	002004	005767 	000204 		10$:	tst	VsyCnt
    224	002010	001332 				bne	1$
    225	002012	010405 				mov	R4, R5
    226						; secondary angle
    227	002014	016700 	002616 			mov	Angle2+2, R0
    228	002020	042700 	177400 			bic	#^B1111111100000000, R0
    229	002024	006300 				asl	R0
    230	002026	060700 				add	PC, R0
    231	002030	016000 	003614 			mov	CosTbl-.(R0), R0
    232	002034	160005 			100$:	sub	R0, R5
    233						; increase second angle
    234	002036	062767 	056565 	002570 	110$:	add	#56565, Angle2
    235	002044	005567 	002566 			adc	Angle2+2
    236						; put from angle R5
    237	002050	042705 	177400 			bic	#^B1111111100000000, R5	; & 255.
    238	002054	006305 				asl	R5
    239	002056	060705 				add	PC, R5
    240	002060	016521 	002564 			mov	Alp2Vm-.(R5), (R1)+
    241	002064	005201 				inc	R1
    242	002066	005201 				inc	R1
    243	002070	012721 	007730 			mov	#10000-40., (R1)+
    244	002074	005201 				inc	R1
    245	002076	005201 				inc	R1
    246	002100	077337 				sob	R3, 10$
    247	002102	000667 				br	Rotate
    248
    249
    250	002104				PPExit:	; exit
    251	002104	106427 	000200 			mtps	#200
    252	002110	016737 	000102 	000100 		mov	BKW100, @#100		; restore vsync
    253	002116	016737 	000076 	000270 		mov	BKW270, @#270		; restore lines table addr
    254	002124	016737 	000072 	000272 		mov	BKW272, @#272
    255	002132	016737 	000066 	000300 		mov	BKW300, @#300		; restore kbd interrupt
    256	002140	012737 	000441 	177010 		mov	#PPComm/2, @#177010	; control word addr
    257	002146	005037 	177014 			clr	@#177014		; clear it
    258	002152	106427 	000000 			mtps	#0
    259
    260	002156	000207 				return
    261
    262					; 'keyboard' interrupt
    263	002160	010046 			INTKB1:	mov	R0, -(SP)
    264	002162	013700 	177702 			mov	@#177702, R0
    265						; TODO: change drawing variables in CPU from pressed keys
    266	002166	032700 	000200 			bit	#^B10000000, R0
    267	002172	001002 				bne	10$
    268	002174	005267 	000004 			inc	KEYPR0
    269	002200	012600 			10$:	mov	(SP)+, R0
    270	002202	000002 				rti
    271	002204	000000 			KEYPR0:	.word	0
    272
.MAIN.	MACRO V05.06R Sunday 24-Sep-23 10:55  Page 1-5


    273					; vsync interrupt
    274	002206	005267 	000002 		INTVSY:	inc	VsyCnt
    275	002212	000002 				rti
    276	002214	000000 			VsyCnt:	.word	0
    277
    278					; 'backup' values
    279	002216	000000 			BKW100:	.word	0
    280	002220	000000 			BKW270:	.WORD	0
    281	002222	000000 			BKW272:	.WORD	0
    282	002224	000000 			BKW300:	.WORD	0
    283
    284					; lines table data
    285	002226	000000 			LiMain:	.word	0			; 'main' lines addr
    286	002230				PPLIN1:	.BLKW	1200			; need 1150 (616.) words, but for .even 10 and whatever
    287
    288	004630	000000 	000000 		Angle0:	.word	0, 0
    289					;Angle1:	.word	0, 0
    290	004634	000000 	000000 		Angle2:	.word	0, 0
    291	004640	000000 	000000 		Angle3:	.word	0, 0
    292
    293	004644				Alp2Vm:
    294	004644	010000 	010050 	010120 		.word	10000, 10050, 10120, 10170, 10240, 10310, 10360, 10430, 10500, 10550
	004652	010170 	010240 	010310
	004660	010360 	010430 	010500
	004666	010550
    295	004670	010620 	010670 	010740 		.word	10620, 10670, 10740, 11010, 11060, 11130, 11200, 11250, 11320, 11370
	004676	011010 	011060 	011130
	004704	011200 	011250 	011320
	004712	011370
    296	004714	011440 	011510 	011560 		.word	11440, 11510, 11560, 11630, 11700, 11750, 12020, 12070, 12140, 12210
	004722	011630 	011700 	011750
	004730	012020 	012070 	012140
	004736	012210
    297	004740	012260 	012330 	012400 		.word	12260, 12330, 12400, 12450, 12520, 12570, 12640, 12710, 12760, 13030
	004746	012450 	012520 	012570
	004754	012640 	012710 	012760
	004762	013030
    298	004764	013100 	013150 	013220 		.word	13100, 13150, 13220, 13270, 13340, 13410, 13460, 13530, 13600, 13650
	004772	013270 	013340 	013410
	005000	013460 	013530 	013600
	005006	013650
    299	005010	013720 	013770 	014040 		.word	13720, 13770, 14040, 14110, 14160, 14230, 14300, 14350, 14420, 14470
	005016	014110 	014160 	014230
	005024	014300 	014350 	014420
	005032	014470
    300	005034	014540 	014610 	014660 		.word	14540, 14610, 14660, 14730, 15000, 15050, 15120, 15170, 15240, 15310
	005042	014730 	015000 	015050
	005050	015120 	015170 	015240
	005056	015310
    301	005060	015360 	015430 	015500 		.word	15360, 15430, 15500, 15550, 15620, 15670, 15740, 16010, 16060, 16130
	005066	015550 	015620 	015670
	005074	015740 	016010 	016060
	005102	016130
    302	005104	016200 	016250 	016320 		.word	16200, 16250, 16320, 16370, 16440, 16510, 16560, 16630, 16700, 16750
	005112	016370 	016440 	016510
	005120	016560 	016630 	016700
	005126	016750
.MAIN.	MACRO V05.06R Sunday 24-Sep-23 10:55  Page 1-6


    303	005130	017020 	017070 	017140 		.word	17020, 17070, 17140, 17210, 17260, 17330, 17400, 17450, 17520, 17570
	005136	017210 	017260 	017330
	005144	017400 	017450 	017520
	005152	017570
    304	005154	017640 	017710 	017760 		.word	17640, 17710, 17760, 20030, 20100, 20150, 20220, 20270, 20340, 20410
	005162	020030 	020100 	020150
	005170	020220 	020270 	020340
	005176	020410
    305	005200	020460 	020530 	020600 		.word	20460, 20530, 20600, 20650, 20720, 20770, 21040, 21110, 21160, 21230
	005206	020650 	020720 	020770
	005214	021040 	021110 	021160
	005222	021230
    306	005224	021300 	021350 	021420 		.word	21300, 21350, 21420, 21470, 21540, 21610, 21660, 21730, 22000, 22050
	005232	021470 	021540 	021610
	005240	021660 	021730 	022000
	005246	022050
    307	005250	022120 	022170 	022240 		.word	22120, 22170, 22240, 22310, 22360, 22430, 22500, 22550, 22620, 22670
	005256	022310 	022360 	022430
	005264	022500 	022550 	022620
	005272	022670
    308	005274	022740 	023010 	023060 		.word	22740, 23010, 23060, 23130, 23200, 23250, 23320, 23370, 23440, 23510
	005302	023130 	023200 	023250
	005310	023320 	023370 	023440
	005316	023510
    309	005320	023560 	023630 	023700 		.word	23560, 23630, 23700, 23750, 24020, 24070, 24140, 24210, 24260, 24330
	005326	023750 	024020 	024070
	005334	024140 	024210 	024260
	005342	024330
    310	005344	024400 	024450 	024520 		.word	24400, 24450, 24520, 24570, 24640, 24710, 24760, 25030, 25100, 25150
	005352	024570 	024640 	024710
	005360	024760 	025030 	025100
	005366	025150
    311	005370	025220 	025270 	025340 		.word	25220, 25270, 25340, 25410, 25460, 25530, 25600, 25650, 25720, 25770
	005376	025410 	025460 	025530
	005404	025600 	025650 	025720
	005412	025770
    312	005414	026040 	026110 	026160 		.word	26040, 26110, 26160, 26230, 26300, 26350, 26420, 26470, 26540, 26610
	005422	026230 	026300 	026350
	005430	026420 	026470 	026540
	005436	026610
    313	005440	026660 	026730 	027000 		.word	26660, 26730, 27000, 27050, 27120, 27170, 27240, 27310, 27360, 27430
	005446	027050 	027120 	027170
	005454	027240 	027310 	027360
	005462	027430
    314	005464	027500 	027550 	027620 		.word	27500, 27550, 27620, 27670, 27740, 30010, 30060, 30130, 30200, 30250
	005472	027670 	027740 	030010
	005500	030060 	030130 	030200
	005506	030250
    315	005510	030320 	030370 	030440 		.word	30320, 30370, 30440, 30510, 30560, 30630, 30700, 30750, 31020, 31070
	005516	030510 	030560 	030630
	005524	030700 	030750 	031020
	005532	031070
    316	005534	031140 	031210 	031260 		.word	31140, 31210, 31260, 31330, 31400, 31450, 31520, 31570, 31640, 31710
	005542	031330 	031400 	031450
	005550	031520 	031570 	031640
	005556	031710
    317	005560	031760 	032030 	032100 		.word	31760, 32030, 32100, 32150, 32220, 32270, 32340, 32410, 32460, 32530
.MAIN.	MACRO V05.06R Sunday 24-Sep-23 10:55  Page 1-7


	005566	032150 	032220 	032270
	005574	032340 	032410 	032460
	005602	032530
    318	005604	032600 	032650 	032720 		.word	32600, 32650, 32720, 32770, 33040, 33110, 33160, 33230, 33300, 33350
	005612	032770 	033040 	033110
	005620	033160 	033230 	033300
	005626	033350
    319	005630	033420 	033470 	033540 		.word	33420, 33470, 33540, 33610, 33660, 33730
	005636	033610 	033660 	033730
    320
    321	005644				CosTbl:
    322	005644	000000 	000000 			.word	0, 0
    323	005650	000000 	000000 	000000 		.word	0, 0, 0, 0, 1, 1, 2, 3, 3, 4
	005656	000000 	000001 	000001
	005664	000002 	000003 	000003
	005672	000004
    324	005674	000005 	000006 	000007 		.word	5, 6, 7, 10, 11, 12, 14, 15, 17, 20
	005702	000010 	000011 	000012
	005710	000014 	000015 	000017
	005716	000020
    325	005720	000022 	000023 	000025 		.word	22, 23, 25, 27, 31, 32, 34, 36, 41, 43
	005726	000027 	000031 	000032
	005734	000034 	000036 	000041
	005742	000043
    326	005744	000045 	000047 	000051 		.word	45, 47, 51, 54, 56, 61, 63, 66, 70, 73
	005752	000054 	000056 	000061
	005760	000063 	000066 	000070
	005766	000073
    327	005770	000075 	000100 	000103 		.word	75, 100, 103, 106, 110, 113, 116, 121, 124, 127
	005776	000106 	000110 	000113
	006004	000116 	000121 	000124
	006012	000127
    328	006014	000132 	000135 	000140 		.word	132, 135, 140, 143, 146, 151, 154, 157, 163, 166
	006022	000143 	000146 	000151
	006030	000154 	000157 	000163
	006036	000166
    329	006040	000171 	000174 	000177 		.word	171, 174, 177, 202, 205, 210, 213, 217, 222, 225
	006046	000202 	000205 	000210
	006054	000213 	000217 	000222
	006062	000225
    330	006064	000230 	000233 	000236 		.word	230, 233, 236, 241, 244, 247, 252, 255, 260, 263
	006072	000241 	000244 	000247
	006100	000252 	000255 	000260
	006106	000263
    331	006110	000266 	000270 	000273 		.word	266, 270, 273, 276, 301, 303, 306, 310, 313, 315
	006116	000276 	000301 	000303
	006124	000306 	000310 	000313
	006132	000315
    332	006134	000320 	000322 	000325 		.word	320, 322, 325, 327, 331, 333, 335, 340, 342, 344
	006142	000327 	000331 	000333
	006150	000335 	000340 	000342
	006156	000344
    333	006160	000345 	000347 	000351 		.word	345, 347, 351, 353, 354, 356, 357, 361, 362, 364
	006166	000353 	000354 	000356
	006174	000357 	000361 	000362
	006202	000364
    334	006204	000365 	000366 	000367 		.word	365, 366, 367, 370, 371, 372, 373, 373, 374, 375
.MAIN.	MACRO V05.06R Sunday 24-Sep-23 10:55  Page 1-8


	006212	000370 	000371 	000372
	006220	000373 	000373 	000374
	006226	000375
    335	006230	000375 	000376 	000376 		.word	375, 376, 376, 376, 376, 376
	006236	000376 	000376 	000376
    336
    337	006244	000377 	000376 	000376 		.word	377, 376, 376, 376, 376, 376, 375, 375, 374, 373
	006252	000376 	000376 	000376
	006260	000375 	000375 	000374
	006266	000373
    338	006270	000373 	000372 	000371 		.word	373, 372, 371, 370, 367, 366, 365, 364, 362, 361
	006276	000370 	000367 	000366
	006304	000365 	000364 	000362
	006312	000361
    339	006314	000357 	000356 	000354 		.word	357, 356, 354, 353, 351, 347, 345, 344, 342, 340
	006322	000353 	000351 	000347
	006330	000345 	000344 	000342
	006336	000340
    340	006340	000335 	000333 	000331 		.word	335, 333, 331, 327, 325, 322, 320, 315, 313, 310
	006346	000327 	000325 	000322
	006354	000320 	000315 	000313
	006362	000310
    341	006364	000306 	000303 	000301 		.word	306, 303, 301, 276, 273, 270, 266, 263, 260, 255
	006372	000276 	000273 	000270
	006400	000266 	000263 	000260
	006406	000255
    342	006410	000252 	000247 	000244 		.word	252, 247, 244, 241, 236, 233, 230, 225, 222, 217
	006416	000241 	000236 	000233
	006424	000230 	000225 	000222
	006432	000217
    343	006434	000213 	000210 	000205 		.word	213, 210, 205, 202, 177, 174, 171, 166, 163, 157
	006442	000202 	000177 	000174
	006450	000171 	000166 	000163
	006456	000157
    344	006460	000154 	000151 	000146 		.word	154, 151, 146, 143, 140, 135, 132, 127, 124, 121
	006466	000143 	000140 	000135
	006474	000132 	000127 	000124
	006502	000121
    345	006504	000116 	000113 	000110 		.word	116, 113, 110, 106, 103, 100, 75, 73, 70, 66
	006512	000106 	000103 	000100
	006520	000075 	000073 	000070
	006526	000066
    346	006530	000063 	000061 	000056 		.word	63, 61, 56, 54, 51, 47, 45, 43, 41, 36
	006536	000054 	000051 	000047
	006544	000045 	000043 	000041
	006552	000036
    347	006554	000034 	000032 	000031 		.word	34, 32, 31, 27, 25, 23, 22, 20, 17, 15
	006562	000027 	000025 	000023
	006570	000022 	000020 	000017
	006576	000015
    348	006600	000014 	000012 	000011 		.word	14, 12, 11, 10, 7, 6, 5, 4, 3, 3
	006606	000010 	000007 	000006
	006614	000005 	000004 	000003
	006622	000003
    349	006624	000002 	000001 	000001 		.word	2, 1, 1, 0, 0, 0, 0, 0
	006632	000000 	000000 	000000
	006640	000000 	000000
.MAIN.	MACRO V05.06R Sunday 24-Sep-23 10:55  Page 1-9


    350
    351
    352
    353					; //////////////////////////////////////////////////////////////////////////////
    354					; // END PPU CODE
    355					; //////////////////////////////////////////////////////////////////////////////
    356	006644				PPUEND:
    357
    358	006644	000000 	000000 	000000 		.word	0,0,0,0,0,0,0,0,0,0
	006652	000000 	000000 	000000
	006660	000000 	000000 	000000
	006666	000000
    359	006670	000000 	000000 	000000 		.word	0,0,0,0,0,0,0,0,0,0
	006676	000000 	000000 	000000
	006704	000000 	000000 	000000
	006712	000000
    360	006714	000000 	000000 	000000 		.word	0,0,0,0,0,0,0,0,0,0
	006722	000000 	000000 	000000
	006730	000000 	000000 	000000
	006736	000000
    361	006740	000000 	000000 	000000 		.word	0,0,0,0,0,0,0,0,0,0
	006746	000000 	000000 	000000
	006754	000000 	000000 	000000
	006762	000000
    362
    363		020000 			.=20000
    364
    365	020000				V20000:
    366	020000	000000 	000000 	000000 		.word	0, 0, 0, 0, 0, 377, 377, 377, 377, 377
	020006	000000 	000000 	000377
	020014	000377 	000377 	000377
	020022	000377
    367	020024	000377 	000377 	000377 		.word	377, 377, 377, 377, 377, 377, 377, 377, 377, 100201
	020032	000377 	000377 	000377
	020040	000377 	000377 	000377
	020046	100201
    368	020050	177777 	177777 	177777 		.word	177777, 177777, 177777, 177777, 177777, 177777, 177777, 177777, 177777, 177777
	020056	177777 	177777 	177777
	020064	177777 	177777 	177777
	020072	177777
    369	020074	177777 	177777 	177777 		.word	177777, 177777, 177777, 177777, 1403, 0, 0, 0, 0, 0
	020102	177777 	001403 	000000
	020110	000000 	000000 	000000
	020116	000000
    370	020120	000000 	000000 	000000 		.word	0, 0, 0, 0, 0, 377, 377, 377, 377, 377
	020126	000000 	000000 	000377
	020134	000377 	000377 	000377
	020142	000377
    371	020144	000377 	000377 	000377 		.word	377, 377, 377, 377, 377, 377, 377, 377, 377, 17
	020152	000377 	000377 	000377
	020160	000377 	000377 	000377
	020166	000017
    372	020170	176374 	177777 	177777 		.word	176374, 177777, 177777, 177777, 177777, 177777, 177777, 177777, 177777, 177777
	020176	177777 	177777 	177777
	020204	177777 	177777 	177777
	020212	177777
    373	020214	177777 	177777 	177777 		.word	177777, 177777, 177777, 177777, 401, 0, 0, 0, 0, 0
.MAIN.	MACRO V05.06R Sunday 24-Sep-23 10:55  Page 1-10


	020222	177777 	000401 	000000
	020230	000000 	000000 	000000
	020236	000000
    374	020240	000000 	000000 	000000 		.word	0, 0, 0, 0, 0, 377, 377, 377, 377, 377
	020246	000000 	000000 	000377
	020254	000377 	000377 	000377
	020262	000377
    375	020264	000377 	000377 	000377 		.word	377, 377, 377, 377, 377, 377, 377, 377, 377, 177
	020272	000377 	000377 	000377
	020300	000377 	000377 	000377
	020306	000177
    376	020310	160340 	177777 	177777 		.word	160340, 177777, 177777, 177777, 177777, 177777, 177777, 177777, 177777, 177777
	020316	177777 	177777 	177777
	020324	177777 	177777 	177777
	020332	177777
    377	020334	177777 	177777 	177777 		.word	177777, 177777, 177777, 177777, 401, 0, 0, 0, 0, 0
	020342	177777 	000401 	000000
	020350	000000 	000000 	000000
	020356	000000
    378	020360	000000 	000000 	000000 		.word	0, 0, 0, 0, 0, 377, 377, 377, 377, 377
	020366	000000 	000000 	000377
	020374	000377 	000377 	000377
	020402	000377
    379	020404	000377 	000377 	000377 		.word	377, 377, 377, 377, 377, 377, 377, 377, 377, 377
	020412	000377 	000377 	000377
	020420	000377 	000377 	000377
	020426	000377
    380	020430	000003 	177777 	177777 		.word	3, 177777, 177777, 177777, 177777, 177777, 177777, 177777, 177777, 177777
	020436	177777 	177777 	177777
	020444	177777 	177777 	177777
	020452	177777
    381	020454	177777 	177777 	177777 		.word	177777, 177777, 177777, 177777, 401, 0, 0, 0, 0, 0
	020462	177777 	000401 	000000
	020470	000000 	000000 	000000
	020476	000000
    382	020500	000000 	000000 	000000 		.word	0, 0, 0, 0, 0, 377, 377, 377, 377, 377
	020506	000000 	000000 	000377
	020514	000377 	000377 	000377
	020522	000377
    383	020524	000377 	000377 	000377 		.word	377, 377, 377, 377, 377, 377, 377, 377, 377, 377
	020532	000377 	000377 	000377
	020540	000377 	000377 	000377
	020546	000377
    384	020550	000037 	174370 	177777 		.word	37, 174370, 177777, 177777, 177777, 177777, 177777, 177777, 177777, 177777
	020556	177777 	177777 	177777
	020564	177777 	177777 	177777
	020572	177777
    385	020574	177777 	177777 	177777 		.word	177777, 177777, 177777, 177777, 401, 0, 0, 0, 0, 0
	020602	177777 	000401 	000000
	020610	000000 	000000 	000000
	020616	000000
    386	020620	000000 	000000 	000000 		.word	0, 0, 0, 0, 0, 377, 377, 377, 377, 377
	020626	000000 	000000 	000377
	020634	000377 	000377 	000377
	020642	000377
    387	020644	000377 	000377 	000377 		.word	377, 377, 377, 377, 377, 377, 377, 377, 377, 377
	020652	000377 	000377 	000377
.MAIN.	MACRO V05.06R Sunday 24-Sep-23 10:55  Page 1-11


	020660	000377 	000377 	000377
	020666	000377
    388	020670	000377 	140300 	177777 		.word	377, 140300, 177777, 177777, 177777, 177777, 177777, 177777, 177777, 177777
	020676	177777 	177777 	177777
	020704	177777 	177777 	177777
	020712	177777
    389	020714	177777 	177777 	177777 		.word	177777, 177777, 177777, 177777, 401, 0, 0, 0, 0, 0
	020722	177777 	000401 	000000
	020730	000000 	000000 	000000
	020736	000000
    390	020740	000000 	000000 	000000 		.word	0, 0, 0, 0, 0, 376, 377, 377, 377, 377
	020746	000000 	000000 	000376
	020754	000377 	000377 	000377
	020762	000377
    391	020764	000377 	000377 	000377 		.word	377, 377, 377, 377, 377, 377, 377, 377, 377, 377
	020772	000377 	000377 	000377
	021000	000377 	000377 	000377
	021006	000377
    392	021010	000377 	000007 	177376 		.word	377, 7, 177376, 177777, 177777, 177777, 177777, 177777, 177777, 177777
	021016	177777 	177777 	177777
	021024	177777 	177777 	177777
	021032	177777
    393	021034	177777 	177777 	177777 		.word	177777, 177777, 177777, 177777, 0, 0, 0, 0, 0, 0
	021042	177777 	000000 	000000
	021050	000000 	000000 	000000
	021056	000000
    394	021060	000000 	000000 	000000 		.word	0, 0, 0, 0, 0, 376, 377, 377, 377, 377
	021066	000000 	000000 	000376
	021074	000377 	000377 	000377
	021102	000377
    395	021104	000377 	000377 	000377 		.word	377, 377, 377, 377, 377, 377, 377, 377, 377, 377
	021112	000377 	000377 	000377
	021120	000377 	000377 	000377
	021126	000377
    396	021130	000377 	000077 	170360 		.word	377, 77, 170360, 177777, 177777, 177777, 177777, 177777, 177777, 177777
	021136	177777 	177777 	177777
	021144	177777 	177777 	177777
	021152	177777
    397	021154	177777 	177777 	177777 		.word	177777, 177777, 177777, 177777, 0, 0, 0, 0, 0, 0
	021162	177777 	000000 	000000
	021170	000000 	000000 	000000
	021176	000000
    398	021200	000000 	000000 	000000 		.word	0, 0, 0, 0, 0, 374, 377, 377, 377, 377
	021206	000000 	000000 	000374
	021214	000377 	000377 	000377
	021222	000377
    399	021224	000377 	000377 	000377 		.word	377, 377, 377, 377, 377, 377, 377, 377, 377, 377
	021232	000377 	000377 	000377
	021240	000377 	000377 	000377
	021246	000377
    400	021250	000377 	000377 	100201 		.word	377, 377, 100201, 177777, 177777, 177777, 177777, 177777, 177777, 177777
	021256	177777 	177777 	177777
	021264	177777 	177777 	177777
	021272	177777
    401	021274	177777 	177777 	177777 		.word	177777, 177777, 177777, 77577, 0, 0, 0, 0, 0, 0
	021302	077577 	000000 	000000
	021310	000000 	000000 	000000
.MAIN.	MACRO V05.06R Sunday 24-Sep-23 10:55  Page 1-12


	021316	000000
    402	021320	000000 	000000 	000000 		.word	0, 0, 0, 0, 0, 374, 377, 377, 377, 377
	021326	000000 	000000 	000374
	021334	000377 	000377 	000377
	021342	000377
    403	021344	000377 	000377 	000377 		.word	377, 377, 377, 377, 377, 377, 377, 377, 377, 377
	021352	000377 	000377 	000377
	021360	000377 	000377 	000377
	021366	000377
    404	021370	000377 	000377 	000017 		.word	377, 377, 17, 176374, 177777, 177777, 177777, 177777, 177777, 177777
	021376	176374 	177777 	177777
	021404	177777 	177777 	177777
	021412	177777
    405	021414	177777 	177777 	177777 		.word	177777, 177777, 177777, 77577, 0, 0, 0, 0, 0, 0
	021422	077577 	000000 	000000
	021430	000000 	000000 	000000
	021436	000000
    406	021440	000000 	000000 	000000 		.word	0, 0, 0, 0, 0, 370, 377, 377, 377, 377
	021446	000000 	000000 	000370
	021454	000377 	000377 	000377
	021462	000377
    407	021464	000377 	000377 	000377 		.word	377, 377, 377, 377, 377, 377, 377, 377, 377, 377
	021472	000377 	000377 	000377
	021500	000377 	000377 	000377
	021506	000377
    408	021510	000377 	000377 	000177 		.word	377, 377, 177, 160340, 177777, 177777, 177777, 177777, 177777, 177777
	021516	160340 	177777 	177777
	021524	177777 	177777 	177777
	021532	177777
    409	021534	177777 	177777 	177777 		.word	177777, 177777, 177777, 37477, 0, 0, 0, 0, 0, 0
	021542	037477 	000000 	000000
	021550	000000 	000000 	000000
	021556	000000
    410	021560	000000 	000000 	000000 		.word	0, 0, 0, 0, 0, 360, 377, 377, 377, 377
	021566	000000 	000000 	000360
	021574	000377 	000377 	000377
	021602	000377
    411	021604	000377 	000377 	000377 		.word	377, 377, 377, 377, 377, 377, 377, 377, 377, 377
	021612	000377 	000377 	000377
	021620	000377 	000377 	000377
	021626	000377
    412	021630	000377 	000377 	000377 		.word	377, 377, 377, 3, 177777, 177777, 177777, 177777, 177777, 177777
	021636	000003 	177777 	177777
	021644	177777 	177777 	177777
	021652	177777
    413	021654	177777 	177777 	177777 		.word	177777, 177777, 177777, 17437, 0, 0, 0, 0, 0, 0
	021662	017437 	000000 	000000
	021670	000000 	000000 	000000
	021676	000000
    414	021700	000000 	000000 	000000 		.word	0, 0, 0, 0, 0, 340, 377, 377, 377, 377
	021706	000000 	000000 	000340
	021714	000377 	000377 	000377
	021722	000377
    415	021724	000377 	000377 	000377 		.word	377, 377, 377, 377, 377, 377, 377, 377, 377, 377
	021732	000377 	000377 	000377
	021740	000377 	000377 	000377
	021746	000377
.MAIN.	MACRO V05.06R Sunday 24-Sep-23 10:55  Page 1-13


    416	021750	000377 	000377 	000377 		.word	377, 377, 377, 17, 176374, 177777, 177777, 177777, 177777, 177777
	021756	000017 	176374 	177777
	021764	177777 	177777 	177777
	021772	177777
    417	021774	177777 	177777 	177777 		.word	177777, 177777, 177777, 7417, 0, 0, 0, 0, 0, 0
	022002	007417 	000000 	000000
	022010	000000 	000000 	000000
	022016	000000
    418	022020	000000 	000000 	000000 		.word	0, 0, 0, 0, 0, 300, 377, 377, 377, 377
	022026	000000 	000000 	000300
	022034	000377 	000377 	000377
	022042	000377
    419	022044	000377 	000377 	000377 		.word	377, 377, 377, 377, 377, 377, 377, 377, 377, 377
	022052	000377 	000377 	000377
	022060	000377 	000377 	000377
	022066	000377
    420	022070	000377 	000377 	000377 		.word	377, 377, 377, 177, 160340, 177777, 177777, 177777, 177777, 177777
	022076	000177 	160340 	177777
	022104	177777 	177777 	177777
	022112	177777
    421	022114	177777 	177777 	177777 		.word	177777, 177777, 177777, 3407, 0, 0, 0, 0, 0, 0
	022122	003407 	000000 	000000
	022130	000000 	000000 	000000
	022136	000000
    422	022140	000000 	000000 	000000 		.word	0, 0, 0, 0, 0, 200, 377, 377, 377, 377
	022146	000000 	000000 	000200
	022154	000377 	000377 	000377
	022162	000377
    423	022164	000377 	000377 	000377 		.word	377, 377, 377, 377, 377, 377, 377, 377, 377, 377
	022172	000377 	000377 	000377
	022200	000377 	000377 	000377
	022206	000377
    424	022210	000377 	000377 	000377 		.word	377, 377, 377, 377, 3, 177777, 177777, 177777, 177777, 177777
	022216	000377 	000003 	177777
	022224	177777 	177777 	177777
	022232	177777
    425	022234	177777 	177777 	177777 		.word	177777, 177777, 177777, 1403, 0, 0, 0, 0, 0, 0
	022242	001403 	000000 	000000
	022250	000000 	000000 	000000
	022256	000000
    426	022260	000000 	000000 	000000 		.word	0, 0, 0, 0, 0, 0, 377, 377, 377, 377
	022266	000000 	000000 	000000
	022274	000377 	000377 	000377
	022302	000377
    427	022304	000377 	000377 	000377 		.word	377, 377, 377, 377, 377, 377, 377, 377, 377, 377
	022312	000377 	000377 	000377
	022320	000377 	000377 	000377
	022326	000377
    428	022330	000377 	000377 	000377 		.word	377, 377, 377, 377, 37, 174370, 177777, 177777, 177777, 177777
	022336	000377 	000037 	174370
	022344	177777 	177777 	177777
	022352	177777
    429	022354	177777 	177777 	177777 		.word	177777, 177777, 177777, 401, 0, 0, 0, 0, 0, 0
	022362	000401 	000000 	000000
	022370	000000 	000000 	000000
	022376	000000
    430	022400	000000 	000000 	000000 		.word	0, 0, 0, 0, 0, 0, 376, 377, 377, 377
.MAIN.	MACRO V05.06R Sunday 24-Sep-23 10:55  Page 1-14


	022406	000000 	000000 	000000
	022414	000376 	000377 	000377
	022422	000377
    431	022424	000377 	000377 	000377 		.word	377, 377, 377, 377, 377, 377, 377, 377, 377, 377
	022432	000377 	000377 	000377
	022440	000377 	000377 	000377
	022446	000377
    432	022450	000377 	000377 	000377 		.word	377, 377, 377, 377, 177, 160340, 177777, 177777, 177777, 177777
	022456	000377 	000177 	160340
	022464	177777 	177777 	177777
	022472	177777
    433	022474	177777 	177777 	177777 		.word	177777, 177777, 177777, 0, 0, 0, 0, 0, 0, 0
	022502	000000 	000000 	000000
	022510	000000 	000000 	000000
	022516	000000
    434	022520	000000 	000000 	000000 		.word	0, 0, 0, 0, 0, 0, 374, 377, 377, 377
	022526	000000 	000000 	000000
	022534	000374 	000377 	000377
	022542	000377
    435	022544	000377 	000377 	000377 		.word	377, 377, 377, 377, 377, 377, 377, 377, 377, 377
	022552	000377 	000377 	000377
	022560	000377 	000377 	000377
	022566	000377
    436	022570	000377 	000377 	000377 		.word	377, 377, 377, 377, 377, 3, 177777, 177777, 177777, 177777
	022576	000377 	000377 	000003
	022604	177777 	177777 	177777
	022612	177777
    437	022614	177777 	177777 	077577 		.word	177777, 177777, 77577, 0, 0, 0, 0, 0, 0, 0
	022622	000000 	000000 	000000
	022630	000000 	000000 	000000
	022636	000000
    438	022640	000000 	000000 	000000 		.word	0, 0, 0, 0, 0, 0, 370, 377, 377, 377
	022646	000000 	000000 	000000
	022654	000370 	000377 	000377
	022662	000377
    439	022664	000377 	000377 	000377 		.word	377, 377, 377, 377, 377, 377, 377, 377, 377, 377
	022672	000377 	000377 	000377
	022700	000377 	000377 	000377
	022706	000377
    440	022710	000377 	000377 	000377 		.word	377, 377, 377, 377, 377, 37, 174370, 177777, 177777, 177777
	022716	000377 	000377 	000037
	022724	174370 	177777 	177777
	022732	177777
    441	022734	177777 	177777 	037477 		.word	177777, 177777, 37477, 0, 0, 0, 0, 0, 0, 0
	022742	000000 	000000 	000000
	022750	000000 	000000 	000000
	022756	000000
    442	022760	000000 	000000 	000000 		.word	0, 0, 0, 0, 0, 0, 360, 377, 377, 377
	022766	000000 	000000 	000000
	022774	000360 	000377 	000377
	023002	000377
    443	023004	000377 	000377 	000377 		.word	377, 377, 377, 377, 377, 377, 377, 377, 377, 377
	023012	000377 	000377 	000377
	023020	000377 	000377 	000377
	023026	000377
    444	023030	000377 	000377 	000377 		.word	377, 377, 377, 377, 377, 177, 160340, 177777, 177777, 177777
	023036	000377 	000377 	000177
.MAIN.	MACRO V05.06R Sunday 24-Sep-23 10:55  Page 1-15


	023044	160340 	177777 	177777
	023052	177777
    445	023054	177777 	177777 	017437 		.word	177777, 177777, 17437, 0, 0, 0, 0, 0, 0, 0
	023062	000000 	000000 	000000
	023070	000000 	000000 	000000
	023076	000000
    446	023100	000000 	000000 	000000 		.word	0, 0, 0, 0, 0, 0, 300, 377, 377, 377
	023106	000000 	000000 	000000
	023114	000300 	000377 	000377
	023122	000377
    447	023124	000377 	000377 	000377 		.word	377, 377, 377, 377, 377, 377, 377, 377, 377, 377
	023132	000377 	000377 	000377
	023140	000377 	000377 	000377
	023146	000377
    448	023150	000377 	000377 	000377 		.word	377, 377, 377, 377, 377, 377, 3, 177777, 177777, 177777
	023156	000377 	000377 	000377
	023164	000003 	177777 	177777
	023172	177777
    449	023174	177777 	177777 	003407 		.word	177777, 177777, 3407, 0, 0, 0, 0, 0, 0, 0
	023202	000000 	000000 	000000
	023210	000000 	000000 	000000
	023216	000000
    450	023220	000000 	000000 	000000 		.word	0, 0, 0, 0, 0, 0, 200, 377, 377, 377
	023226	000000 	000000 	000000
	023234	000200 	000377 	000377
	023242	000377
    451	023244	000377 	000377 	000377 		.word	377, 377, 377, 377, 377, 377, 377, 377, 377, 377
	023252	000377 	000377 	000377
	023260	000377 	000377 	000377
	023266	000377
    452	023270	000377 	000377 	000377 		.word	377, 377, 377, 377, 377, 377, 37, 174370, 177777, 177777
	023276	000377 	000377 	000377
	023304	000037 	174370 	177777
	023312	177777
    453	023314	177777 	177777 	001403 		.word	177777, 177777, 1403, 0, 0, 0, 0, 0, 0, 0
	023322	000000 	000000 	000000
	023330	000000 	000000 	000000
	023336	000000
    454	023340	000000 	000000 	000000 		.word	0, 0, 0, 0, 0, 0, 0, 376, 377, 377
	023346	000000 	000000 	000000
	023354	000000 	000376 	000377
	023362	000377
    455	023364	000377 	000377 	000377 		.word	377, 377, 377, 377, 377, 377, 377, 377, 377, 377
	023372	000377 	000377 	000377
	023400	000377 	000377 	000377
	023406	000377
    456	023410	000377 	000377 	000377 		.word	377, 377, 377, 377, 377, 377, 177, 160340, 177777, 177777
	023416	000377 	000377 	000377
	023424	000177 	160340 	177777
	023432	177777
    457	023434	177777 	177777 	000000 		.word	177777, 177777, 0, 0, 0, 0, 0, 0, 0, 0
	023442	000000 	000000 	000000
	023450	000000 	000000 	000000
	023456	000000
    458	023460	000000 	000000 	000000 		.word	0, 0, 0, 0, 0, 0, 0, 374, 377, 377
	023466	000000 	000000 	000000
	023474	000000 	000374 	000377
.MAIN.	MACRO V05.06R Sunday 24-Sep-23 10:55  Page 1-16


	023502	000377
    459	023504	000377 	000377 	000377 		.word	377, 377, 377, 377, 377, 377, 377, 377, 377, 377
	023512	000377 	000377 	000377
	023520	000377 	000377 	000377
	023526	000377
    460	023530	000377 	000377 	000377 		.word	377, 377, 377, 377, 377, 377, 377, 3, 177777, 177777
	023536	000377 	000377 	000377
	023544	000377 	000003 	177777
	023552	177777
    461	023554	177777 	077577 	000000 		.word	177777, 77577, 0, 0, 0, 0, 0, 0, 0, 0
	023562	000000 	000000 	000000
	023570	000000 	000000 	000000
	023576	000000
    462	023600	000000 	000000 	000000 		.word	0, 0, 0, 0, 0, 0, 0, 360, 377, 377
	023606	000000 	000000 	000000
	023614	000000 	000360 	000377
	023622	000377
    463	023624	000377 	000377 	000377 		.word	377, 377, 377, 377, 377, 377, 377, 377, 377, 377
	023632	000377 	000377 	000377
	023640	000377 	000377 	000377
	023646	000377
    464	023650	000377 	000377 	000377 		.word	377, 377, 377, 377, 377, 377, 377, 17, 176374, 177777
	023656	000377 	000377 	000377
	023664	000377 	000017 	176374
	023672	177777
    465	023674	177777 	017437 	000000 		.word	177777, 17437, 0, 0, 0, 0, 0, 0, 0, 0
	023702	000000 	000000 	000000
	023710	000000 	000000 	000000
	023716	000000
    466	023720	000000 	000000 	000000 		.word	0, 0, 0, 0, 0, 0, 0, 340, 377, 377
	023726	000000 	000000 	000000
	023734	000000 	000340 	000377
	023742	000377
    467	023744	000377 	000377 	000377 		.word	377, 377, 377, 377, 377, 377, 377, 377, 377, 377
	023752	000377 	000377 	000377
	023760	000377 	000377 	000377
	023766	000377
    468	023770	000377 	000377 	000377 		.word	377, 377, 377, 377, 377, 377, 377, 177, 160340, 177777
	023776	000377 	000377 	000377
	024004	000377 	000177 	160340
	024012	177777
    469	024014	177777 	007417 	000000 		.word	177777, 7417, 0, 0, 0, 0, 0, 0, 0, 0
	024022	000000 	000000 	000000
	024030	000000 	000000 	000000
	024036	000000
    470	024040	000000 	000000 	000000 		.word	0, 0, 0, 0, 0, 0, 0, 200, 377, 377
	024046	000000 	000000 	000000
	024054	000000 	000200 	000377
	024062	000377
    471	024064	000377 	000377 	000377 		.word	377, 377, 377, 377, 377, 377, 377, 377, 377, 377
	024072	000377 	000377 	000377
	024100	000377 	000377 	000377
	024106	000377
    472	024110	000377 	000377 	000377 		.word	377, 377, 377, 377, 377, 377, 377, 377, 100201, 177777
	024116	000377 	000377 	000377
	024124	000377 	000377 	100201
	024132	177777
.MAIN.	MACRO V05.06R Sunday 24-Sep-23 10:55  Page 1-17


    473	024134	177777 	001403 	000000 		.word	177777, 1403, 0, 0, 0, 0, 0, 0, 0, 0
	024142	000000 	000000 	000000
	024150	000000 	000000 	000000
	024156	000000
    474	024160	000000 	000000 	000000 		.word	0, 0, 0, 0, 0, 0, 0, 0, 376, 377
	024166	000000 	000000 	000000
	024174	000000 	000000 	000376
	024202	000377
    475	024204	000377 	000377 	000377 		.word	377, 377, 377, 377, 377, 377, 377, 377, 377, 377
	024212	000377 	000377 	000377
	024220	000377 	000377 	000377
	024226	000377
    476	024230	000377 	000377 	000377 		.word	377, 377, 377, 377, 377, 377, 377, 377, 7, 177376
	024236	000377 	000377 	000377
	024244	000377 	000377 	000007
	024252	177376
    477	024254	177777 	000000 	000000 		.word	177777, 0, 0, 0, 0, 0, 0, 0, 0, 0
	024262	000000 	000000 	000000
	024270	000000 	000000 	000000
	024276	000000
    478	024300	000000 	000000 	000000 		.word	0, 0, 0, 0, 0, 0, 0, 0, 370, 377
	024306	000000 	000000 	000000
	024314	000000 	000000 	000370
	024322	000377
    479	024324	000377 	000377 	000377 		.word	377, 377, 377, 377, 377, 377, 377, 377, 377, 377
	024332	000377 	000377 	000377
	024340	000377 	000377 	000377
	024346	000377
    480	024350	000377 	000377 	000377 		.word	377, 377, 377, 377, 377, 377, 377, 377, 77, 170360
	024356	000377 	000377 	000377
	024364	000377 	000377 	000077
	024372	170360
    481	024374	037477 	000000 	000000 		.word	37477, 0, 0, 0, 0, 0, 0, 0, 0, 0
	024402	000000 	000000 	000000
	024410	000000 	000000 	000000
	024416	000000
    482	024420	000000 	000000 	000000 		.word	0, 0, 0, 0, 0, 0, 0, 0, 340, 377
	024426	000000 	000000 	000000
	024434	000000 	000000 	000340
	024442	000377
    483	024444	000377 	000377 	000377 		.word	377, 377, 377, 377, 377, 377, 377, 377, 377, 377
	024452	000377 	000377 	000377
	024460	000377 	000377 	000377
	024466	000377
    484	024470	000377 	000377 	000377 		.word	377, 377, 377, 377, 377, 377, 377, 377, 377, 140300
	024476	000377 	000377 	000377
	024504	000377 	000377 	000377
	024512	140300
    485	024514	007417 	000000 	000000 		.word	7417, 0, 0, 0, 0, 0, 0, 0, 0, 0
	024522	000000 	000000 	000000
	024530	000000 	000000 	000000
	024536	000000
    486	024540	000000 	000000 	000000 		.word	0, 0, 0, 0, 0, 0, 0, 0, 200, 377
	024546	000000 	000000 	000000
	024554	000000 	000000 	000200
	024562	000377
    487	024564	000377 	000377 	000377 		.word	377, 377, 377, 377, 377, 377, 377, 377, 377, 377
.MAIN.	MACRO V05.06R Sunday 24-Sep-23 10:55  Page 1-18


	024572	000377 	000377 	000377
	024600	000377 	000377 	000377
	024606	000377
    488	024610	000377 	000377 	000377 		.word	377, 377, 377, 377, 377, 377, 377, 377, 377, 3
	024616	000377 	000377 	000377
	024624	000377 	000377 	000377
	024632	000003
    489	024634	001403 	000000 	000000 		.word	1403, 0, 0, 0, 0, 0, 0, 0, 0, 0
	024642	000000 	000000 	000000
	024650	000000 	000000 	000000
	024656	000000
    490	024660	000000 	000000 	000000 		.word	0, 0, 0, 0, 0, 0, 0, 0, 0, 376
	024666	000000 	000000 	000000
	024674	000000 	000000 	000000
	024702	000376
    491	024704	000377 	000377 	000377 		.word	377, 377, 377, 377, 377, 377, 377, 377, 377, 377
	024712	000377 	000377 	000377
	024720	000377 	000377 	000377
	024726	000377
    492	024730	000377 	000377 	000377 		.word	377, 377, 377, 377, 377, 377, 377, 377, 377, 17
	024736	000377 	000377 	000377
	024744	000377 	000377 	000377
	024752	000017
    493	024754	000000 	000000 	000000 		.word	0, 0, 0, 0, 0, 0, 0, 0, 0, 0
	024762	000000 	000000 	000000
	024770	000000 	000000 	000000
	024776	000000
    494	025000	000000 	000000 	000000 		.word	0, 0, 0, 0, 0, 0, 0, 0, 0, 370
	025006	000000 	000000 	000000
	025014	000000 	000000 	000000
	025022	000370
    495	025024	000377 	000377 	000377 		.word	377, 377, 377, 377, 377, 377, 377, 377, 377, 377
	025032	000377 	000377 	000377
	025040	000377 	000377 	000377
	025046	000377
    496	025050	000377 	000377 	000377 		.word	377, 377, 377, 377, 377, 377, 377, 377, 377, 77
	025056	000377 	000377 	000377
	025064	000377 	000377 	000377
	025072	000077
    497	025074	000000 	000000 	000000 		.word	0, 0, 0, 0, 0, 0, 0, 0, 0, 0
	025102	000000 	000000 	000000
	025110	000000 	000000 	000000
	025116	000000
    498	025120	000000 	000000 	000000 		.word	0, 0, 0, 0, 0, 0, 0, 0, 0, 340
	025126	000000 	000000 	000000
	025134	000000 	000000 	000000
	025142	000340
    499	025144	000377 	000377 	000377 		.word	377, 377, 377, 377, 377, 377, 377, 377, 377, 377
	025152	000377 	000377 	000377
	025160	000377 	000377 	000377
	025166	000377
    500	025170	000377 	000377 	000377 		.word	377, 377, 377, 377, 377, 377, 377, 377, 377, 377
	025176	000377 	000377 	000377
	025204	000377 	000377 	000377
	025212	000377
    501	025214	000000 	000000 	000000 		.word	0, 0, 0, 0, 0, 0, 0, 0, 0, 0
	025222	000000 	000000 	000000
.MAIN.	MACRO V05.06R Sunday 24-Sep-23 10:55  Page 1-19


	025230	000000 	000000 	000000
	025236	000000
    502	025240	000000 	000000 	000000 		.word	0, 0, 0, 0, 0, 0, 0, 0, 100000, 600
	025246	000000 	000000 	000000
	025254	000000 	000000 	100000
	025262	000600
    503	025264	000377 	000377 	000377 		.word	377, 377, 377, 377, 377, 377, 377, 377, 377, 377
	025272	000377 	000377 	000377
	025300	000377 	000377 	000377
	025306	000377
    504	025310	000377 	000377 	000377 		.word	377, 377, 377, 377, 377, 377, 377, 377, 377, 377
	025316	000377 	000377 	000377
	025324	000377 	000377 	000377
	025332	000377
    505	025334	000003 	000000 	000000 		.word	3, 0, 0, 0, 0, 0, 0, 0, 0, 0
	025342	000000 	000000 	000000
	025350	000000 	000000 	000000
	025356	000000
    506	025360	000000 	000000 	000000 		.word	0, 0, 0, 0, 0, 0, 0, 0, 160000, 3400
	025366	000000 	000000 	000000
	025374	000000 	000000 	160000
	025402	003400
    507	025404	000376 	000377 	000377 		.word	376, 377, 377, 377, 377, 377, 377, 377, 377, 377
	025412	000377 	000377 	000377
	025420	000377 	000377 	000377
	025426	000377
    508	025430	000377 	000377 	000377 		.word	377, 377, 377, 377, 377, 377, 377, 377, 377, 377
	025436	000377 	000377 	000377
	025444	000377 	000377 	000377
	025452	000377
    509	025454	000017 	000000 	000000 		.word	17, 0, 0, 0, 0, 0, 0, 0, 0, 0
	025462	000000 	000000 	000000
	025470	000000 	000000 	000000
	025476	000000
    510	025500	000000 	000000 	000000 		.word	0, 0, 0, 0, 0, 0, 0, 0, 174000, 17400
	025506	000000 	000000 	000000
	025514	000000 	000000 	174000
	025522	017400
    511	025524	000370 	000377 	000377 		.word	370, 377, 377, 377, 377, 377, 377, 377, 377, 377
	025532	000377 	000377 	000377
	025540	000377 	000377 	000377
	025546	000377
    512	025550	000377 	000377 	000377 		.word	377, 377, 377, 377, 377, 377, 377, 377, 377, 377
	025556	000377 	000377 	000377
	025564	000377 	000377 	000377
	025572	000377
    513	025574	000077 	000000 	000000 		.word	77, 0, 0, 0, 0, 0, 0, 0, 0, 0
	025602	000000 	000000 	000000
	025610	000000 	000000 	000000
	025616	000000
    514	025620	000000 	000000 	000000 		.word	0, 0, 0, 0, 0, 0, 0, 0, 177000, 177400
	025626	000000 	000000 	000000
	025634	000000 	000000 	177000
	025642	177400
    515	025644	000300 	000377 	000377 		.word	300, 377, 377, 377, 377, 377, 377, 377, 377, 377
	025652	000377 	000377 	000377
	025660	000377 	000377 	000377
.MAIN.	MACRO V05.06R Sunday 24-Sep-23 10:55  Page 1-20


	025666	000377
    516	025670	000377 	000377 	000377 		.word	377, 377, 377, 377, 377, 377, 377, 377, 377, 377
	025676	000377 	000377 	000377
	025704	000377 	000377 	000377
	025712	000377
    517	025714	000377 	000000 	000000 		.word	377, 0, 0, 0, 0, 0, 0, 0, 0, 0
	025722	000000 	000000 	000000
	025730	000000 	000000 	000000
	025736	000000
    518	025740	000000 	000000 	000000 		.word	0, 0, 0, 0, 0, 0, 0, 100000, 177400, 177400
	025746	000000 	000000 	000000
	025754	000000 	100000 	177400
	025762	177400
    519	025764	001400 	000377 	000377 		.word	1400, 377, 377, 377, 377, 377, 377, 377, 377, 377
	025772	000377 	000377 	000377
	026000	000377 	000377 	000377
	026006	000377
    520	026010	000377 	000377 	000377 		.word	377, 377, 377, 377, 377, 377, 377, 377, 377, 377
	026016	000377 	000377 	000377
	026024	000377 	000377 	000377
	026032	000377
    521	026034	000377 	000003 	000000 		.word	377, 3, 0, 0, 0, 0, 0, 0, 0, 0
	026042	000000 	000000 	000000
	026050	000000 	000000 	000000
	026056	000000
    522	026060	000000 	000000 	000000 		.word	0, 0, 0, 0, 0, 0, 0, 160000, 177400, 177400
	026066	000000 	000000 	000000
	026074	000000 	160000 	177400
	026102	177400
    523	026104	007400 	000374 	000377 		.word	7400, 374, 377, 377, 377, 377, 377, 377, 377, 377
	026112	000377 	000377 	000377
	026120	000377 	000377 	000377
	026126	000377
    524	026130	000377 	000377 	000377 		.word	377, 377, 377, 377, 377, 377, 377, 377, 377, 377
	026136	000377 	000377 	000377
	026144	000377 	000377 	000377
	026152	000377
    525	026154	000377 	000017 	000000 		.word	377, 17, 0, 0, 0, 0, 0, 0, 0, 0
	026162	000000 	000000 	000000
	026170	000000 	000000 	000000
	026176	000000
    526	026200	000000 	000000 	000000 		.word	0, 0, 0, 0, 0, 0, 0, 170000, 177400, 177400
	026206	000000 	000000 	000000
	026214	000000 	170000 	177400
	026222	177400
    527	026224	077400 	000340 	000377 		.word	77400, 340, 377, 377, 377, 377, 377, 377, 377, 377
	026232	000377 	000377 	000377
	026240	000377 	000377 	000377
	026246	000377
    528	026250	000377 	000377 	000377 		.word	377, 377, 377, 377, 377, 377, 377, 377, 377, 377
	026256	000377 	000377 	000377
	026264	000377 	000377 	000377
	026272	000377
    529	026274	000377 	000037 	000000 		.word	377, 37, 0, 0, 0, 0, 0, 0, 0, 0
	026302	000000 	000000 	000000
	026310	000000 	000000 	000000
	026316	000000
.MAIN.	MACRO V05.06R Sunday 24-Sep-23 10:55  Page 1-21


    530	026320	000000 	000000 	000000 		.word	0, 0, 0, 0, 0, 0, 0, 176000, 177400, 177400
	026326	000000 	000000 	000000
	026334	000000 	176000 	177400
	026342	177400
    531	026344	177400 	000600 	000377 		.word	177400, 600, 377, 377, 377, 377, 377, 377, 377, 377
	026352	000377 	000377 	000377
	026360	000377 	000377 	000377
	026366	000377
    532	026370	000377 	000377 	000377 		.word	377, 377, 377, 377, 377, 377, 377, 377, 377, 377
	026376	000377 	000377 	000377
	026404	000377 	000377 	000377
	026412	000377
    533	026414	000377 	000177 	000000 		.word	377, 177, 0, 0, 0, 0, 0, 0, 0, 0
	026422	000000 	000000 	000000
	026430	000000 	000000 	000000
	026436	000000
    534	026440	000000 	000000 	000000 		.word	0, 0, 0, 0, 0, 0, 0, 177000, 177400, 177400
	026446	000000 	000000 	000000
	026454	000000 	177000 	177400
	026462	177400
    535	026464	177400 	007400 	000374 		.word	177400, 7400, 374, 377, 377, 377, 377, 377, 377, 377
	026472	000377 	000377 	000377
	026500	000377 	000377 	000377
	026506	000377
    536	026510	000377 	000377 	000377 		.word	377, 377, 377, 377, 377, 377, 377, 377, 377, 377
	026516	000377 	000377 	000377
	026524	000377 	000377 	000377
	026532	000377
    537	026534	000377 	000377 	000000 		.word	377, 377, 0, 0, 0, 0, 0, 0, 0, 0
	026542	000000 	000000 	000000
	026550	000000 	000000 	000000
	026556	000000
    538	026560	000000 	000000 	000000 		.word	0, 0, 0, 0, 0, 0, 100000, 177400, 177400, 177400
	026566	000000 	000000 	000000
	026574	100000 	177400 	177400
	026602	177400
    539	026604	177400 	037400 	000360 		.word	177400, 37400, 360, 377, 377, 377, 377, 377, 377, 377
	026612	000377 	000377 	000377
	026620	000377 	000377 	000377
	026626	000377
    540	026630	000377 	000377 	000377 		.word	377, 377, 377, 377, 377, 377, 377, 377, 377, 377
	026636	000377 	000377 	000377
	026644	000377 	000377 	000377
	026652	000377
    541	026654	000377 	000377 	000003 		.word	377, 377, 3, 0, 0, 0, 0, 0, 0, 0
	026662	000000 	000000 	000000
	026670	000000 	000000 	000000
	026676	000000
    542	026700	000000 	000000 	000000 		.word	0, 0, 0, 0, 0, 0, 140000, 177400, 177400, 177400
	026706	000000 	000000 	000000
	026714	140000 	177400 	177400
	026722	177400
    543	026724	177400 	177400 	000600 		.word	177400, 177400, 600, 377, 377, 377, 377, 377, 377, 377
	026732	000377 	000377 	000377
	026740	000377 	000377 	000377
	026746	000377
    544	026750	000377 	000377 	000377 		.word	377, 377, 377, 377, 377, 377, 377, 377, 377, 377
.MAIN.	MACRO V05.06R Sunday 24-Sep-23 10:55  Page 1-22


	026756	000377 	000377 	000377
	026764	000377 	000377 	000377
	026772	000377
    545	026774	000377 	000377 	000007 		.word	377, 377, 7, 0, 0, 0, 0, 0, 0, 0
	027002	000000 	000000 	000000
	027010	000000 	000000 	000000
	027016	000000
    546	027020	000000 	000000 	000000 		.word	0, 0, 0, 0, 0, 0, 170000, 177400, 177400, 177400
	027026	000000 	000000 	000000
	027034	170000 	177400 	177400
	027042	177400
    547	027044	177400 	177400 	007400 		.word	177400, 177400, 7400, 374, 377, 377, 377, 377, 377, 377
	027052	000374 	000377 	000377
	027060	000377 	000377 	000377
	027066	000377
    548	027070	000377 	000377 	000377 		.word	377, 377, 377, 377, 377, 377, 377, 377, 377, 377
	027076	000377 	000377 	000377
	027104	000377 	000377 	000377
	027112	000377
    549	027114	000377 	000377 	000037 		.word	377, 377, 37, 0, 0, 0, 0, 0, 0, 0
	027122	000000 	000000 	000000
	027130	000000 	000000 	000000
	027136	000000
    550	027140	000000 	000000 	000000 		.word	0, 0, 0, 0, 0, 0, 174000, 177400, 177400, 177400
	027146	000000 	000000 	000000
	027154	174000 	177400 	177400
	027162	177400
    551	027164	177400 	177400 	037400 		.word	177400, 177400, 37400, 360, 377, 377, 377, 377, 377, 377
	027172	000360 	000377 	000377
	027200	000377 	000377 	000377
	027206	000377
    552	027210	000377 	000377 	000377 		.word	377, 377, 377, 377, 377, 377, 377, 377, 377, 377
	027216	000377 	000377 	000377
	027224	000377 	000377 	000377
	027232	000377
    553	027234	000377 	000377 	000077 		.word	377, 377, 77, 0, 0, 0, 0, 0, 0, 0
	027242	000000 	000000 	000000
	027250	000000 	000000 	000000
	027256	000000
    554	027260	000000 	000000 	000000 		.word	0, 0, 0, 0, 0, 0, 176000, 177400, 177400, 177400
	027266	000000 	000000 	000000
	027274	176000 	177400 	177400
	027302	177400
    555	027304	177400 	177400 	177400 		.word	177400, 177400, 177400, 600, 377, 377, 377, 377, 377, 377
	027312	000600 	000377 	000377
	027320	000377 	000377 	000377
	027326	000377
    556	027330	000377 	000377 	000377 		.word	377, 377, 377, 377, 377, 377, 377, 377, 377, 377
	027336	000377 	000377 	000377
	027344	000377 	000377 	000377
	027352	000377
    557	027354	000377 	000377 	000177 		.word	377, 377, 177, 0, 0, 0, 0, 0, 0, 0
	027362	000000 	000000 	000000
	027370	000000 	000000 	000000
	027376	000000
    558	027400	000000 	000000 	000000 		.word	0, 0, 0, 0, 0, 0, 177000, 177400, 177400, 177400
	027406	000000 	000000 	000000
.MAIN.	MACRO V05.06R Sunday 24-Sep-23 10:55  Page 1-23


	027414	177000 	177400 	177400
	027422	177400
    559	027424	177400 	177400 	177400 		.word	177400, 177400, 177400, 7400, 374, 377, 377, 377, 377, 377
	027432	007400 	000374 	000377
	027440	000377 	000377 	000377
	027446	000377
    560	027450	000377 	000377 	000377 		.word	377, 377, 377, 377, 377, 377, 377, 377, 377, 377
	027456	000377 	000377 	000377
	027464	000377 	000377 	000377
	027472	000377
    561	027474	000377 	000377 	000377 		.word	377, 377, 377, 0, 0, 0, 0, 0, 0, 0
	027502	000000 	000000 	000000
	027510	000000 	000000 	000000
	027516	000000
    562	027520	000000 	000000 	000000 		.word	0, 0, 0, 0, 0, 0, 177400, 177400, 177400, 177400
	027526	000000 	000000 	000000
	027534	177400 	177400 	177400
	027542	177400
    563	027544	177400 	177400 	177400 		.word	177400, 177400, 177400, 37400, 360, 377, 377, 377, 377, 377
	027552	037400 	000360 	000377
	027560	000377 	000377 	000377
	027566	000377
    564	027570	000377 	000377 	000377 		.word	377, 377, 377, 377, 377, 377, 377, 377, 377, 377
	027576	000377 	000377 	000377
	027604	000377 	000377 	000377
	027612	000377
    565	027614	000377 	000377 	000377 		.word	377, 377, 377, 1, 0, 0, 0, 0, 0, 0
	027622	000001 	000000 	000000
	027630	000000 	000000 	000000
	027636	000000
    566	027640	000000 	000000 	000000 		.word	0, 0, 0, 0, 0, 100000, 177400, 177400, 177400, 177400
	027646	000000 	000000 	100000
	027654	177400 	177400 	177400
	027662	177400
    567	027664	177400 	177400 	177400 		.word	177400, 177400, 177400, 177400, 600, 377, 377, 377, 377, 377
	027672	177400 	000600 	000377
	027700	000377 	000377 	000377
	027706	000377
    568	027710	000377 	000377 	000377 		.word	377, 377, 377, 377, 377, 377, 377, 377, 377, 377
	027716	000377 	000377 	000377
	027724	000377 	000377 	000377
	027732	000377
    569	027734	000377 	000377 	000377 		.word	377, 377, 377, 3, 0, 0, 0, 0, 0, 0
	027742	000003 	000000 	000000
	027750	000000 	000000 	000000
	027756	000000
    570	027760	000000 	000000 	000000 		.word	0, 0, 0, 0, 0, 140000, 177400, 177400, 177400, 177400
	027766	000000 	000000 	140000
	027774	177400 	177400 	177400
	030002	177400
    571	030004	177400 	177400 	177400 		.word	177400, 177400, 177400, 177400, 7400, 374, 377, 377, 377, 377
	030012	177400 	007400 	000374
	030020	000377 	000377 	000377
	030026	000377
    572	030030	000377 	000377 	000377 		.word	377, 377, 377, 377, 377, 377, 377, 377, 377, 377
	030036	000377 	000377 	000377
	030044	000377 	000377 	000377
.MAIN.	MACRO V05.06R Sunday 24-Sep-23 10:55  Page 1-24


	030052	000377
    573	030054	000377 	000377 	000377 		.word	377, 377, 377, 7, 0, 0, 0, 0, 0, 0
	030062	000007 	000000 	000000
	030070	000000 	000000 	000000
	030076	000000
    574	030100	000000 	000000 	000000 		.word	0, 0, 0, 0, 0, 160000, 177400, 177400, 177400, 177400
	030106	000000 	000000 	160000
	030114	177400 	177400 	177400
	030122	177400
    575	030124	177400 	177400 	177400 		.word	177400, 177400, 177400, 177400, 77400, 340, 377, 377, 377, 377
	030132	177400 	077400 	000340
	030140	000377 	000377 	000377
	030146	000377
    576	030150	000377 	000377 	000377 		.word	377, 377, 377, 377, 377, 377, 377, 377, 377, 377
	030156	000377 	000377 	000377
	030164	000377 	000377 	000377
	030172	000377
    577	030174	000377 	000377 	000377 		.word	377, 377, 377, 17, 0, 0, 0, 0, 0, 0
	030202	000017 	000000 	000000
	030210	000000 	000000 	000000
	030216	000000
    578	030220	000000 	000000 	000000 		.word	0, 0, 0, 0, 0, 170000, 177400, 177400, 177400, 177400
	030226	000000 	000000 	170000
	030234	177400 	177400 	177400
	030242	177400
    579	030244	177400 	177400 	177400 		.word	177400, 177400, 177400, 177400, 177400, 600, 377, 377, 377, 377
	030252	177400 	177400 	000600
	030260	000377 	000377 	000377
	030266	000377
    580	030270	000377 	000377 	000377 		.word	377, 377, 377, 377, 377, 377, 377, 377, 377, 377
	030276	000377 	000377 	000377
	030304	000377 	000377 	000377
	030312	000377
    581	030314	000377 	000377 	000377 		.word	377, 377, 377, 37, 0, 0, 0, 0, 0, 0
	030322	000037 	000000 	000000
	030330	000000 	000000 	000000
	030336	000000
    582	030340	000000 	000000 	000000 		.word	0, 0, 0, 0, 0, 174000, 177400, 177400, 177400, 177400
	030346	000000 	000000 	174000
	030354	177400 	177400 	177400
	030362	177400
    583	030364	177400 	177400 	177400 		.word	177400, 177400, 177400, 177400, 177400, 7400, 374, 377, 377, 377
	030372	177400 	177400 	007400
	030400	000374 	000377 	000377
	030406	000377
    584	030410	000377 	000377 	000377 		.word	377, 377, 377, 377, 377, 377, 377, 377, 377, 377
	030416	000377 	000377 	000377
	030424	000377 	000377 	000377
	030432	000377
    585	030434	000377 	000377 	000377 		.word	377, 377, 377, 77, 0, 0, 0, 0, 0, 0
	030442	000077 	000000 	000000
	030450	000000 	000000 	000000
	030456	000000
    586	030460	000000 	000000 	000000 		.word	0, 0, 0, 0, 0, 176000, 177400, 177400, 177400, 177400
	030466	000000 	000000 	176000
	030474	177400 	177400 	177400
	030502	177400
.MAIN.	MACRO V05.06R Sunday 24-Sep-23 10:55  Page 1-25


    587	030504	177400 	177400 	177400 		.word	177400, 177400, 177400, 177400, 177400, 77400, 340, 377, 377, 377
	030512	177400 	177400 	077400
	030520	000340 	000377 	000377
	030526	000377
    588	030530	000377 	000377 	000377 		.word	377, 377, 377, 377, 377, 377, 377, 377, 377, 377
	030536	000377 	000377 	000377
	030544	000377 	000377 	000377
	030552	000377
    589	030554	000377 	000377 	000377 		.word	377, 377, 377, 177, 0, 0, 0, 0, 0, 0
	030562	000177 	000000 	000000
	030570	000000 	000000 	000000
	030576	000000
    590	030600	000000 	000000 	000000 		.word	0, 0, 0, 0, 0, 176000, 177400, 177400, 177400, 177400
	030606	000000 	000000 	176000
	030614	177400 	177400 	177400
	030622	177400
    591	030624	177400 	177400 	177400 		.word	177400, 177400, 177400, 177400, 177400, 177400, 1400, 377, 377, 377
	030632	177400 	177400 	177400
	030640	001400 	000377 	000377
	030646	000377
    592	030650	000377 	000377 	000377 		.word	377, 377, 377, 377, 377, 377, 377, 377, 377, 377
	030656	000377 	000377 	000377
	030664	000377 	000377 	000377
	030672	000377
    593	030674	000377 	000377 	000377 		.word	377, 377, 377, 177, 0, 0, 0, 0, 0, 0
	030702	000177 	000000 	000000
	030710	000000 	000000 	000000
	030716	000000
    594	030720	000000 	000000 	000000 		.word	0, 0, 0, 0, 0, 177000, 177400, 177400, 177400, 177400
	030726	000000 	000000 	177000
	030734	177400 	177400 	177400
	030742	177400
    595	030744	177400 	177400 	177400 		.word	177400, 177400, 177400, 177400, 177400, 177400, 17400, 370, 377, 377
	030752	177400 	177400 	177400
	030760	017400 	000370 	000377
	030766	000377
    596	030770	000377 	000377 	000377 		.word	377, 377, 377, 377, 377, 377, 377, 377, 377, 377
	030776	000377 	000377 	000377
	031004	000377 	000377 	000377
	031012	000377
    597	031014	000377 	000377 	000377 		.word	377, 377, 377, 377, 0, 0, 0, 0, 0, 0
	031022	000377 	000000 	000000
	031030	000000 	000000 	000000
	031036	000000
    598	031040	000000 	000000 	000000 		.word	0, 0, 0, 0, 0, 177000, 177400, 177400, 177400, 177400
	031046	000000 	000000 	177000
	031054	177400 	177400 	177400
	031062	177400
    599	031064	177400 	177400 	177400 		.word	177400, 177400, 177400, 177400, 177400, 177400, 177400, 300, 377, 377
	031072	177400 	177400 	177400
	031100	177400 	000300 	000377
	031106	000377
    600	031110	000377 	000377 	000377 		.word	377, 377, 377, 377, 377, 377, 377, 377, 377, 377
	031116	000377 	000377 	000377
	031124	000377 	000377 	000377
	031132	000377
    601	031134	000377 	000377 	000377 		.word	377, 377, 377, 377, 0, 0, 0, 0, 0, 0
.MAIN.	MACRO V05.06R Sunday 24-Sep-23 10:55  Page 1-26


	031142	000377 	000000 	000000
	031150	000000 	000000 	000000
	031156	000000
    602	031160	000000 	000000 	000000 		.word	0, 0, 0, 0, 0, 177400, 177400, 177400, 177400, 177400
	031166	000000 	000000 	177400
	031174	177400 	177400 	177400
	031202	177400
    603	031204	177400 	177400 	177400 		.word	177400, 177400, 177400, 177400, 177400, 177400, 177400, 3400, 376, 377
	031212	177400 	177400 	177400
	031220	177400 	003400 	000376
	031226	000377
    604	031230	000377 	000377 	000377 		.word	377, 377, 377, 377, 377, 377, 377, 377, 377, 377
	031236	000377 	000377 	000377
	031244	000377 	000377 	000377
	031252	000377
    605	031254	000377 	000377 	000377 		.word	377, 377, 377, 377, 1, 0, 0, 0, 0, 0
	031262	000377 	000001 	000000
	031270	000000 	000000 	000000
	031276	000000
    606	031300	000000 	000000 	000000 		.word	0, 0, 0, 0, 0, 177400, 177400, 177400, 177400, 177400
	031306	000000 	000000 	177400
	031314	177400 	177400 	177400
	031322	177400
    607	031324	177400 	177400 	177400 		.word	177400, 177400, 177400, 177400, 177400, 177400, 177400, 37400, 360, 377
	031332	177400 	177400 	177400
	031340	177400 	037400 	000360
	031346	000377
    608	031350	000377 	000377 	000377 		.word	377, 377, 377, 377, 377, 377, 377, 377, 377, 377
	031356	000377 	000377 	000377
	031364	000377 	000377 	000377
	031372	000377
    609	031374	000377 	000377 	000377 		.word	377, 377, 377, 377, 1, 0, 0, 0, 0, 0
	031402	000377 	000001 	000000
	031410	000000 	000000 	000000
	031416	000000
    610	031420	000000 	000000 	000000 		.word	0, 0, 0, 0, 0, 177400, 177400, 177400, 177400, 177400
	031426	000000 	000000 	177400
	031434	177400 	177400 	177400
	031442	177400
    611	031444	177400 	177400 	177400 		.word	177400, 177400, 177400, 177400, 177400, 177400, 177400, 177400, 600, 377
	031452	177400 	177400 	177400
	031460	177400 	177400 	000600
	031466	000377
    612	031470	000377 	000377 	000377 		.word	377, 377, 377, 377, 377, 377, 377, 377, 377, 377
	031476	000377 	000377 	000377
	031504	000377 	000377 	000377
	031512	000377
    613	031514	000377 	000377 	000377 		.word	377, 377, 377, 377, 1, 0, 0, 0, 0, 0
	031522	000377 	000001 	000000
	031530	000000 	000000 	000000
	031536	000000
    614	031540	000000 	000000 	000000 		.word	0, 0, 0, 0, 0, 177400, 177400, 177400, 177400, 177400
	031546	000000 	000000 	177400
	031554	177400 	177400 	177400
	031562	177400
    615	031564	177400 	177400 	177400 		.word	177400, 177400, 177400, 177400, 177400, 177400, 177400, 177400, 7400, 374
	031572	177400 	177400 	177400
.MAIN.	MACRO V05.06R Sunday 24-Sep-23 10:55  Page 1-27


	031600	177400 	177400 	007400
	031606	000374
    616	031610	000377 	000377 	000377 		.word	377, 377, 377, 377, 377, 377, 377, 377, 377, 377
	031616	000377 	000377 	000377
	031624	000377 	000377 	000377
	031632	000377
    617	031634	000377 	000377 	000377 		.word	377, 377, 377, 377, 1, 0, 0, 0, 0, 0
	031642	000377 	000001 	000000
	031650	000000 	000000 	000000
	031656	000000
    618	031660	000000 	000000 	000000 		.word	0, 0, 0, 0, 0, 177400, 177400, 177400, 177400, 177400
	031666	000000 	000000 	177400
	031674	177400 	177400 	177400
	031702	177400
    619	031704	177400 	177400 	177400 		.word	177400, 177400, 177400, 177400, 177400, 177400, 177400, 177400, 77400, 340
	031712	177400 	177400 	177400
	031720	177400 	177400 	077400
	031726	000340
    620	031730	000377 	000377 	000377 		.word	377, 377, 377, 377, 377, 377, 377, 377, 377, 377
	031736	000377 	000377 	000377
	031744	000377 	000377 	000377
	031752	000377
    621	031754	000377 	000377 	000377 		.word	377, 377, 377, 377, 1, 0, 0, 0, 0, 0
	031762	000377 	000001 	000000
	031770	000000 	000000 	000000
	031776	000000
    622	032000	000000 	000000 	000000 		.word	0, 0, 0, 0, 0, 177400, 177400, 177400, 177400, 177400
	032006	000000 	000000 	177400
	032014	177400 	177400 	177400
	032022	177400
    623	032024	177400 	177400 	177400 		.word	177400, 177400, 177400, 177400, 177400, 177400, 177400, 177400, 177400, 600
	032032	177400 	177400 	177400
	032040	177400 	177400 	177400
	032046	000600
    624	032050	000377 	000377 	000377 		.word	377, 377, 377, 377, 377, 377, 377, 377, 377, 377
	032056	000377 	000377 	000377
	032064	000377 	000377 	000377
	032072	000377
    625	032074	000377 	000377 	000377 		.word	377, 377, 377, 377, 3, 0, 0, 0, 0, 0
	032102	000377 	000003 	000000
	032110	000000 	000000 	000000
	032116	000000
    626	032120	000000 	000000 	000000 		.word	0, 0, 0, 0, 0, 177400, 177400, 177400, 177400, 177400
	032126	000000 	000000 	177400
	032134	177400 	177400 	177400
	032142	177400
    627	032144	177400 	177400 	177400 		.word	177400, 177400, 177400, 177400, 177400, 177400, 177400, 177400, 177400, 7400
	032152	177400 	177400 	177400
	032160	177400 	177400 	177400
	032166	007400
    628	032170	000374 	000377 	000377 		.word	374, 377, 377, 377, 377, 377, 377, 377, 377, 377
	032176	000377 	000377 	000377
	032204	000377 	000377 	000377
	032212	000377
    629	032214	000377 	000377 	000377 		.word	377, 377, 377, 377, 1, 0, 0, 0, 0, 0
	032222	000377 	000001 	000000
	032230	000000 	000000 	000000
.MAIN.	MACRO V05.06R Sunday 24-Sep-23 10:55  Page 1-28


	032236	000000
    630	032240	000000 	000000 	000000 		.word	0, 0, 0, 0, 0, 177400, 177400, 177400, 177400, 177400
	032246	000000 	000000 	177400
	032254	177400 	177400 	177400
	032262	177400
    631	032264	177400 	177400 	177400 		.word	177400, 177400, 177400, 177400, 177400, 177400, 177400, 177400, 177400, 77400
	032272	177400 	177400 	177400
	032300	177400 	177400 	177400
	032306	077400
    632	032310	000340 	000377 	000377 		.word	340, 377, 377, 377, 377, 377, 377, 377, 377, 377
	032316	000377 	000377 	000377
	032324	000377 	000377 	000377
	032332	000377
    633	032334	000377 	000377 	000377 		.word	377, 377, 377, 377, 1, 0, 0, 0, 0, 0
	032342	000377 	000001 	000000
	032350	000000 	000000 	000000
	032356	000000
    634	032360	000000 	000000 	000000 		.word	0, 0, 0, 0, 0, 177400, 177400, 177400, 177400, 177400
	032366	000000 	000000 	177400
	032374	177400 	177400 	177400
	032402	177400
    635	032404	177400 	177400 	177400 		.word	177400, 177400, 177400, 177400, 177400, 177400, 177400, 177400, 177400, 177400
	032412	177400 	177400 	177400
	032420	177400 	177400 	177400
	032426	177400
    636	032430	001400 	000377 	000377 		.word	1400, 377, 377, 377, 377, 377, 377, 377, 377, 377
	032436	000377 	000377 	000377
	032444	000377 	000377 	000377
	032452	000377
    637	032454	000377 	000377 	000377 		.word	377, 377, 377, 377, 1, 0, 0, 0, 0, 0
	032462	000377 	000001 	000000
	032470	000000 	000000 	000000
	032476	000000
    638	032500	000000 	000000 	000000 		.word	0, 0, 0, 0, 0, 177400, 177400, 177400, 177400, 177400
	032506	000000 	000000 	177400
	032514	177400 	177400 	177400
	032522	177400
    639	032524	177400 	177400 	177400 		.word	177400, 177400, 177400, 177400, 177400, 177400, 177400, 177400, 177400, 177400
	032532	177400 	177400 	177400
	032540	177400 	177400 	177400
	032546	177400
    640	032550	017400 	000370 	000377 		.word	17400, 370, 377, 377, 377, 377, 377, 377, 377, 377
	032556	000377 	000377 	000377
	032564	000377 	000377 	000377
	032572	000377
    641	032574	000377 	000377 	000377 		.word	377, 377, 377, 377, 1, 0, 0, 0, 0, 0
	032602	000377 	000001 	000000
	032610	000000 	000000 	000000
	032616	000000
    642	032620	000000 	000000 	000000 		.word	0, 0, 0, 0, 0, 177400, 177400, 177400, 177400, 177400
	032626	000000 	000000 	177400
	032634	177400 	177400 	177400
	032642	177400
    643	032644	177400 	177400 	177400 		.word	177400, 177400, 177400, 177400, 177400, 177400, 177400, 177400, 177400, 177400
	032652	177400 	177400 	177400
	032660	177400 	177400 	177400
	032666	177400
.MAIN.	MACRO V05.06R Sunday 24-Sep-23 10:55  Page 1-29


    644	032670	177400 	000300 	000377 		.word	177400, 300, 377, 377, 377, 377, 377, 377, 377, 377
	032676	000377 	000377 	000377
	032704	000377 	000377 	000377
	032712	000377
    645	032714	000377 	000377 	000377 		.word	377, 377, 377, 377, 1, 0, 0, 0, 0, 0
	032722	000377 	000001 	000000
	032730	000000 	000000 	000000
	032736	000000
    646	032740	000000 	000000 	000000 		.word	0, 0, 0, 0, 0, 177000, 177400, 177400, 177400, 177400
	032746	000000 	000000 	177000
	032754	177400 	177400 	177400
	032762	177400
    647	032764	177400 	177400 	177400 		.word	177400, 177400, 177400, 177400, 177400, 177400, 177400, 177400, 177400, 177400
	032772	177400 	177400 	177400
	033000	177400 	177400 	177400
	033006	177400
    648	033010	177400 	003400 	000376 		.word	177400, 3400, 376, 377, 377, 377, 377, 377, 377, 377
	033016	000377 	000377 	000377
	033024	000377 	000377 	000377
	033032	000377
    649	033034	000377 	000377 	000377 		.word	377, 377, 377, 377, 0, 0, 0, 0, 0, 0
	033042	000377 	000000 	000000
	033050	000000 	000000 	000000
	033056	000000
    650	033060	000000 	000000 	000000 		.word	0, 0, 0, 0, 0, 177000, 177400, 177400, 177400, 177400
	033066	000000 	000000 	177000
	033074	177400 	177400 	177400
	033102	177400
    651	033104	177400 	177400 	177400 		.word	177400, 177400, 177400, 177400, 177400, 177400, 177400, 177400, 177400, 177400
	033112	177400 	177400 	177400
	033120	177400 	177400 	177400
	033126	177400
    652	033130	177400 	037400 	000360 		.word	177400, 37400, 360, 377, 377, 377, 377, 377, 377, 377
	033136	000377 	000377 	000377
	033144	000377 	000377 	000377
	033152	000377
    653	033154	000377 	000377 	000377 		.word	377, 377, 377, 377, 0, 0, 0, 0, 0, 0
	033162	000377 	000000 	000000
	033170	000000 	000000 	000000
	033176	000000
    654	033200	000000 	000000 	000000 		.word	0, 0, 0, 0, 0, 176000, 177400, 177400, 177400, 177400
	033206	000000 	000000 	176000
	033214	177400 	177400 	177400
	033222	177400
    655	033224	177400 	177400 	177400 		.word	177400, 177400, 177400, 177400, 177400, 177400, 177400, 177400, 177400, 177400
	033232	177400 	177400 	177400
	033240	177400 	177400 	177400
	033246	177400
    656	033250	177400 	177400 	000600 		.word	177400, 177400, 600, 377, 377, 377, 377, 377, 377, 377
	033256	000377 	000377 	000377
	033264	000377 	000377 	000377
	033272	000377
    657	033274	000377 	000377 	000377 		.word	377, 377, 377, 177, 0, 0, 0, 0, 0, 0
	033302	000177 	000000 	000000
	033310	000000 	000000 	000000
	033316	000000
    658	033320	000000 	000000 	000000 		.word	0, 0, 0, 0, 0, 176000, 177400, 177400, 177400, 177400
.MAIN.	MACRO V05.06R Sunday 24-Sep-23 10:55  Page 1-30


	033326	000000 	000000 	176000
	033334	177400 	177400 	177400
	033342	177400
    659	033344	177400 	177400 	177400 		.word	177400, 177400, 177400, 177400, 177400, 177400, 177400, 177400, 177400, 177400
	033352	177400 	177400 	177400
	033360	177400 	177400 	177400
	033366	177400
    660	033370	177400 	177400 	007400 		.word	177400, 177400, 7400, 374, 377, 377, 377, 377, 377, 377
	033376	000374 	000377 	000377
	033404	000377 	000377 	000377
	033412	000377
    661	033414	000377 	000377 	000377 		.word	377, 377, 377, 177, 0, 0, 0, 0, 0, 0
	033422	000177 	000000 	000000
	033430	000000 	000000 	000000
	033436	000000
    662	033440	000000 	000000 	000000 		.word	0, 0, 0, 0, 0, 174000, 177400, 177400, 177400, 177400
	033446	000000 	000000 	174000
	033454	177400 	177400 	177400
	033462	177400
    663	033464	177400 	177400 	177400 		.word	177400, 177400, 177400, 177400, 177400, 177400, 177400, 177400, 177400, 177400
	033472	177400 	177400 	177400
	033500	177400 	177400 	177400
	033506	177400
    664	033510	177400 	177400 	077400 		.word	177400, 177400, 77400, 340, 377, 377, 377, 377, 377, 377
	033516	000340 	000377 	000377
	033524	000377 	000377 	000377
	033532	000377
    665	033534	000377 	000377 	000377 		.word	377, 377, 377, 77, 0, 0, 0, 0, 0, 0
	033542	000077 	000000 	000000
	033550	000000 	000000 	000000
	033556	000000
    666	033560	000000 	000000 	000000 		.word	0, 0, 0, 0, 0, 170000, 177400, 177400, 177400, 177400
	033566	000000 	000000 	170000
	033574	177400 	177400 	177400
	033602	177400
    667	033604	177400 	177400 	177400 		.word	177400, 177400, 177400, 177400, 177400, 177400, 177400, 177400, 177400, 177400
	033612	177400 	177400 	177400
	033620	177400 	177400 	177400
	033626	177400
    668	033630	177400 	177400 	177400 		.word	177400, 177400, 177400, 1400, 377, 377, 377, 377, 377, 377
	033636	001400 	000377 	000377
	033644	000377 	000377 	000377
	033652	000377
    669	033654	000377 	000377 	000377 		.word	377, 377, 377, 37, 0, 0, 0, 0, 0, 0
	033662	000037 	000000 	000000
	033670	000000 	000000 	000000
	033676	000000
    670	033700	000000 	000000 	000000 		.word	0, 0, 0, 0, 0, 160000, 177400, 177400, 177400, 177400
	033706	000000 	000000 	160000
	033714	177400 	177400 	177400
	033722	177400
    671	033724	177400 	177400 	177400 		.word	177400, 177400, 177400, 177400, 177400, 177400, 177400, 177400, 177400, 177400
	033732	177400 	177400 	177400
	033740	177400 	177400 	177400
	033746	177400
    672	033750	177400 	177400 	177400 		.word	177400, 177400, 177400, 7400, 374, 377, 377, 377, 377, 377
	033756	007400 	000374 	000377
.MAIN.	MACRO V05.06R Sunday 24-Sep-23 10:55  Page 1-31


	033764	000377 	000377 	000377
	033772	000377
    673	033774	000377 	000377 	000377 		.word	377, 377, 377, 17, 0, 0, 0, 0, 0, 0
	034002	000017 	000000 	000000
	034010	000000 	000000 	000000
	034016	000000
    674	034020	000000 	000000 	000000 		.word	0, 0, 0, 0, 0, 140000, 177400, 177400, 177400, 177400
	034026	000000 	000000 	140000
	034034	177400 	177400 	177400
	034042	177400
    675	034044	177400 	177400 	177400 		.word	177400, 177400, 177400, 177400, 177400, 177400, 177400, 177400, 177400, 177400
	034052	177400 	177400 	177400
	034060	177400 	177400 	177400
	034066	177400
    676	034070	177400 	177400 	177400 		.word	177400, 177400, 177400, 77400, 340, 377, 377, 377, 377, 377
	034076	077400 	000340 	000377
	034104	000377 	000377 	000377
	034112	000377
    677	034114	000377 	000377 	000377 		.word	377, 377, 377, 7, 0, 0, 0, 0, 0, 0
	034122	000007 	000000 	000000
	034130	000000 	000000 	000000
	034136	000000
    678	034140	000000 	000000 	000000 		.word	0, 0, 0, 0, 0, 100000, 177400, 177400, 177400, 177400
	034146	000000 	000000 	100000
	034154	177400 	177400 	177400
	034162	177400
    679	034164	177400 	177400 	177400 		.word	177400, 177400, 177400, 177400, 177400, 177400, 177400, 177400, 177400, 177400
	034172	177400 	177400 	177400
	034200	177400 	177400 	177400
	034206	177400
    680	034210	177400 	177400 	177400 		.word	177400, 177400, 177400, 177400, 1400, 377, 377, 377, 377, 377
	034216	177400 	001400 	000377
	034224	000377 	000377 	000377
	034232	000377
    681	034234	000377 	000377 	000377 		.word	377, 377, 377, 3, 0, 0, 0, 0, 0, 0
	034242	000003 	000000 	000000
	034250	000000 	000000 	000000
	034256	000000
    682	034260	000000 	000000 	000000 		.word	0, 0, 0, 0, 0, 0, 177400, 177400, 177400, 177400
	034266	000000 	000000 	000000
	034274	177400 	177400 	177400
	034302	177400
    683	034304	177400 	177400 	177400 		.word	177400, 177400, 177400, 177400, 177400, 177400, 177400, 177400, 177400, 177400
	034312	177400 	177400 	177400
	034320	177400 	177400 	177400
	034326	177400
    684	034330	177400 	177400 	177400 		.word	177400, 177400, 177400, 177400, 17400, 370, 377, 377, 377, 377
	034336	177400 	017400 	000370
	034344	000377 	000377 	000377
	034352	000377
    685	034354	000377 	000377 	000377 		.word	377, 377, 377, 1, 0, 0, 0, 0, 0, 0
	034362	000001 	000000 	000000
	034370	000000 	000000 	000000
	034376	000000
    686	034400	000000 	000000 	000000 		.word	0, 0, 0, 0, 0, 0, 177000, 177400, 177400, 177400
	034406	000000 	000000 	000000
	034414	177000 	177400 	177400
.MAIN.	MACRO V05.06R Sunday 24-Sep-23 10:55  Page 1-32


	034422	177400
    687	034424	177400 	177400 	177400 		.word	177400, 177400, 177400, 177400, 177400, 177400, 177400, 177400, 177400, 177400
	034432	177400 	177400 	177400
	034440	177400 	177400 	177400
	034446	177400
    688	034450	177400 	177400 	177400 		.word	177400, 177400, 177400, 177400, 77400, 340, 377, 377, 377, 377
	034456	177400 	077400 	000340
	034464	000377 	000377 	000377
	034472	000377
    689	034474	000377 	000377 	000377 		.word	377, 377, 377, 0, 0, 0, 0, 0, 0, 0
	034502	000000 	000000 	000000
	034510	000000 	000000 	000000
	034516	000000
    690	034520	000000 	000000 	000000 		.word	0, 0, 0, 0, 0, 0, 176000, 177400, 177400, 177400
	034526	000000 	000000 	000000
	034534	176000 	177400 	177400
	034542	177400
    691	034544	177400 	177400 	177400 		.word	177400, 177400, 177400, 177400, 177400, 177400, 177400, 177400, 177400, 177400
	034552	177400 	177400 	177400
	034560	177400 	177400 	177400
	034566	177400
    692	034570	177400 	177400 	177400 		.word	177400, 177400, 177400, 177400, 177400, 1400, 377, 377, 377, 377
	034576	177400 	177400 	001400
	034604	000377 	000377 	000377
	034612	000377
    693	034614	000377 	000377 	000177 		.word	377, 377, 177, 0, 0, 0, 0, 0, 0, 0
	034622	000000 	000000 	000000
	034630	000000 	000000 	000000
	034636	000000
    694	034640	000000 	000000 	000000 		.word	0, 0, 0, 0, 0, 0, 174000, 177400, 177400, 177400
	034646	000000 	000000 	000000
	034654	174000 	177400 	177400
	034662	177400
    695	034664	177400 	177400 	177400 		.word	177400, 177400, 177400, 177400, 177400, 177400, 177400, 177400, 177400, 177400
	034672	177400 	177400 	177400
	034700	177400 	177400 	177400
	034706	177400
    696	034710	177400 	177400 	177400 		.word	177400, 177400, 177400, 177400, 177400, 17400, 370, 377, 377, 377
	034716	177400 	177400 	017400
	034724	000370 	000377 	000377
	034732	000377
    697	034734	000377 	000377 	000077 		.word	377, 377, 77, 0, 0, 0, 0, 0, 0, 0
	034742	000000 	000000 	000000
	034750	000000 	000000 	000000
	034756	000000
    698	034760	000000 	000000 	000000 		.word	0, 0, 0, 0, 0, 0, 170000, 177400, 177400, 177400
	034766	000000 	000000 	000000
	034774	170000 	177400 	177400
	035002	177400
    699	035004	177400 	177400 	177400 		.word	177400, 177400, 177400, 177400, 177400, 177400, 177400, 177400, 177400, 177400
	035012	177400 	177400 	177400
	035020	177400 	177400 	177400
	035026	177400
    700	035030	177400 	177400 	177400 		.word	177400, 177400, 177400, 177400, 177400, 77400, 340, 377, 377, 377
	035036	177400 	177400 	077400
	035044	000340 	000377 	000377
	035052	000377
.MAIN.	MACRO V05.06R Sunday 24-Sep-23 10:55  Page 1-33


    701	035054	000377 	000377 	000037 		.word	377, 377, 37, 0, 0, 0, 0, 0, 0, 0
	035062	000000 	000000 	000000
	035070	000000 	000000 	000000
	035076	000000
    702	035100	000000 	000000 	000000 		.word	0, 0, 0, 0, 0, 0, 140000, 177400, 177400, 177400
	035106	000000 	000000 	000000
	035114	140000 	177400 	177400
	035122	177400
    703	035124	177400 	177400 	177400 		.word	177400, 177400, 177400, 177400, 177400, 177400, 177400, 177400, 177400, 177400
	035132	177400 	177400 	177400
	035140	177400 	177400 	177400
	035146	177400
    704	035150	177400 	177400 	177400 		.word	177400, 177400, 177400, 177400, 177400, 177400, 1400, 377, 377, 377
	035156	177400 	177400 	177400
	035164	001400 	000377 	000377
	035172	000377
    705	035174	000377 	000377 	000007 		.word	377, 377, 7, 0, 0, 0, 0, 0, 0, 0
	035202	000000 	000000 	000000
	035210	000000 	000000 	000000
	035216	000000
    706	035220	000000 	000000 	000000 		.word	0, 0, 0, 0, 0, 0, 100000, 177400, 177400, 177400
	035226	000000 	000000 	000000
	035234	100000 	177400 	177400
	035242	177400
    707	035244	177400 	177400 	177400 		.word	177400, 177400, 177400, 177400, 177400, 177400, 177400, 177400, 177400, 177400
	035252	177400 	177400 	177400
	035260	177400 	177400 	177400
	035266	177400
    708	035270	177400 	177400 	177400 		.word	177400, 177400, 177400, 177400, 177400, 177400, 17400, 370, 377, 377
	035276	177400 	177400 	177400
	035304	017400 	000370 	000377
	035312	000377
    709	035314	000377 	000377 	000003 		.word	377, 377, 3, 0, 0, 0, 0, 0, 0, 0
	035322	000000 	000000 	000000
	035330	000000 	000000 	000000
	035336	000000
    710	035340	000000 	000000 	000000 		.word	0, 0, 0, 0, 0, 0, 0, 177000, 177400, 177400
	035346	000000 	000000 	000000
	035354	000000 	177000 	177400
	035362	177400
    711	035364	177400 	177400 	177400 		.word	177400, 177400, 177400, 177400, 177400, 177400, 177400, 177400, 177400, 177400
	035372	177400 	177400 	177400
	035400	177400 	177400 	177400
	035406	177400
    712	035410	177400 	177400 	177400 		.word	177400, 177400, 177400, 177400, 177400, 177400, 77400, 340, 377, 377
	035416	177400 	177400 	177400
	035424	077400 	000340 	000377
	035432	000377
    713	035434	000377 	000377 	000000 		.word	377, 377, 0, 0, 0, 0, 0, 0, 0, 0
	035442	000000 	000000 	000000
	035450	000000 	000000 	000000
	035456	000000
    714	035460	000000 	000000 	000000 		.word	0, 0, 0, 0, 0, 0, 0, 176000, 177400, 177400
	035466	000000 	000000 	000000
	035474	000000 	176000 	177400
	035502	177400
    715	035504	177400 	177400 	177400 		.word	177400, 177400, 177400, 177400, 177400, 177400, 177400, 177400, 177400, 177400
.MAIN.	MACRO V05.06R Sunday 24-Sep-23 10:55  Page 1-34


	035512	177400 	177400 	177400
	035520	177400 	177400 	177400
	035526	177400
    716	035530	177400 	177400 	177400 		.word	177400, 177400, 177400, 177400, 177400, 177400, 177400, 1400, 377, 377
	035536	177400 	177400 	177400
	035544	177400 	001400 	000377
	035552	000377
    717	035554	000377 	000177 	000000 		.word	377, 177, 0, 0, 0, 0, 0, 0, 0, 0
	035562	000000 	000000 	000000
	035570	000000 	000000 	000000
	035576	000000
    718	035600	000000 	000000 	000000 		.word	0, 0, 0, 0, 0, 0, 0, 170000, 177400, 177400
	035606	000000 	000000 	000000
	035614	000000 	170000 	177400
	035622	177400
    719	035624	177400 	177400 	177400 		.word	177400, 177400, 177400, 177400, 177400, 177400, 177400, 177400, 177400, 177400
	035632	177400 	177400 	177400
	035640	177400 	177400 	177400
	035646	177400
    720	035650	177400 	177400 	177400 		.word	177400, 177400, 177400, 177400, 177400, 177400, 177400, 7400, 374, 377
	035656	177400 	177400 	177400
	035664	177400 	007400 	000374
	035672	000377
    721	035674	000377 	000037 	000000 		.word	377, 37, 0, 0, 0, 0, 0, 0, 0, 0
	035702	000000 	000000 	000000
	035710	000000 	000000 	000000
	035716	000000
    722	035720	000000 	000000 	000000 		.word	0, 0, 0, 0, 0, 0, 0, 160000, 177400, 177400
	035726	000000 	000000 	000000
	035734	000000 	160000 	177400
	035742	177400
    723	035744	177400 	177400 	177400 		.word	177400, 177400, 177400, 177400, 177400, 177400, 177400, 177400, 177400, 177400
	035752	177400 	177400 	177400
	035760	177400 	177400 	177400
	035766	177400
    724	035770	177400 	177400 	177400 		.word	177400, 177400, 177400, 177400, 177400, 177400, 177400, 77400, 340, 377
	035776	177400 	177400 	177400
	036004	177400 	077400 	000340
	036012	000377
    725	036014	000377 	000017 	000000 		.word	377, 17, 0, 0, 0, 0, 0, 0, 0, 0
	036022	000000 	000000 	000000
	036030	000000 	000000 	000000
	036036	000000
    726	036040	000000 	000000 	000000 		.word	0, 0, 0, 0, 0, 0, 0, 100000, 177400, 177400
	036046	000000 	000000 	000000
	036054	000000 	100000 	177400
	036062	177400
    727	036064	177400 	177400 	177400 		.word	177400, 177400, 177400, 177400, 177400, 177400, 177400, 177400, 177400, 177400
	036072	177400 	177400 	177400
	036100	177400 	177400 	177400
	036106	177400
    728	036110	177400 	177400 	177400 		.word	177400, 177400, 177400, 177400, 177400, 177400, 177400, 177400, 600, 377
	036116	177400 	177400 	177400
	036124	177400 	177400 	000600
	036132	000377
    729	036134	000377 	000003 	000000 		.word	377, 3, 0, 0, 0, 0, 0, 0, 0, 0
	036142	000000 	000000 	000000
.MAIN.	MACRO V05.06R Sunday 24-Sep-23 10:55  Page 1-35


	036150	000000 	000000 	000000
	036156	000000
    730	036160	000000 	000000 	000000 		.word	0, 0, 0, 0, 0, 0, 0, 0, 177000, 177400
	036166	000000 	000000 	000000
	036174	000000 	000000 	177000
	036202	177400
    731	036204	177400 	177400 	177400 		.word	177400, 177400, 177400, 177400, 177400, 177400, 177400, 177400, 177400, 177400
	036212	177400 	177400 	177400
	036220	177400 	177400 	177400
	036226	177400
    732	036230	177400 	177400 	177400 		.word	177400, 177400, 177400, 177400, 177400, 177400, 177400, 177400, 3400, 376
	036236	177400 	177400 	177400
	036244	177400 	177400 	003400
	036252	000376
    733	036254	000377 	000000 	000000 		.word	377, 0, 0, 0, 0, 0, 0, 0, 0, 0
	036262	000000 	000000 	000000
	036270	000000 	000000 	000000
	036276	000000
    734	036300	000000 	000000 	000000 		.word	0, 0, 0, 0, 0, 0, 0, 0, 174000, 177400
	036306	000000 	000000 	000000
	036314	000000 	000000 	174000
	036322	177400
    735	036324	177400 	177400 	177400 		.word	177400, 177400, 177400, 177400, 177400, 177400, 177400, 177400, 177400, 177400
	036332	177400 	177400 	177400
	036340	177400 	177400 	177400
	036346	177400
    736	036350	177400 	177400 	177400 		.word	177400, 177400, 177400, 177400, 177400, 177400, 177400, 177400, 37400, 360
	036356	177400 	177400 	177400
	036364	177400 	177400 	037400
	036372	000360
    737	036374	000077 	000000 	000000 		.word	77, 0, 0, 0, 0, 0, 0, 0, 0, 0
	036402	000000 	000000 	000000
	036410	000000 	000000 	000000
	036416	000000
    738	036420	000000 	000000 	000000 		.word	0, 0, 0, 0, 0, 0, 0, 0, 160000, 177400
	036426	000000 	000000 	000000
	036434	000000 	000000 	160000
	036442	177400
    739	036444	177400 	177400 	177400 		.word	177400, 177400, 177400, 177400, 177400, 177400, 177400, 177400, 177400, 177400
	036452	177400 	177400 	177400
	036460	177400 	177400 	177400
	036466	177400
    740	036470	177400 	177400 	177400 		.word	177400, 177400, 177400, 177400, 177400, 177400, 177400, 177400, 177400, 300
	036476	177400 	177400 	177400
	036504	177400 	177400 	177400
	036512	000300
    741	036514	000017 	000000 	000000 		.word	17, 0, 0, 0, 0, 0, 0, 0, 0, 0
	036522	000000 	000000 	000000
	036530	000000 	000000 	000000
	036536	000000
    742	036540	000000 	000000 	000000 		.word	0, 0, 0, 0, 0, 0, 0, 0, 100000, 177400
	036546	000000 	000000 	000000
	036554	000000 	000000 	100000
	036562	177400
    743	036564	177400 	177400 	177400 		.word	177400, 177400, 177400, 177400, 177400, 177400, 177400, 177400, 177400, 177400
	036572	177400 	177400 	177400
	036600	177400 	177400 	177400
.MAIN.	MACRO V05.06R Sunday 24-Sep-23 10:55  Page 1-36


	036606	177400
    744	036610	177400 	177400 	177400 		.word	177400, 177400, 177400, 177400, 177400, 177400, 177400, 177400, 177400, 1400
	036616	177400 	177400 	177400
	036624	177400 	177400 	177400
	036632	001400
    745	036634	000003 	000000 	000000 		.word	3, 0, 0, 0, 0, 0, 0, 0, 0, 0
	036642	000000 	000000 	000000
	036650	000000 	000000 	000000
	036656	000000
    746	036660	000000 	000000 	000000 		.word	0, 0, 0, 0, 0, 0, 0, 0, 0, 177000
	036666	000000 	000000 	000000
	036674	000000 	000000 	000000
	036702	177000
    747	036704	177400 	177400 	177400 		.word	177400, 177400, 177400, 177400, 177400, 177400, 177400, 177400, 177400, 177400
	036712	177400 	177400 	177400
	036720	177400 	177400 	177400
	036726	177400
    748	036730	177400 	177400 	177400 		.word	177400, 177400, 177400, 177400, 177400, 177400, 177400, 177400, 177400, 7400
	036736	177400 	177400 	177400
	036744	177400 	177400 	177400
	036752	007400
    749	036754	000000 	000000 	000000 		.word	0, 0, 0, 0, 0, 0, 0, 0, 0, 0
	036762	000000 	000000 	000000
	036770	000000 	000000 	000000
	036776	000000
    750	037000	000000 	000000 	000000 		.word	0, 0, 0, 0, 0, 0, 0, 0, 0, 174000
	037006	000000 	000000 	000000
	037014	000000 	000000 	000000
	037022	174000
    751	037024	177400 	177400 	177400 		.word	177400, 177400, 177400, 177400, 177400, 177400, 177400, 177400, 177400, 177400
	037032	177400 	177400 	177400
	037040	177400 	177400 	177400
	037046	177400
    752	037050	177400 	177400 	177400 		.word	177400, 177400, 177400, 177400, 177400, 177400, 177400, 177400, 177400, 37400
	037056	177400 	177400 	177400
	037064	177400 	177400 	177400
	037072	037400
    753	037074	000000 	000000 	000000 		.word	0, 0, 0, 0, 0, 0, 0, 0, 0, 0
	037102	000000 	000000 	000000
	037110	000000 	000000 	000000
	037116	000000
    754	037120	000000 	000000 	000000 		.word	0, 0, 0, 0, 0, 0, 0, 0, 0, 160000
	037126	000000 	000000 	000000
	037134	000000 	000000 	000000
	037142	160000
    755	037144	177400 	177400 	177400 		.word	177400, 177400, 177400, 177400, 177400, 177400, 177400, 177400, 177400, 177400
	037152	177400 	177400 	177400
	037160	177400 	177400 	177400
	037166	177400
    756	037170	177400 	177400 	177400 		.word	177400, 177400, 177400, 177400, 177400, 177400, 177400, 177400, 177400, 177400
	037176	177400 	177400 	177400
	037204	177400 	177400 	177400
	037212	177400
    757	037214	000000 	000000 	000000 		.word	0, 0, 0, 0, 0, 0, 0, 0, 0, 0
	037222	000000 	000000 	000000
	037230	000000 	000000 	000000
	037236	000000
.MAIN.	MACRO V05.06R Sunday 24-Sep-23 10:55  Page 1-37


    758	037240	000000 	000000 	000000 		.word	0, 0, 0, 0, 0, 0, 0, 0, 100200, 100001
	037246	000000 	000000 	000000
	037254	000000 	000000 	100200
	037262	100001
    759	037264	177400 	177400 	177400 		.word	177400, 177400, 177400, 177400, 177400, 177400, 177400, 177400, 177400, 177400
	037272	177400 	177400 	177400
	037300	177400 	177400 	177400
	037306	177400
    760	037310	177400 	177400 	177400 		.word	177400, 177400, 177400, 177400, 177400, 177400, 177400, 177400, 177400, 177400
	037316	177400 	177400 	177400
	037324	177400 	177400 	177400
	037332	177400
    761	037334	001400 	000000 	000000 		.word	1400, 0, 0, 0, 0, 0, 0, 0, 0, 0
	037342	000000 	000000 	000000
	037350	000000 	000000 	000000
	037356	000000
    762	037360	000000 	000000 	000000 		.word	0, 0, 0, 0, 0, 0, 0, 0, 120340, 1007
	037366	000000 	000000 	000000
	037374	000000 	000000 	120340
	037402	001007
    763	037404	177000 	177400 	177400 		.word	177000, 177400, 177400, 177400, 177400, 177400, 177400, 177400, 177400, 177400
	037412	177400 	177400 	177400
	037420	177400 	177400 	177400
	037426	177400
    764	037430	177400 	177400 	177400 		.word	177400, 177400, 177400, 177400, 177400, 177400, 177400, 177400, 177400, 177400
	037436	177400 	177400 	177400
	037444	177400 	177400 	177400
	037452	177400
    765	037454	007400 	000000 	000000 		.word	7400, 0, 0, 0, 0, 0, 0, 0, 0, 0
	037462	000000 	000000 	000000
	037470	000000 	000000 	000000
	037476	000000
    766	037500	000000 	000000 	000000 		.word	0, 0, 0, 0, 0, 0, 0, 0, 124370, 5037
	037506	000000 	000000 	000000
	037514	000000 	000000 	124370
	037522	005037
    767	037524	174000 	177400 	177400 		.word	174000, 177400, 177400, 177400, 177400, 177400, 177400, 177400, 177400, 177400
	037532	177400 	177400 	177400
	037540	177400 	177400 	177400
	037546	177400
    768	037550	177400 	177400 	177400 		.word	177400, 177400, 177400, 177400, 177400, 177400, 177400, 177400, 177400, 177400
	037556	177400 	177400 	177400
	037564	177400 	177400 	177400
	037572	177400
    769	037574	037400 	000000 	000000 		.word	37400, 0, 0, 0, 0, 0, 0, 0, 0, 0
	037602	000000 	000000 	000000
	037610	000000 	000000 	000000
	037616	000000
    770	037620	000000 	000000 	000000 		.word	0, 0, 0, 0, 0, 0, 0, 0, 125376, 125377
	037626	000000 	000000 	000000
	037634	000000 	000000 	125376
	037642	125377
    771	037644	140000 	177400 	177400 		.word	140000, 177400, 177400, 177400, 177400, 177400, 177400, 177400, 177400, 177400
	037652	177400 	177400 	177400
	037660	177400 	177400 	177400
	037666	177400
    772	037670	177400 	177400 	177400 		.word	177400, 177400, 177400, 177400, 177400, 177400, 177400, 177400, 177400, 177400
.MAIN.	MACRO V05.06R Sunday 24-Sep-23 10:55  Page 1-38


	037676	177400 	177400 	177400
	037704	177400 	177400 	177400
	037712	177400
    773	037714	177400 	000000 	000000 		.word	177400, 0, 0, 0, 0, 0, 0, 0, 0, 0
	037722	000000 	000000 	000000
	037730	000000 	000000 	000000
	037736	000000
    774	037740	000000 	000000 	000000 		.word	0, 0, 0, 0, 0, 0, 0, 100200, 125377, 125377
	037746	000000 	000000 	000000
	037754	000000 	100200 	125377
	037762	125377
    775	037764	001003 	177400 	177400 		.word	1003, 177400, 177400, 177400, 177400, 177400, 177400, 177400, 177400, 177400
	037772	177400 	177400 	177400
	040000	177400 	177400 	177400
	040006	177400
    776	040010	177400 	177400 	177400 		.word	177400, 177400, 177400, 177400, 177400, 177400, 177400, 177400, 177400, 177400
	040016	177400 	177400 	177400
	040024	177400 	177400 	177400
	040032	177400
    777	040034	177400 	001400 	000000 		.word	177400, 1400, 0, 0, 0, 0, 0, 0, 0, 0
	040042	000000 	000000 	000000
	040050	000000 	000000 	000000
	040056	000000
    778	040060	000000 	000000 	000000 		.word	0, 0, 0, 0, 0, 0, 0, 120340, 125377, 125377
	040066	000000 	000000 	000000
	040074	000000 	120340 	125377
	040102	125377
    779	040104	005017 	176000 	177400 		.word	5017, 176000, 177400, 177400, 177400, 177400, 177400, 177400, 177400, 177400
	040112	177400 	177400 	177400
	040120	177400 	177400 	177400
	040126	177400
    780	040130	177400 	177400 	177400 		.word	177400, 177400, 177400, 177400, 177400, 177400, 177400, 177400, 177400, 177400
	040136	177400 	177400 	177400
	040144	177400 	177400 	177400
	040152	177400
    781	040154	177400 	007400 	000000 		.word	177400, 7400, 0, 0, 0, 0, 0, 0, 0, 0
	040162	000000 	000000 	000000
	040170	000000 	000000 	000000
	040176	000000
    782	040200	000000 	000000 	000000 		.word	0, 0, 0, 0, 0, 0, 0, 120360, 125377, 125377
	040206	000000 	000000 	000000
	040214	000000 	120360 	125377
	040222	125377
    783	040224	025177 	160000 	177400 		.word	25177, 160000, 177400, 177400, 177400, 177400, 177400, 177400, 177400, 177400
	040232	177400 	177400 	177400
	040240	177400 	177400 	177400
	040246	177400
    784	040250	177400 	177400 	177400 		.word	177400, 177400, 177400, 177400, 177400, 177400, 177400, 177400, 177400, 177400
	040256	177400 	177400 	177400
	040264	177400 	177400 	177400
	040272	177400
    785	040274	177400 	017400 	000000 		.word	177400, 17400, 0, 0, 0, 0, 0, 0, 0, 0
	040302	000000 	000000 	000000
	040310	000000 	000000 	000000
	040316	000000
    786	040320	000000 	000000 	000000 		.word	0, 0, 0, 0, 0, 0, 0, 124374, 125377, 125377
	040326	000000 	000000 	000000
.MAIN.	MACRO V05.06R Sunday 24-Sep-23 10:55  Page 1-39


	040334	000000 	124374 	125377
	040342	125377
    787	040344	125377 	100001 	177400 		.word	125377, 100001, 177400, 177400, 177400, 177400, 177400, 177400, 177400, 177400
	040352	177400 	177400 	177400
	040360	177400 	177400 	177400
	040366	177400
    788	040370	177400 	177400 	177400 		.word	177400, 177400, 177400, 177400, 177400, 177400, 177400, 177400, 177400, 177400
	040376	177400 	177400 	177400
	040404	177400 	177400 	177400
	040412	177400
    789	040414	177400 	077400 	000000 		.word	177400, 77400, 0, 0, 0, 0, 0, 0, 0, 0
	040422	000000 	000000 	000000
	040430	000000 	000000 	000000
	040436	000000
    790	040440	000000 	000000 	000000 		.word	0, 0, 0, 0, 0, 0, 0, 125376, 125377, 125377
	040446	000000 	000000 	000000
	040454	000000 	125376 	125377
	040462	125377
    791	040464	125377 	005017 	176000 		.word	125377, 5017, 176000, 177400, 177400, 177400, 177400, 177400, 177400, 177400
	040472	177400 	177400 	177400
	040500	177400 	177400 	177400
	040506	177400
    792	040510	177400 	177400 	177400 		.word	177400, 177400, 177400, 177400, 177400, 177400, 177400, 177400, 177400, 177400
	040516	177400 	177400 	177400
	040524	177400 	177400 	177400
	040532	177400
    793	040534	177400 	177400 	000000 		.word	177400, 177400, 0, 0, 0, 0, 0, 0, 0, 0
	040542	000000 	000000 	000000
	040550	000000 	000000 	000000
	040556	000000
    794	040560	000000 	000000 	000000 		.word	0, 0, 0, 0, 0, 0, 100200, 125377, 125377, 125377
	040566	000000 	000000 	000000
	040574	100200 	125377 	125377
	040602	125377
    795	040604	125377 	025077 	170000 		.word	125377, 25077, 170000, 177400, 177400, 177400, 177400, 177400, 177400, 177400
	040612	177400 	177400 	177400
	040620	177400 	177400 	177400
	040626	177400
    796	040630	177400 	177400 	177400 		.word	177400, 177400, 177400, 177400, 177400, 177400, 177400, 177400, 177400, 177400
	040636	177400 	177400 	177400
	040644	177400 	177400 	177400
	040652	177400
    797	040654	177400 	177400 	001400 		.word	177400, 177400, 1400, 0, 0, 0, 0, 0, 0, 0
	040662	000000 	000000 	000000
	040670	000000 	000000 	000000
	040676	000000
    798	040700	000000 	000000 	000000 		.word	0, 0, 0, 0, 0, 0, 100300, 125377, 125377, 125377
	040706	000000 	000000 	000000
	040714	100300 	125377 	125377
	040722	125377
    799	040724	125377 	125377 	100001 		.word	125377, 125377, 100001, 177400, 177400, 177400, 177400, 177400, 177400, 177400
	040732	177400 	177400 	177400
	040740	177400 	177400 	177400
	040746	177400
    800	040750	177400 	177400 	177400 		.word	177400, 177400, 177400, 177400, 177400, 177400, 177400, 177400, 177400, 177400
	040756	177400 	177400 	177400
	040764	177400 	177400 	177400
.MAIN.	MACRO V05.06R Sunday 24-Sep-23 10:55  Page 1-40


	040772	177400
    801	040774	177400 	177400 	003400 		.word	177400, 177400, 3400, 0, 0, 0, 0, 0, 0, 0
	041002	000000 	000000 	000000
	041010	000000 	000000 	000000
	041016	000000
    802	041020	000000 	000000 	000000 		.word	0, 0, 0, 0, 0, 0, 120360, 125377, 125377, 125377
	041026	000000 	000000 	000000
	041034	120360 	125377 	125377
	041042	125377
    803	041044	125377 	125377 	005017 		.word	125377, 125377, 5017, 176000, 177400, 177400, 177400, 177400, 177400, 177400
	041052	176000 	177400 	177400
	041060	177400 	177400 	177400
	041066	177400
    804	041070	177400 	177400 	177400 		.word	177400, 177400, 177400, 177400, 177400, 177400, 177400, 177400, 177400, 177400
	041076	177400 	177400 	177400
	041104	177400 	177400 	177400
	041112	177400
    805	041114	177400 	177400 	017400 		.word	177400, 177400, 17400, 0, 0, 0, 0, 0, 0, 0
	041122	000000 	000000 	000000
	041130	000000 	000000 	000000
	041136	000000
    806	041140	000000 	000000 	000000 		.word	0, 0, 0, 0, 0, 0, 124370, 125377, 125377, 125377
	041146	000000 	000000 	000000
	041154	124370 	125377 	125377
	041162	125377
    807	041164	125377 	125377 	025077 		.word	125377, 125377, 25077, 170000, 177400, 177400, 177400, 177400, 177400, 177400
	041172	170000 	177400 	177400
	041200	177400 	177400 	177400
	041206	177400
    808	041210	177400 	177400 	177400 		.word	177400, 177400, 177400, 177400, 177400, 177400, 177400, 177400, 177400, 177400
	041216	177400 	177400 	177400
	041224	177400 	177400 	177400
	041232	177400
    809	041234	177400 	177400 	037400 		.word	177400, 177400, 37400, 0, 0, 0, 0, 0, 0, 0
	041242	000000 	000000 	000000
	041250	000000 	000000 	000000
	041256	000000
    810	041260	000000 	000000 	000000 		.word	0, 0, 0, 0, 0, 0, 124374, 125377, 125377, 125377
	041266	000000 	000000 	000000
	041274	124374 	125377 	125377
	041302	125377
    811	041304	125377 	125377 	125377 		.word	125377, 125377, 125377, 100001, 177400, 177400, 177400, 177400, 177400, 177400
	041312	100001 	177400 	177400
	041320	177400 	177400 	177400
	041326	177400
    812	041330	177400 	177400 	177400 		.word	177400, 177400, 177400, 177400, 177400, 177400, 177400, 177400, 177400, 177400
	041336	177400 	177400 	177400
	041344	177400 	177400 	177400
	041352	177400
    813	041354	177400 	177400 	077400 		.word	177400, 177400, 77400, 0, 0, 0, 0, 0, 0, 0
	041362	000000 	000000 	000000
	041370	000000 	000000 	000000
	041376	000000
    814	041400	000000 	000000 	000000 		.word	0, 0, 0, 0, 0, 0, 125376, 125377, 125377, 125377
	041406	000000 	000000 	000000
	041414	125376 	125377 	125377
	041422	125377
.MAIN.	MACRO V05.06R Sunday 24-Sep-23 10:55  Page 1-41


    815	041424	125377 	125377 	125377 		.word	125377, 125377, 125377, 5017, 176000, 177400, 177400, 177400, 177400, 177400
	041432	005017 	176000 	177400
	041440	177400 	177400 	177400
	041446	177400
    816	041450	177400 	177400 	177400 		.word	177400, 177400, 177400, 177400, 177400, 177400, 177400, 177400, 177400, 177400
	041456	177400 	177400 	177400
	041464	177400 	177400 	177400
	041472	177400
    817	041474	177400 	177400 	177400 		.word	177400, 177400, 177400, 0, 0, 0, 0, 0, 0, 0
	041502	000000 	000000 	000000
	041510	000000 	000000 	000000
	041516	000000
    818	041520	000000 	000000 	000000 		.word	0, 0, 0, 0, 0, 0, 125377, 125377, 125377, 125377
	041526	000000 	000000 	000000
	041534	125377 	125377 	125377
	041542	125377
    819	041544	125377 	125377 	125377 		.word	125377, 125377, 125377, 25077, 170000, 177400, 177400, 177400, 177400, 177400
	041552	025077 	170000 	177400
	041560	177400 	177400 	177400
	041566	177400
    820	041570	177400 	177400 	177400 		.word	177400, 177400, 177400, 177400, 177400, 177400, 177400, 177400, 177400, 177400
	041576	177400 	177400 	177400
	041604	177400 	177400 	177400
	041612	177400
    821	041614	177400 	177400 	177400 		.word	177400, 177400, 177400, 400, 0, 0, 0, 0, 0, 0
	041622	000400 	000000 	000000
	041630	000000 	000000 	000000
	041636	000000
    822	041640	000000 	000000 	000000 		.word	0, 0, 0, 0, 0, 100200, 125377, 125377, 125377, 125377
	041646	000000 	000000 	100200
	041654	125377 	125377 	125377
	041662	125377
    823	041664	125377 	125377 	125377 		.word	125377, 125377, 125377, 125377, 100001, 177400, 177400, 177400, 177400, 177400
	041672	125377 	100001 	177400
	041700	177400 	177400 	177400
	041706	177400
    824	041710	177400 	177400 	177400 		.word	177400, 177400, 177400, 177400, 177400, 177400, 177400, 177400, 177400, 177400
	041716	177400 	177400 	177400
	041724	177400 	177400 	177400
	041732	177400
    825	041734	177400 	177400 	177400 		.word	177400, 177400, 177400, 1400, 0, 0, 0, 0, 0, 0
	041742	001400 	000000 	000000
	041750	000000 	000000 	000000
	041756	000000
    826	041760	000000 	000000 	000000 		.word	0, 0, 0, 0, 0, 100300, 125377, 125377, 125377, 125377
	041766	000000 	000000 	100300
	041774	125377 	125377 	125377
	042002	125377
    827	042004	125377 	125377 	125377 		.word	125377, 125377, 125377, 125377, 5017, 176000, 177400, 177400, 177400, 177400
	042012	125377 	005017 	176000
	042020	177400 	177400 	177400
	042026	177400
    828	042030	177400 	177400 	177400 		.word	177400, 177400, 177400, 177400, 177400, 177400, 177400, 177400, 177400, 177400
	042036	177400 	177400 	177400
	042044	177400 	177400 	177400
	042052	177400
    829	042054	177400 	177400 	177400 		.word	177400, 177400, 177400, 3400, 0, 0, 0, 0, 0, 0
.MAIN.	MACRO V05.06R Sunday 24-Sep-23 10:55  Page 1-42


	042062	003400 	000000 	000000
	042070	000000 	000000 	000000
	042076	000000
    830	042100	000000 	000000 	000000 		.word	0, 0, 0, 0, 0, 120340, 125377, 125377, 125377, 125377
	042106	000000 	000000 	120340
	042114	125377 	125377 	125377
	042122	125377
    831	042124	125377 	125377 	125377 		.word	125377, 125377, 125377, 125377, 25177, 160000, 177400, 177400, 177400, 177400
	042132	125377 	025177 	160000
	042140	177400 	177400 	177400
	042146	177400
    832	042150	177400 	177400 	177400 		.word	177400, 177400, 177400, 177400, 177400, 177400, 177400, 177400, 177400, 177400
	042156	177400 	177400 	177400
	042164	177400 	177400 	177400
	042172	177400
    833	042174	177400 	177400 	177400 		.word	177400, 177400, 177400, 7400, 0, 0, 0, 0, 0, 0
	042202	007400 	000000 	000000
	042210	000000 	000000 	000000
	042216	000000
    834	042220	000000 	000000 	000000 		.word	0, 0, 0, 0, 0, 120360, 125377, 125377, 125377, 125377
	042226	000000 	000000 	120360
	042234	125377 	125377 	125377
	042242	125377
    835	042244	125377 	125377 	125377 		.word	125377, 125377, 125377, 125377, 125377, 100001, 177400, 177400, 177400, 177400
	042252	125377 	125377 	100001
	042260	177400 	177400 	177400
	042266	177400
    836	042270	177400 	177400 	177400 		.word	177400, 177400, 177400, 177400, 177400, 177400, 177400, 177400, 177400, 177400
	042276	177400 	177400 	177400
	042304	177400 	177400 	177400
	042312	177400
    837	042314	177400 	177400 	177400 		.word	177400, 177400, 177400, 17400, 0, 0, 0, 0, 0, 0
	042322	017400 	000000 	000000
	042330	000000 	000000 	000000
	042336	000000
    838	042340	000000 	000000 	000000 		.word	0, 0, 0, 0, 0, 124370, 125377, 125377, 125377, 125377
	042346	000000 	000000 	124370
	042354	125377 	125377 	125377
	042362	125377
    839	042364	125377 	125377 	125377 		.word	125377, 125377, 125377, 125377, 125377, 5017, 176000, 177400, 177400, 177400
	042372	125377 	125377 	005017
	042400	176000 	177400 	177400
	042406	177400
    840	042410	177400 	177400 	177400 		.word	177400, 177400, 177400, 177400, 177400, 177400, 177400, 177400, 177400, 177400
	042416	177400 	177400 	177400
	042424	177400 	177400 	177400
	042432	177400
    841	042434	177400 	177400 	177400 		.word	177400, 177400, 177400, 37400, 0, 0, 0, 0, 0, 0
	042442	037400 	000000 	000000
	042450	000000 	000000 	000000
	042456	000000
    842	042460	000000 	000000 	000000 		.word	0, 0, 0, 0, 0, 124374, 125377, 125377, 125377, 125377
	042466	000000 	000000 	124374
	042474	125377 	125377 	125377
	042502	125377
    843	042504	125377 	125377 	125377 		.word	125377, 125377, 125377, 125377, 125377, 25177, 160000, 177400, 177400, 177400
	042512	125377 	125377 	025177
.MAIN.	MACRO V05.06R Sunday 24-Sep-23 10:55  Page 1-43


	042520	160000 	177400 	177400
	042526	177400
    844	042530	177400 	177400 	177400 		.word	177400, 177400, 177400, 177400, 177400, 177400, 177400, 177400, 177400, 177400
	042536	177400 	177400 	177400
	042544	177400 	177400 	177400
	042552	177400
    845	042554	177400 	177400 	177400 		.word	177400, 177400, 177400, 77400, 0, 0, 0, 0, 0, 0
	042562	077400 	000000 	000000
	042570	000000 	000000 	000000
	042576	000000
    846	042600	000000 	000000 	000000 		.word	0, 0, 0, 0, 0, 124374, 125377, 125377, 125377, 125377
	042606	000000 	000000 	124374
	042614	125377 	125377 	125377
	042622	125377
    847	042624	125377 	125377 	125377 		.word	125377, 125377, 125377, 125377, 125377, 125377, 1003, 177400, 177400, 177400
	042632	125377 	125377 	125377
	042640	001003 	177400 	177400
	042646	177400
    848	042650	177400 	177400 	177400 		.word	177400, 177400, 177400, 177400, 177400, 177400, 177400, 177400, 177400, 177400
	042656	177400 	177400 	177400
	042664	177400 	177400 	177400
	042672	177400
    849	042674	177400 	177400 	177400 		.word	177400, 177400, 177400, 77400, 0, 0, 0, 0, 0, 0
	042702	077400 	000000 	000000
	042710	000000 	000000 	000000
	042716	000000
    850	042720	000000 	000000 	000000 		.word	0, 0, 0, 0, 0, 125376, 125377, 125377, 125377, 125377
	042726	000000 	000000 	125376
	042734	125377 	125377 	125377
	042742	125377
    851	042744	125377 	125377 	125377 		.word	125377, 125377, 125377, 125377, 125377, 125377, 5037, 174000, 177400, 177400
	042752	125377 	125377 	125377
	042760	005037 	174000 	177400
	042766	177400
    852	042770	177400 	177400 	177400 		.word	177400, 177400, 177400, 177400, 177400, 177400, 177400, 177400, 177400, 177400
	042776	177400 	177400 	177400
	043004	177400 	177400 	177400
	043012	177400
    853	043014	177400 	177400 	177400 		.word	177400, 177400, 177400, 177400, 0, 0, 0, 0, 0, 0
	043022	177400 	000000 	000000
	043030	000000 	000000 	000000
	043036	000000
    854	043040	000000 	000000 	000000 		.word	0, 0, 0, 0, 0, 125376, 125377, 125377, 125377, 125377
	043046	000000 	000000 	125376
	043054	125377 	125377 	125377
	043062	125377
    855	043064	125377 	125377 	125377 		.word	125377, 125377, 125377, 125377, 125377, 125377, 125377, 140000, 177400, 177400
	043072	125377 	125377 	125377
	043100	125377 	140000 	177400
	043106	177400
    856	043110	177400 	177400 	177400 		.word	177400, 177400, 177400, 177400, 177400, 177400, 177400, 177400, 177400, 177400
	043116	177400 	177400 	177400
	043124	177400 	177400 	177400
	043132	177400
    857	043134	177400 	177400 	177400 		.word	177400, 177400, 177400, 177400, 0, 0, 0, 0, 0, 0
	043142	177400 	000000 	000000
	043150	000000 	000000 	000000
.MAIN.	MACRO V05.06R Sunday 24-Sep-23 10:55  Page 1-44


	043156	000000
    858	043160	000000 	000000 	000000 		.word	0, 0, 0, 0, 0, 125377, 125377, 125377, 125377, 125377
	043166	000000 	000000 	125377
	043174	125377 	125377 	125377
	043202	125377
    859	043204	125377 	125377 	125377 		.word	125377, 125377, 125377, 125377, 125377, 125377, 125377, 1007, 177000, 177400
	043212	125377 	125377 	125377
	043220	125377 	001007 	177000
	043226	177400
    860	043230	177400 	177400 	177400 		.word	177400, 177400, 177400, 177400, 177400, 177400, 177400, 177400, 177400, 177400
	043236	177400 	177400 	177400
	043244	177400 	177400 	177400
	043252	177400
    861	043254	177400 	177400 	177400 		.word	177400, 177400, 177400, 177400, 400, 0, 0, 0, 0, 0
	043262	177400 	000400 	000000
	043270	000000 	000000 	000000
	043276	000000
    862	043300	000000 	000000 	000000 		.word	0, 0, 0, 0, 0, 125377, 125377, 125377, 125377, 125377
	043306	000000 	000000 	125377
	043314	125377 	125377 	125377
	043322	125377
    863	043324	125377 	125377 	125377 		.word	125377, 125377, 125377, 125377, 125377, 125377, 125377, 25077, 170000, 177400
	043332	125377 	125377 	125377
	043340	125377 	025077 	170000
	043346	177400
    864	043350	177400 	177400 	177400 		.word	177400, 177400, 177400, 177400, 177400, 177400, 177400, 177400, 177400, 177400
	043356	177400 	177400 	177400
	043364	177400 	177400 	177400
	043372	177400
    865	043374	177400 	177400 	177400 		.word	177400, 177400, 177400, 177400, 400, 0, 0, 0, 0, 0
	043402	177400 	000400 	000000
	043410	000000 	000000 	000000
	043416	000000
    866	043420	000000 	000000 	000000 		.word	0, 0, 0, 0, 0, 125377, 125377, 125377, 125377, 125377
	043426	000000 	000000 	125377
	043434	125377 	125377 	125377
	043442	125377
    867	043444	125377 	125377 	125377 		.word	125377, 125377, 125377, 125377, 125377, 125377, 125377, 125377, 100001, 177400
	043452	125377 	125377 	125377
	043460	125377 	125377 	100001
	043466	177400
    868	043470	177400 	177400 	177400 		.word	177400, 177400, 177400, 177400, 177400, 177400, 177400, 177400, 177400, 177400
	043476	177400 	177400 	177400
	043504	177400 	177400 	177400
	043512	177400
    869	043514	177400 	177400 	177400 		.word	177400, 177400, 177400, 177400, 400, 0, 0, 0, 0, 0
	043522	177400 	000400 	000000
	043530	000000 	000000 	000000
	043536	000000
    870	043540	000000 	000000 	000000 		.word	0, 0, 0, 0, 0, 125377, 125377, 125377, 125377, 125377
	043546	000000 	000000 	125377
	043554	125377 	125377 	125377
	043562	125377
    871	043564	125377 	125377 	125377 		.word	125377, 125377, 125377, 125377, 125377, 125377, 125377, 125377, 5017, 176000
	043572	125377 	125377 	125377
	043600	125377 	125377 	005017
	043606	176000
.MAIN.	MACRO V05.06R Sunday 24-Sep-23 10:55  Page 1-45


    872	043610	177400 	177400 	177400 		.word	177400, 177400, 177400, 177400, 177400, 177400, 177400, 177400, 177400, 177400
	043616	177400 	177400 	177400
	043624	177400 	177400 	177400
	043632	177400
    873	043634	177400 	177400 	177400 		.word	177400, 177400, 177400, 177400, 400, 0, 0, 0, 0, 0
	043642	177400 	000400 	000000
	043650	000000 	000000 	000000
	043656	000000
    874	043660	000000 	000000 	000000 		.word	0, 0, 0, 0, 0, 125377, 125377, 125377, 125377, 125377
	043666	000000 	000000 	125377
	043674	125377 	125377 	125377
	043702	125377
    875	043704	125377 	125377 	125377 		.word	125377, 125377, 125377, 125377, 125377, 125377, 125377, 125377, 25177, 160000
	043712	125377 	125377 	125377
	043720	125377 	125377 	025177
	043726	160000
    876	043730	177400 	177400 	177400 		.word	177400, 177400, 177400, 177400, 177400, 177400, 177400, 177400, 177400, 177400
	043736	177400 	177400 	177400
	043744	177400 	177400 	177400
	043752	177400
    877	043754	177400 	177400 	177400 		.word	177400, 177400, 177400, 177400, 400, 0, 0, 0, 0, 0
	043762	177400 	000400 	000000
	043770	000000 	000000 	000000
	043776	000000
    878	044000	000000 	000000 	000000 		.word	0, 0, 0, 0, 0, 125377, 125377, 125377, 125377, 125377
	044006	000000 	000000 	125377
	044014	125377 	125377 	125377
	044022	125377
    879	044024	125377 	125377 	125377 		.word	125377, 125377, 125377, 125377, 125377, 125377, 125377, 125377, 125377, 100001
	044032	125377 	125377 	125377
	044040	125377 	125377 	125377
	044046	100001
    880	044050	177400 	177400 	177400 		.word	177400, 177400, 177400, 177400, 177400, 177400, 177400, 177400, 177400, 177400
	044056	177400 	177400 	177400
	044064	177400 	177400 	177400
	044072	177400
    881	044074	177400 	177400 	177400 		.word	177400, 177400, 177400, 177400, 1400, 0, 0, 0, 0, 0
	044102	177400 	001400 	000000
	044110	000000 	000000 	000000
	044116	000000
    882	044120	000000 	000000 	000000 		.word	0, 0, 0, 0, 0, 125377, 125377, 125377, 125377, 125377
	044126	000000 	000000 	125377
	044134	125377 	125377 	125377
	044142	125377
    883	044144	125377 	125377 	125377 		.word	125377, 125377, 125377, 125377, 125377, 125377, 125377, 125377, 125377, 5017
	044152	125377 	125377 	125377
	044160	125377 	125377 	125377
	044166	005017
    884	044170	176000 	177400 	177400 		.word	176000, 177400, 177400, 177400, 177400, 177400, 177400, 177400, 177400, 177400
	044176	177400 	177400 	177400
	044204	177400 	177400 	177400
	044212	177400
    885	044214	177400 	177400 	177400 		.word	177400, 177400, 177400, 177400, 400, 0, 0, 0, 0, 0
	044222	177400 	000400 	000000
	044230	000000 	000000 	000000
	044236	000000
    886	044240	000000 	000000 	000000 		.word	0, 0, 0, 0, 0, 125377, 125377, 125377, 125377, 125377
.MAIN.	MACRO V05.06R Sunday 24-Sep-23 10:55  Page 1-46


	044246	000000 	000000 	125377
	044254	125377 	125377 	125377
	044262	125377
    887	044264	125377 	125377 	125377 		.word	125377, 125377, 125377, 125377, 125377, 125377, 125377, 125377, 125377, 25177
	044272	125377 	125377 	125377
	044300	125377 	125377 	125377
	044306	025177
    888	044310	160000 	177400 	177400 		.word	160000, 177400, 177400, 177400, 177400, 177400, 177400, 177400, 177400, 177400
	044316	177400 	177400 	177400
	044324	177400 	177400 	177400
	044332	177400
    889	044334	177400 	177400 	177400 		.word	177400, 177400, 177400, 177400, 400, 0, 0, 0, 0, 0
	044342	177400 	000400 	000000
	044350	000000 	000000 	000000
	044356	000000
    890	044360	000000 	000000 	000000 		.word	0, 0, 0, 0, 0, 125377, 125377, 125377, 125377, 125377
	044366	000000 	000000 	125377
	044374	125377 	125377 	125377
	044402	125377
    891	044404	125377 	125377 	125377 		.word	125377, 125377, 125377, 125377, 125377, 125377, 125377, 125377, 125377, 125377
	044412	125377 	125377 	125377
	044420	125377 	125377 	125377
	044426	125377
    892	044430	001003 	177400 	177400 		.word	1003, 177400, 177400, 177400, 177400, 177400, 177400, 177400, 177400, 177400
	044436	177400 	177400 	177400
	044444	177400 	177400 	177400
	044452	177400
    893	044454	177400 	177400 	177400 		.word	177400, 177400, 177400, 177400, 400, 0, 0, 0, 0, 0
	044462	177400 	000400 	000000
	044470	000000 	000000 	000000
	044476	000000
    894	044500	000000 	000000 	000000 		.word	0, 0, 0, 0, 0, 125377, 125377, 125377, 125377, 125377
	044506	000000 	000000 	125377
	044514	125377 	125377 	125377
	044522	125377
    895	044524	125377 	125377 	125377 		.word	125377, 125377, 125377, 125377, 125377, 125377, 125377, 125377, 125377, 125377
	044532	125377 	125377 	125377
	044540	125377 	125377 	125377
	044546	125377
    896	044550	005037 	174000 	177400 		.word	5037, 174000, 177400, 177400, 177400, 177400, 177400, 177400, 177400, 177400
	044556	177400 	177400 	177400
	044564	177400 	177400 	177400
	044572	177400
    897	044574	177400 	177400 	177400 		.word	177400, 177400, 177400, 177400, 400, 0, 0, 0, 0, 0
	044602	177400 	000400 	000000
	044610	000000 	000000 	000000
	044616	000000
    898	044620	000000 	000000 	000000 		.word	0, 0, 0, 0, 0, 125377, 125377, 125377, 125377, 125377
	044626	000000 	000000 	125377
	044634	125377 	125377 	125377
	044642	125377
    899	044644	125377 	125377 	125377 		.word	125377, 125377, 125377, 125377, 125377, 125377, 125377, 125377, 125377, 125377
	044652	125377 	125377 	125377
	044660	125377 	125377 	125377
	044666	125377
    900	044670	125377 	140000 	177400 		.word	125377, 140000, 177400, 177400, 177400, 177400, 177400, 177400, 177400, 177400
	044676	177400 	177400 	177400
.MAIN.	MACRO V05.06R Sunday 24-Sep-23 10:55  Page 1-47


	044704	177400 	177400 	177400
	044712	177400
    901	044714	177400 	177400 	177400 		.word	177400, 177400, 177400, 177400, 400, 0, 0, 0, 0, 0
	044722	177400 	000400 	000000
	044730	000000 	000000 	000000
	044736	000000
    902	044740	000000 	000000 	000000 		.word	0, 0, 0, 0, 0, 125376, 125377, 125377, 125377, 125377
	044746	000000 	000000 	125376
	044754	125377 	125377 	125377
	044762	125377
    903	044764	125377 	125377 	125377 		.word	125377, 125377, 125377, 125377, 125377, 125377, 125377, 125377, 125377, 125377
	044772	125377 	125377 	125377
	045000	125377 	125377 	125377
	045006	125377
    904	045010	125377 	001007 	177000 		.word	125377, 1007, 177000, 177400, 177400, 177400, 177400, 177400, 177400, 177400
	045016	177400 	177400 	177400
	045024	177400 	177400 	177400
	045032	177400
    905	045034	177400 	177400 	177400 		.word	177400, 177400, 177400, 177400, 0, 0, 0, 0, 0, 0
	045042	177400 	000000 	000000
	045050	000000 	000000 	000000
	045056	000000
    906	045060	000000 	000000 	000000 		.word	0, 0, 0, 0, 0, 125376, 125377, 125377, 125377, 125377
	045066	000000 	000000 	125376
	045074	125377 	125377 	125377
	045102	125377
    907	045104	125377 	125377 	125377 		.word	125377, 125377, 125377, 125377, 125377, 125377, 125377, 125377, 125377, 125377
	045112	125377 	125377 	125377
	045120	125377 	125377 	125377
	045126	125377
    908	045130	125377 	025077 	170000 		.word	125377, 25077, 170000, 177400, 177400, 177400, 177400, 177400, 177400, 177400
	045136	177400 	177400 	177400
	045144	177400 	177400 	177400
	045152	177400
    909	045154	177400 	177400 	177400 		.word	177400, 177400, 177400, 177400, 0, 0, 0, 0, 0, 0
	045162	177400 	000000 	000000
	045170	000000 	000000 	000000
	045176	000000
    910	045200	000000 	000000 	000000 		.word	0, 0, 0, 0, 0, 124374, 125377, 125377, 125377, 125377
	045206	000000 	000000 	124374
	045214	125377 	125377 	125377
	045222	125377
    911	045224	125377 	125377 	125377 		.word	125377, 125377, 125377, 125377, 125377, 125377, 125377, 125377, 125377, 125377
	045232	125377 	125377 	125377
	045240	125377 	125377 	125377
	045246	125377
    912	045250	125377 	125377 	100001 		.word	125377, 125377, 100001, 177400, 177400, 177400, 177400, 177400, 177400, 177400
	045256	177400 	177400 	177400
	045264	177400 	177400 	177400
	045272	177400
    913	045274	177400 	177400 	177400 		.word	177400, 177400, 177400, 77400, 0, 0, 0, 0, 0, 0
	045302	077400 	000000 	000000
	045310	000000 	000000 	000000
	045316	000000
    914	045320	000000 	000000 	000000 		.word	0, 0, 0, 0, 0, 124374, 125377, 125377, 125377, 125377
	045326	000000 	000000 	124374
	045334	125377 	125377 	125377
.MAIN.	MACRO V05.06R Sunday 24-Sep-23 10:55  Page 1-48


	045342	125377
    915	045344	125377 	125377 	125377 		.word	125377, 125377, 125377, 125377, 125377, 125377, 125377, 125377, 125377, 125377
	045352	125377 	125377 	125377
	045360	125377 	125377 	125377
	045366	125377
    916	045370	125377 	125377 	005017 		.word	125377, 125377, 5017, 176000, 177400, 177400, 177400, 177400, 177400, 177400
	045376	176000 	177400 	177400
	045404	177400 	177400 	177400
	045412	177400
    917	045414	177400 	177400 	177400 		.word	177400, 177400, 177400, 77400, 0, 0, 0, 0, 0, 0
	045422	077400 	000000 	000000
	045430	000000 	000000 	000000
	045436	000000
    918	045440	000000 	000000 	000000 		.word	0, 0, 0, 0, 0, 124370, 125377, 125377, 125377, 125377
	045446	000000 	000000 	124370
	045454	125377 	125377 	125377
	045462	125377
    919	045464	125377 	125377 	125377 		.word	125377, 125377, 125377, 125377, 125377, 125377, 125377, 125377, 125377, 125377
	045472	125377 	125377 	125377
	045500	125377 	125377 	125377
	045506	125377
    920	045510	125377 	125377 	025177 		.word	125377, 125377, 25177, 160000, 177400, 177400, 177400, 177400, 177400, 177400
	045516	160000 	177400 	177400
	045524	177400 	177400 	177400
	045532	177400
    921	045534	177400 	177400 	177400 		.word	177400, 177400, 177400, 37400, 0, 0, 0, 0, 0, 0
	045542	037400 	000000 	000000
	045550	000000 	000000 	000000
	045556	000000
    922	045560	000000 	000000 	000000 		.word	0, 0, 0, 0, 0, 120360, 125377, 125377, 125377, 125377
	045566	000000 	000000 	120360
	045574	125377 	125377 	125377
	045602	125377
    923	045604	125377 	125377 	125377 		.word	125377, 125377, 125377, 125377, 125377, 125377, 125377, 125377, 125377, 125377
	045612	125377 	125377 	125377
	045620	125377 	125377 	125377
	045626	125377
    924	045630	125377 	125377 	125377 		.word	125377, 125377, 125377, 1003, 177400, 177400, 177400, 177400, 177400, 177400
	045636	001003 	177400 	177400
	045644	177400 	177400 	177400
	045652	177400
    925	045654	177400 	177400 	177400 		.word	177400, 177400, 177400, 17400, 0, 0, 0, 0, 0, 0
	045662	017400 	000000 	000000
	045670	000000 	000000 	000000
	045676	000000
    926	045700	000000 	000000 	000000 		.word	0, 0, 0, 0, 0, 120340, 125377, 125377, 125377, 125377
	045706	000000 	000000 	120340
	045714	125377 	125377 	125377
	045722	125377
    927	045724	125377 	125377 	125377 		.word	125377, 125377, 125377, 125377, 125377, 125377, 125377, 125377, 125377, 125377
	045732	125377 	125377 	125377
	045740	125377 	125377 	125377
	045746	125377
    928	045750	125377 	125377 	125377 		.word	125377, 125377, 125377, 5017, 176000, 177400, 177400, 177400, 177400, 177400
	045756	005017 	176000 	177400
	045764	177400 	177400 	177400
	045772	177400
.MAIN.	MACRO V05.06R Sunday 24-Sep-23 10:55  Page 1-49


    929	045774	177400 	177400 	177400 		.word	177400, 177400, 177400, 7400, 0, 0, 0, 0, 0, 0
	046002	007400 	000000 	000000
	046010	000000 	000000 	000000
	046016	000000
    930	046020	000000 	000000 	000000 		.word	0, 0, 0, 0, 0, 100300, 125377, 125377, 125377, 125377
	046026	000000 	000000 	100300
	046034	125377 	125377 	125377
	046042	125377
    931	046044	125377 	125377 	125377 		.word	125377, 125377, 125377, 125377, 125377, 125377, 125377, 125377, 125377, 125377
	046052	125377 	125377 	125377
	046060	125377 	125377 	125377
	046066	125377
    932	046070	125377 	125377 	125377 		.word	125377, 125377, 125377, 25177, 160000, 177400, 177400, 177400, 177400, 177400
	046076	025177 	160000 	177400
	046104	177400 	177400 	177400
	046112	177400
    933	046114	177400 	177400 	177400 		.word	177400, 177400, 177400, 3400, 0, 0, 0, 0, 0, 0
	046122	003400 	000000 	000000
	046130	000000 	000000 	000000
	046136	000000
    934	046140	000000 	000000 	000000 		.word	0, 0, 0, 0, 0, 100200, 125377, 125377, 125377, 125377
	046146	000000 	000000 	100200
	046154	125377 	125377 	125377
	046162	125377
    935	046164	125377 	125377 	125377 		.word	125377, 125377, 125377, 125377, 125377, 125377, 125377, 125377, 125377, 125377
	046172	125377 	125377 	125377
	046200	125377 	125377 	125377
	046206	125377
    936	046210	125377 	125377 	125377 		.word	125377, 125377, 125377, 125377, 1003, 177400, 177400, 177400, 177400, 177400
	046216	125377 	001003 	177400
	046224	177400 	177400 	177400
	046232	177400
    937	046234	177400 	177400 	177400 		.word	177400, 177400, 177400, 1400, 0, 0, 0, 0, 0, 0
	046242	001400 	000000 	000000
	046250	000000 	000000 	000000
	046256	000000
    938	046260	000000 	000000 	000000 		.word	0, 0, 0, 0, 0, 0, 125377, 125377, 125377, 125377
	046266	000000 	000000 	000000
	046274	125377 	125377 	125377
	046302	125377
    939	046304	125377 	125377 	125377 		.word	125377, 125377, 125377, 125377, 125377, 125377, 125377, 125377, 125377, 125377
	046312	125377 	125377 	125377
	046320	125377 	125377 	125377
	046326	125377
    940	046330	125377 	125377 	125377 		.word	125377, 125377, 125377, 125377, 5037, 174000, 177400, 177400, 177400, 177400
	046336	125377 	005037 	174000
	046344	177400 	177400 	177400
	046352	177400
    941	046354	177400 	177400 	177400 		.word	177400, 177400, 177400, 400, 0, 0, 0, 0, 0, 0
	046362	000400 	000000 	000000
	046370	000000 	000000 	000000
	046376	000000
    942	046400	000000 	000000 	000000 		.word	0, 0, 0, 0, 0, 0, 125376, 125377, 125377, 125377
	046406	000000 	000000 	000000
	046414	125376 	125377 	125377
	046422	125377
    943	046424	125377 	125377 	125377 		.word	125377, 125377, 125377, 125377, 125377, 125377, 125377, 125377, 125377, 125377
.MAIN.	MACRO V05.06R Sunday 24-Sep-23 10:55  Page 1-50


	046432	125377 	125377 	125377
	046440	125377 	125377 	125377
	046446	125377
    944	046450	125377 	125377 	125377 		.word	125377, 125377, 125377, 125377, 25177, 160000, 177400, 177400, 177400, 177400
	046456	125377 	025177 	160000
	046464	177400 	177400 	177400
	046472	177400
    945	046474	177400 	177400 	177400 		.word	177400, 177400, 177400, 0, 0, 0, 0, 0, 0, 0
	046502	000000 	000000 	000000
	046510	000000 	000000 	000000
	046516	000000
    946	046520	000000 	000000 	000000 		.word	0, 0, 0, 0, 0, 0, 124374, 125377, 125377, 125377
	046526	000000 	000000 	000000
	046534	124374 	125377 	125377
	046542	125377
    947	046544	125377 	125377 	125377 		.word	125377, 125377, 125377, 125377, 125377, 125377, 125377, 125377, 125377, 125377
	046552	125377 	125377 	125377
	046560	125377 	125377 	125377
	046566	125377
    948	046570	125377 	125377 	125377 		.word	125377, 125377, 125377, 125377, 125377, 1003, 177400, 177400, 177400, 177400
	046576	125377 	125377 	001003
	046604	177400 	177400 	177400
	046612	177400
    949	046614	177400 	177400 	077400 		.word	177400, 177400, 77400, 0, 0, 0, 0, 0, 0, 0
	046622	000000 	000000 	000000
	046630	000000 	000000 	000000
	046636	000000
    950	046640	000000 	000000 	000000 		.word	0, 0, 0, 0, 0, 0, 124370, 125377, 125377, 125377
	046646	000000 	000000 	000000
	046654	124370 	125377 	125377
	046662	125377
    951	046664	125377 	125377 	125377 		.word	125377, 125377, 125377, 125377, 125377, 125377, 125377, 125377, 125377, 125377
	046672	125377 	125377 	125377
	046700	125377 	125377 	125377
	046706	125377
    952	046710	125377 	125377 	125377 		.word	125377, 125377, 125377, 125377, 125377, 5037, 174000, 177400, 177400, 177400
	046716	125377 	125377 	005037
	046724	174000 	177400 	177400
	046732	177400
    953	046734	177400 	177400 	037400 		.word	177400, 177400, 37400, 0, 0, 0, 0, 0, 0, 0
	046742	000000 	000000 	000000
	046750	000000 	000000 	000000
	046756	000000
    954	046760	000000 	000000 	000000 		.word	0, 0, 0, 0, 0, 0, 120360, 125377, 125377, 125377
	046766	000000 	000000 	000000
	046774	120360 	125377 	125377
	047002	125377
    955	047004	125377 	125377 	125377 		.word	125377, 125377, 125377, 125377, 125377, 125377, 125377, 125377, 125377, 125377
	047012	125377 	125377 	125377
	047020	125377 	125377 	125377
	047026	125377
    956	047030	125377 	125377 	125377 		.word	125377, 125377, 125377, 125377, 125377, 25177, 160000, 177400, 177400, 177400
	047036	125377 	125377 	025177
	047044	160000 	177400 	177400
	047052	177400
    957	047054	177400 	177400 	017400 		.word	177400, 177400, 17400, 0, 0, 0, 0, 0, 0, 0
	047062	000000 	000000 	000000
.MAIN.	MACRO V05.06R Sunday 24-Sep-23 10:55  Page 1-51


	047070	000000 	000000 	000000
	047076	000000
    958	047100	000000 	000000 	000000 		.word	0, 0, 0, 0, 0, 0, 100300, 125377, 125377, 125377
	047106	000000 	000000 	000000
	047114	100300 	125377 	125377
	047122	125377
    959	047124	125377 	125377 	125377 		.word	125377, 125377, 125377, 125377, 125377, 125377, 125377, 125377, 125377, 125377
	047132	125377 	125377 	125377
	047140	125377 	125377 	125377
	047146	125377
    960	047150	125377 	125377 	125377 		.word	125377, 125377, 125377, 125377, 125377, 125377, 1003, 177400, 177400, 177400
	047156	125377 	125377 	125377
	047164	001003 	177400 	177400
	047172	177400
    961	047174	177400 	177400 	003400 		.word	177400, 177400, 3400, 0, 0, 0, 0, 0, 0, 0
	047202	000000 	000000 	000000
	047210	000000 	000000 	000000
	047216	000000
    962	047220	000000 	000000 	000000 		.word	0, 0, 0, 0, 0, 0, 100200, 125377, 125377, 125377
	047226	000000 	000000 	000000
	047234	100200 	125377 	125377
	047242	125377
    963	047244	125377 	125377 	125377 		.word	125377, 125377, 125377, 125377, 125377, 125377, 125377, 125377, 125377, 125377
	047252	125377 	125377 	125377
	047260	125377 	125377 	125377
	047266	125377
    964	047270	125377 	125377 	125377 		.word	125377, 125377, 125377, 125377, 125377, 125377, 5037, 174000, 177400, 177400
	047276	125377 	125377 	125377
	047304	005037 	174000 	177400
	047312	177400
    965	047314	177400 	177400 	001400 		.word	177400, 177400, 1400, 0, 0, 0, 0, 0, 0, 0
	047322	000000 	000000 	000000
	047330	000000 	000000 	000000
	047336	000000
    966	047340	000000 	000000 	000000 		.word	0, 0, 0, 0, 0, 0, 0, 125376, 125377, 125377
	047346	000000 	000000 	000000
	047354	000000 	125376 	125377
	047362	125377
    967	047364	125377 	125377 	125377 		.word	125377, 125377, 125377, 125377, 125377, 125377, 125377, 125377, 125377, 125377
	047372	125377 	125377 	125377
	047400	125377 	125377 	125377
	047406	125377
    968	047410	125377 	125377 	125377 		.word	125377, 125377, 125377, 125377, 125377, 125377, 25177, 160000, 177400, 177400
	047416	125377 	125377 	125377
	047424	025177 	160000 	177400
	047432	177400
    969	047434	177400 	177400 	000000 		.word	177400, 177400, 0, 0, 0, 0, 0, 0, 0, 0
	047442	000000 	000000 	000000
	047450	000000 	000000 	000000
	047456	000000
    970	047460	000000 	000000 	000000 		.word	0, 0, 0, 0, 0, 0, 0, 124374, 125377, 125377
	047466	000000 	000000 	000000
	047474	000000 	124374 	125377
	047502	125377
    971	047504	125377 	125377 	125377 		.word	125377, 125377, 125377, 125377, 125377, 125377, 125377, 125377, 125377, 125377
	047512	125377 	125377 	125377
	047520	125377 	125377 	125377
.MAIN.	MACRO V05.06R Sunday 24-Sep-23 10:55  Page 1-52


	047526	125377
    972	047530	125377 	125377 	125377 		.word	125377, 125377, 125377, 125377, 125377, 125377, 125377, 1003, 177400, 177400
	047536	125377 	125377 	125377
	047544	125377 	001003 	177400
	047552	177400
    973	047554	177400 	077400 	000000 		.word	177400, 77400, 0, 0, 0, 0, 0, 0, 0, 0
	047562	000000 	000000 	000000
	047570	000000 	000000 	000000
	047576	000000
    974	047600	000000 	000000 	000000 		.word	0, 0, 0, 0, 0, 0, 0, 120360, 125377, 125377
	047606	000000 	000000 	000000
	047614	000000 	120360 	125377
	047622	125377
    975	047624	125377 	125377 	125377 		.word	125377, 125377, 125377, 125377, 125377, 125377, 125377, 125377, 125377, 125377
	047632	125377 	125377 	125377
	047640	125377 	125377 	125377
	047646	125377
    976	047650	125377 	125377 	125377 		.word	125377, 125377, 125377, 125377, 125377, 125377, 125377, 5017, 176000, 177400
	047656	125377 	125377 	125377
	047664	125377 	005017 	176000
	047672	177400
    977	047674	177400 	017400 	000000 		.word	177400, 17400, 0, 0, 0, 0, 0, 0, 0, 0
	047702	000000 	000000 	000000
	047710	000000 	000000 	000000
	047716	000000
    978	047720	000000 	000000 	000000 		.word	0, 0, 0, 0, 0, 0, 0, 120340, 125377, 125377
	047726	000000 	000000 	000000
	047734	000000 	120340 	125377
	047742	125377
    979	047744	125377 	125377 	125377 		.word	125377, 125377, 125377, 125377, 125377, 125377, 125377, 125377, 125377, 125377
	047752	125377 	125377 	125377
	047760	125377 	125377 	125377
	047766	125377
    980	047770	125377 	125377 	125377 		.word	125377, 125377, 125377, 125377, 125377, 125377, 125377, 25177, 160000, 177400
	047776	125377 	125377 	125377
	050004	125377 	025177 	160000
	050012	177400
    981	050014	177400 	007400 	000000 		.word	177400, 7400, 0, 0, 0, 0, 0, 0, 0, 0
	050022	000000 	000000 	000000
	050030	000000 	000000 	000000
	050036	000000
    982	050040	000000 	000000 	000000 		.word	0, 0, 0, 0, 0, 0, 0, 100200, 125377, 125377
	050046	000000 	000000 	000000
	050054	000000 	100200 	125377
	050062	125377
    983	050064	125377 	125377 	125377 		.word	125377, 125377, 125377, 125377, 125377, 125377, 125377, 125377, 125377, 125377
	050072	125377 	125377 	125377
	050100	125377 	125377 	125377
	050106	125377
    984	050110	125377 	125377 	125377 		.word	125377, 125377, 125377, 125377, 125377, 125377, 125377, 125377, 100001, 177400
	050116	125377 	125377 	125377
	050124	125377 	125377 	100001
	050132	177400
    985	050134	177400 	001400 	000000 		.word	177400, 1400, 0, 0, 0, 0, 0, 0, 0, 0
	050142	000000 	000000 	000000
	050150	000000 	000000 	000000
	050156	000000
.MAIN.	MACRO V05.06R Sunday 24-Sep-23 10:55  Page 1-53


    986	050160	000000 	000000 	000000 		.word	0, 0, 0, 0, 0, 0, 0, 0, 125376, 125377
	050166	000000 	000000 	000000
	050174	000000 	000000 	125376
	050202	125377
    987	050204	125377 	125377 	125377 		.word	125377, 125377, 125377, 125377, 125377, 125377, 125377, 125377, 125377, 125377
	050212	125377 	125377 	125377
	050220	125377 	125377 	125377
	050226	125377
    988	050230	125377 	125377 	125377 		.word	125377, 125377, 125377, 125377, 125377, 125377, 125377, 125377, 1007, 177000
	050236	125377 	125377 	125377
	050244	125377 	125377 	001007
	050252	177000
    989	050254	177400 	000000 	000000 		.word	177400, 0, 0, 0, 0, 0, 0, 0, 0, 0
	050262	000000 	000000 	000000
	050270	000000 	000000 	000000
	050276	000000
    990	050300	000000 	000000 	000000 		.word	0, 0, 0, 0, 0, 0, 0, 0, 124370, 125377
	050306	000000 	000000 	000000
	050314	000000 	000000 	124370
	050322	125377
    991	050324	125377 	125377 	125377 		.word	125377, 125377, 125377, 125377, 125377, 125377, 125377, 125377, 125377, 125377
	050332	125377 	125377 	125377
	050340	125377 	125377 	125377
	050346	125377
    992	050350	125377 	125377 	125377 		.word	125377, 125377, 125377, 125377, 125377, 125377, 125377, 125377, 25077, 170000
	050356	125377 	125377 	125377
	050364	125377 	125377 	025077
	050372	170000
    993	050374	037400 	000000 	000000 		.word	37400, 0, 0, 0, 0, 0, 0, 0, 0, 0
	050402	000000 	000000 	000000
	050410	000000 	000000 	000000
	050416	000000
    994	050420	000000 	000000 	000000 		.word	0, 0, 0, 0, 0, 0, 0, 0, 120340, 125377
	050426	000000 	000000 	000000
	050434	000000 	000000 	120340
	050442	125377
    995	050444	125377 	125377 	125377 		.word	125377, 125377, 125377, 125377, 125377, 125377, 125377, 125377, 125377, 125377
	050452	125377 	125377 	125377
	050460	125377 	125377 	125377
	050466	125377
    996	050470	125377 	125377 	125377 		.word	125377, 125377, 125377, 125377, 125377, 125377, 125377, 125377, 125377, 140000
	050476	125377 	125377 	125377
	050504	125377 	125377 	125377
	050512	140000
    997	050514	007400 	000000 	000000 		.word	7400, 0, 0, 0, 0, 0, 0, 0, 0, 0
	050522	000000 	000000 	000000
	050530	000000 	000000 	000000
	050536	000000
    998	050540	000000 	000000 	000000 		.word	0, 0, 0, 0, 0, 0, 0, 0, 100200, 125377
	050546	000000 	000000 	000000
	050554	000000 	000000 	100200
	050562	125377
    999	050564	125377 	125377 	125377 		.word	125377, 125377, 125377, 125377, 125377, 125377, 125377, 125377, 125377, 125377
	050572	125377 	125377 	125377
	050600	125377 	125377 	125377
	050606	125377
   1000	050610	125377 	125377 	125377 		.word	125377, 125377, 125377, 125377, 125377, 125377, 125377, 125377, 125377, 1003
.MAIN.	MACRO V05.06R Sunday 24-Sep-23 10:55  Page 1-54


	050616	125377 	125377 	125377
	050624	125377 	125377 	125377
	050632	001003
   1001	050634	001400 	000000 	000000 		.word	1400, 0, 0, 0, 0, 0, 0, 0, 0, 0
	050642	000000 	000000 	000000
	050650	000000 	000000 	000000
	050656	000000
   1002	050660	000000 	000000 	000000 		.word	0, 0, 0, 0, 0, 0, 0, 0, 0, 125376
	050666	000000 	000000 	000000
	050674	000000 	000000 	000000
	050702	125376
   1003	050704	125377 	125377 	125377 		.word	125377, 125377, 125377, 125377, 125377, 125377, 125377, 125377, 125377, 125377
	050712	125377 	125377 	125377
	050720	125377 	125377 	125377
	050726	125377
   1004	050730	125377 	125377 	125377 		.word	125377, 125377, 125377, 125377, 125377, 125377, 125377, 125377, 125377, 5017
	050736	125377 	125377 	125377
	050744	125377 	125377 	125377
	050752	005017
   1005	050754	000000 	000000 	000000 		.word	0, 0, 0, 0, 0, 0, 0, 0, 0, 0
	050762	000000 	000000 	000000
	050770	000000 	000000 	000000
	050776	000000
   1006	051000	000000 	000000 	000000 		.word	0, 0, 0, 0, 0, 0, 0, 0, 0, 124370
	051006	000000 	000000 	000000
	051014	000000 	000000 	000000
	051022	124370
   1007	051024	125377 	125377 	125377 		.word	125377, 125377, 125377, 125377, 125377, 125377, 125377, 125377, 125377, 125377
	051032	125377 	125377 	125377
	051040	125377 	125377 	125377
	051046	125377
   1008	051050	125377 	125377 	125377 		.word	125377, 125377, 125377, 125377, 125377, 125377, 125377, 125377, 125377, 25077
	051056	125377 	125377 	125377
	051064	125377 	125377 	125377
	051072	025077
   1009	051074	000000 	000000 	000000 		.word	0, 0, 0, 0, 0, 0, 0, 0, 0, 0
	051102	000000 	000000 	000000
	051110	000000 	000000 	000000
	051116	000000
   1010	051120	000000 	000000 	000000 		.word	0, 0, 0, 0, 0, 0, 0, 0, 0, 120340
	051126	000000 	000000 	000000
	051134	000000 	000000 	000000
	051142	120340
   1011	051144	125377 	125377 	125377 		.word	125377, 125377, 125377, 125377, 125377, 125377, 125377, 125377, 125377, 125377
	051152	125377 	125377 	125377
	051160	125377 	125377 	125377
	051166	125377
   1012	051170	125377 	125377 	125377 		.word	125377, 125377, 125377, 125377, 125377, 125377, 125377, 125377, 125377, 125377
	051176	125377 	125377 	125377
	051204	125377 	125377 	125377
	051212	125377
   1013	051214	000000 	000000 	000000 		.word	0, 0, 0, 0, 0, 0, 0, 0, 0, 0
	051222	000000 	000000 	000000
	051230	000000 	000000 	000000
	051236	000000
   1014	051240	000000 	000000 	000000 		.word	0, 0, 0, 0, 0, 0, 0, 0, 100200, 100601
	051246	000000 	000000 	000000
.MAIN.	MACRO V05.06R Sunday 24-Sep-23 10:55  Page 1-55


	051254	000000 	000000 	100200
	051262	100601
   1015	051264	125377 	125377 	125377 		.word	125377, 125377, 125377, 125377, 125377, 125377, 125377, 125377, 125377, 125377
	051272	125377 	125377 	125377
	051300	125377 	125377 	125377
	051306	125377
   1016	051310	125377 	125377 	125377 		.word	125377, 125377, 125377, 125377, 125377, 125377, 125377, 125377, 125377, 125377
	051316	125377 	125377 	125377
	051324	125377 	125377 	125377
	051332	125377
   1017	051334	001003 	000000 	000000 		.word	1003, 0, 0, 0, 0, 0, 0, 0, 0, 0
	051342	000000 	000000 	000000
	051350	000000 	000000 	000000
	051356	000000
   1018	051360	000000 	000000 	000000 		.word	0, 0, 0, 0, 0, 0, 0, 0, 160340, 3407
	051366	000000 	000000 	000000
	051374	000000 	000000 	160340
	051402	003407
   1019	051404	125376 	125377 	125377 		.word	125376, 125377, 125377, 125377, 125377, 125377, 125377, 125377, 125377, 125377
	051412	125377 	125377 	125377
	051420	125377 	125377 	125377
	051426	125377
   1020	051430	125377 	125377 	125377 		.word	125377, 125377, 125377, 125377, 125377, 125377, 125377, 125377, 125377, 125377
	051436	125377 	125377 	125377
	051444	125377 	125377 	125377
	051452	125377
   1021	051454	005017 	000000 	000000 		.word	5017, 0, 0, 0, 0, 0, 0, 0, 0, 0
	051462	000000 	000000 	000000
	051470	000000 	000000 	000000
	051476	000000
   1022	051500	000000 	000000 	000000 		.word	0, 0, 0, 0, 0, 0, 0, 0, 174370, 17437
	051506	000000 	000000 	000000
	051514	000000 	000000 	174370
	051522	017437
   1023	051524	124370 	125377 	125377 		.word	124370, 125377, 125377, 125377, 125377, 125377, 125377, 125377, 125377, 125377
	051532	125377 	125377 	125377
	051540	125377 	125377 	125377
	051546	125377
   1024	051550	125377 	125377 	125377 		.word	125377, 125377, 125377, 125377, 125377, 125377, 125377, 125377, 125377, 125377
	051556	125377 	125377 	125377
	051564	125377 	125377 	125377
	051572	125377
   1025	051574	025077 	000000 	000000 		.word	25077, 0, 0, 0, 0, 0, 0, 0, 0, 0
	051602	000000 	000000 	000000
	051610	000000 	000000 	000000
	051616	000000
   1026	051620	000000 	000000 	000000 		.word	0, 0, 0, 0, 0, 0, 0, 0, 177376, 177777
	051626	000000 	000000 	000000
	051634	000000 	000000 	177376
	051642	177777
   1027	051644	100300 	125377 	125377 		.word	100300, 125377, 125377, 125377, 125377, 125377, 125377, 125377, 125377, 125377
	051652	125377 	125377 	125377
	051660	125377 	125377 	125377
	051666	125377
   1028	051670	125377 	125377 	125377 		.word	125377, 125377, 125377, 125377, 125377, 125377, 125377, 125377, 125377, 125377
	051676	125377 	125377 	125377
	051704	125377 	125377 	125377
.MAIN.	MACRO V05.06R Sunday 24-Sep-23 10:55  Page 1-56


	051712	125377
   1029	051714	125377 	000000 	000000 		.word	125377, 0, 0, 0, 0, 0, 0, 0, 0, 0
	051722	000000 	000000 	000000
	051730	000000 	000000 	000000
	051736	000000
   1030	051740	000000 	000000 	000000 		.word	0, 0, 0, 0, 0, 0, 0, 100200, 177777, 177777
	051746	000000 	000000 	000000
	051754	000000 	100200 	177777
	051762	177777
   1031	051764	001403 	125377 	125377 		.word	1403, 125377, 125377, 125377, 125377, 125377, 125377, 125377, 125377, 125377
	051772	125377 	125377 	125377
	052000	125377 	125377 	125377
	052006	125377
   1032	052010	125377 	125377 	125377 		.word	125377, 125377, 125377, 125377, 125377, 125377, 125377, 125377, 125377, 125377
	052016	125377 	125377 	125377
	052024	125377 	125377 	125377
	052032	125377
   1033	052034	125377 	001003 	000000 		.word	125377, 1003, 0, 0, 0, 0, 0, 0, 0, 0
	052042	000000 	000000 	000000
	052050	000000 	000000 	000000
	052056	000000
   1034	052060	000000 	000000 	000000 		.word	0, 0, 0, 0, 0, 0, 0, 160340, 177777, 177777
	052066	000000 	000000 	000000
	052074	000000 	160340 	177777
	052102	177777
   1035	052104	007417 	124374 	125377 		.word	7417, 124374, 125377, 125377, 125377, 125377, 125377, 125377, 125377, 125377
	052112	125377 	125377 	125377
	052120	125377 	125377 	125377
	052126	125377
   1036	052130	125377 	125377 	125377 		.word	125377, 125377, 125377, 125377, 125377, 125377, 125377, 125377, 125377, 125377
	052136	125377 	125377 	125377
	052144	125377 	125377 	125377
	052152	125377
   1037	052154	125377 	005017 	000000 		.word	125377, 5017, 0, 0, 0, 0, 0, 0, 0, 0
	052162	000000 	000000 	000000
	052170	000000 	000000 	000000
	052176	000000
   1038	052200	000000 	000000 	000000 		.word	0, 0, 0, 0, 0, 0, 0, 170360, 177777, 177777
	052206	000000 	000000 	000000
	052214	000000 	170360 	177777
	052222	177777
   1039	052224	077577 	120340 	125377 		.word	77577, 120340, 125377, 125377, 125377, 125377, 125377, 125377, 125377, 125377
	052232	125377 	125377 	125377
	052240	125377 	125377 	125377
	052246	125377
   1040	052250	125377 	125377 	125377 		.word	125377, 125377, 125377, 125377, 125377, 125377, 125377, 125377, 125377, 125377
	052256	125377 	125377 	125377
	052264	125377 	125377 	125377
	052272	125377
   1041	052274	125377 	005037 	000000 		.word	125377, 5037, 0, 0, 0, 0, 0, 0, 0, 0
	052302	000000 	000000 	000000
	052310	000000 	000000 	000000
	052316	000000
   1042	052320	000000 	000000 	000000 		.word	0, 0, 0, 0, 0, 0, 0, 176374, 177777, 177777
	052326	000000 	000000 	000000
	052334	000000 	176374 	177777
	052342	177777
.MAIN.	MACRO V05.06R Sunday 24-Sep-23 10:55  Page 1-57


   1043	052344	177777 	100601 	125377 		.word	177777, 100601, 125377, 125377, 125377, 125377, 125377, 125377, 125377, 125377
	052352	125377 	125377 	125377
	052360	125377 	125377 	125377
	052366	125377
   1044	052370	125377 	125377 	125377 		.word	125377, 125377, 125377, 125377, 125377, 125377, 125377, 125377, 125377, 125377
	052376	125377 	125377 	125377
	052404	125377 	125377 	125377
	052412	125377
   1045	052414	125377 	025177 	000000 		.word	125377, 25177, 0, 0, 0, 0, 0, 0, 0, 0
	052422	000000 	000000 	000000
	052430	000000 	000000 	000000
	052436	000000
   1046	052440	000000 	000000 	000000 		.word	0, 0, 0, 0, 0, 0, 0, 177376, 177777, 177777
	052446	000000 	000000 	000000
	052454	000000 	177376 	177777
	052462	177777
   1047	052464	177777 	007417 	124374 		.word	177777, 7417, 124374, 125377, 125377, 125377, 125377, 125377, 125377, 125377
	052472	125377 	125377 	125377
	052500	125377 	125377 	125377
	052506	125377
   1048	052510	125377 	125377 	125377 		.word	125377, 125377, 125377, 125377, 125377, 125377, 125377, 125377, 125377, 125377
	052516	125377 	125377 	125377
	052524	125377 	125377 	125377
	052532	125377
   1049	052534	125377 	125377 	000000 		.word	125377, 125377, 0, 0, 0, 0, 0, 0, 0, 0
	052542	000000 	000000 	000000
	052550	000000 	000000 	000000
	052556	000000
   1050	052560	000000 	000000 	000000 		.word	0, 0, 0, 0, 0, 0, 100200, 177777, 177777, 177777
	052566	000000 	000000 	000000
	052574	100200 	177777 	177777
	052602	177777
   1051	052604	177777 	037477 	120360 		.word	177777, 37477, 120360, 125377, 125377, 125377, 125377, 125377, 125377, 125377
	052612	125377 	125377 	125377
	052620	125377 	125377 	125377
	052626	125377
   1052	052630	125377 	125377 	125377 		.word	125377, 125377, 125377, 125377, 125377, 125377, 125377, 125377, 125377, 125377
	052636	125377 	125377 	125377
	052644	125377 	125377 	125377
	052652	125377
   1053	052654	125377 	125377 	001003 		.word	125377, 125377, 1003, 0, 0, 0, 0, 0, 0, 0
	052662	000000 	000000 	000000
	052670	000000 	000000 	000000
	052676	000000
   1054	052700	000000 	000000 	000000 		.word	0, 0, 0, 0, 0, 0, 140300, 177777, 177777, 177777
	052706	000000 	000000 	000000
	052714	140300 	177777 	177777
	052722	177777
   1055	052724	177777 	177777 	100601 		.word	177777, 177777, 100601, 125377, 125377, 125377, 125377, 125377, 125377, 125377
	052732	125377 	125377 	125377
	052740	125377 	125377 	125377
	052746	125377
   1056	052750	125377 	125377 	125377 		.word	125377, 125377, 125377, 125377, 125377, 125377, 125377, 125377, 125377, 125377
	052756	125377 	125377 	125377
	052764	125377 	125377 	125377
	052772	125377
   1057	052774	125377 	125377 	001007 		.word	125377, 125377, 1007, 0, 0, 0, 0, 0, 0, 0
.MAIN.	MACRO V05.06R Sunday 24-Sep-23 10:55  Page 1-58


	053002	000000 	000000 	000000
	053010	000000 	000000 	000000
	053016	000000
   1058	053020	000000 	000000 	000000 		.word	0, 0, 0, 0, 0, 0, 170360, 177777, 177777, 177777
	053026	000000 	000000 	000000
	053034	170360 	177777 	177777
	053042	177777
   1059	053044	177777 	177777 	007417 		.word	177777, 177777, 7417, 124374, 125377, 125377, 125377, 125377, 125377, 125377
	053052	124374 	125377 	125377
	053060	125377 	125377 	125377
	053066	125377
   1060	053070	125377 	125377 	125377 		.word	125377, 125377, 125377, 125377, 125377, 125377, 125377, 125377, 125377, 125377
	053076	125377 	125377 	125377
	053104	125377 	125377 	125377
	053112	125377
   1061	053114	125377 	125377 	005037 		.word	125377, 125377, 5037, 0, 0, 0, 0, 0, 0, 0
	053122	000000 	000000 	000000
	053130	000000 	000000 	000000
	053136	000000
   1062	053140	000000 	000000 	000000 		.word	0, 0, 0, 0, 0, 0, 174370, 177777, 177777, 177777
	053146	000000 	000000 	000000
	053154	174370 	177777 	177777
	053162	177777
   1063	053164	177777 	177777 	037477 		.word	177777, 177777, 37477, 120360, 125377, 125377, 125377, 125377, 125377, 125377
	053172	120360 	125377 	125377
	053200	125377 	125377 	125377
	053206	125377
   1064	053210	125377 	125377 	125377 		.word	125377, 125377, 125377, 125377, 125377, 125377, 125377, 125377, 125377, 125377
	053216	125377 	125377 	125377
	053224	125377 	125377 	125377
	053232	125377
   1065	053234	125377 	125377 	025077 		.word	125377, 125377, 25077, 0, 0, 0, 0, 0, 0, 0
	053242	000000 	000000 	000000
	053250	000000 	000000 	000000
	053256	000000
   1066	053260	000000 	000000 	000000 		.word	0, 0, 0, 0, 0, 0, 176374, 177777, 177777, 177777
	053266	000000 	000000 	000000
	053274	176374 	177777 	177777
	053302	177777
   1067	053304	177777 	177777 	177777 		.word	177777, 177777, 177777, 100601, 125377, 125377, 125377, 125377, 125377, 125377
	053312	100601 	125377 	125377
	053320	125377 	125377 	125377
	053326	125377
   1068	053330	125377 	125377 	125377 		.word	125377, 125377, 125377, 125377, 125377, 125377, 125377, 125377, 125377, 125377
	053336	125377 	125377 	125377
	053344	125377 	125377 	125377
	053352	125377
   1069	053354	125377 	125377 	025177 		.word	125377, 125377, 25177, 0, 0, 0, 0, 0, 0, 0
	053362	000000 	000000 	000000
	053370	000000 	000000 	000000
	053376	000000
   1070	053400	000000 	000000 	000000 		.word	0, 0, 0, 0, 0, 0, 177376, 177777, 177777, 177777
	053406	000000 	000000 	000000
	053414	177376 	177777 	177777
	053422	177777
   1071	053424	177777 	177777 	177777 		.word	177777, 177777, 177777, 7417, 124374, 125377, 125377, 125377, 125377, 125377
	053432	007417 	124374 	125377
.MAIN.	MACRO V05.06R Sunday 24-Sep-23 10:55  Page 1-59


	053440	125377 	125377 	125377
	053446	125377
   1072	053450	125377 	125377 	125377 		.word	125377, 125377, 125377, 125377, 125377, 125377, 125377, 125377, 125377, 125377
	053456	125377 	125377 	125377
	053464	125377 	125377 	125377
	053472	125377
   1073	053474	125377 	125377 	125377 		.word	125377, 125377, 125377, 0, 0, 0, 0, 0, 0, 0
	053502	000000 	000000 	000000
	053510	000000 	000000 	000000
	053516	000000
   1074	053520	000000 	000000 	000000 		.word	0, 0, 0, 0, 0, 0, 177777, 177777, 177777, 177777
	053526	000000 	000000 	000000
	053534	177777 	177777 	177777
	053542	177777
   1075	053544	177777 	177777 	177777 		.word	177777, 177777, 177777, 37477, 120360, 125377, 125377, 125377, 125377, 125377
	053552	037477 	120360 	125377
	053560	125377 	125377 	125377
	053566	125377
   1076	053570	125377 	125377 	125377 		.word	125377, 125377, 125377, 125377, 125377, 125377, 125377, 125377, 125377, 125377
	053576	125377 	125377 	125377
	053604	125377 	125377 	125377
	053612	125377
   1077	053614	125377 	125377 	125377 		.word	125377, 125377, 125377, 1, 0, 0, 0, 0, 0, 0
	053622	000001 	000000 	000000
	053630	000000 	000000 	000000
	053636	000000
   1078	053640	000000 	000000 	000000 		.word	0, 0, 0, 0, 0, 100200, 177777, 177777, 177777, 177777
	053646	000000 	000000 	100200
	053654	177777 	177777 	177777
	053662	177777
   1079	053664	177777 	177777 	177777 		.word	177777, 177777, 177777, 177777, 100601, 125377, 125377, 125377, 125377, 125377
	053672	177777 	100601 	125377
	053700	125377 	125377 	125377
	053706	125377
   1080	053710	125377 	125377 	125377 		.word	125377, 125377, 125377, 125377, 125377, 125377, 125377, 125377, 125377, 125377
	053716	125377 	125377 	125377
	053724	125377 	125377 	125377
	053732	125377
   1081	053734	125377 	125377 	125377 		.word	125377, 125377, 125377, 1003, 0, 0, 0, 0, 0, 0
	053742	001003 	000000 	000000
	053750	000000 	000000 	000000
	053756	000000
   1082	053760	000000 	000000 	000000 		.word	0, 0, 0, 0, 0, 140300, 177777, 177777, 177777, 177777
	053766	000000 	000000 	140300
	053774	177777 	177777 	177777
	054002	177777
   1083	054004	177777 	177777 	177777 		.word	177777, 177777, 177777, 177777, 7417, 124374, 125377, 125377, 125377, 125377
	054012	177777 	007417 	124374
	054020	125377 	125377 	125377
	054026	125377
   1084	054030	125377 	125377 	125377 		.word	125377, 125377, 125377, 125377, 125377, 125377, 125377, 125377, 125377, 125377
	054036	125377 	125377 	125377
	054044	125377 	125377 	125377
	054052	125377
   1085	054054	125377 	125377 	125377 		.word	125377, 125377, 125377, 1007, 0, 0, 0, 0, 0, 0
	054062	001007 	000000 	000000
	054070	000000 	000000 	000000
.MAIN.	MACRO V05.06R Sunday 24-Sep-23 10:55  Page 1-60


	054076	000000
   1086	054100	000000 	000000 	000000 		.word	0, 0, 0, 0, 0, 160340, 177777, 177777, 177777, 177777
	054106	000000 	000000 	160340
	054114	177777 	177777 	177777
	054122	177777
   1087	054124	177777 	177777 	177777 		.word	177777, 177777, 177777, 177777, 77577, 120340, 125377, 125377, 125377, 125377
	054132	177777 	077577 	120340
	054140	125377 	125377 	125377
	054146	125377
   1088	054150	125377 	125377 	125377 		.word	125377, 125377, 125377, 125377, 125377, 125377, 125377, 125377, 125377, 125377
	054156	125377 	125377 	125377
	054164	125377 	125377 	125377
	054172	125377
   1089	054174	125377 	125377 	125377 		.word	125377, 125377, 125377, 5017, 0, 0, 0, 0, 0, 0
	054202	005017 	000000 	000000
	054210	000000 	000000 	000000
	054216	000000
   1090	054220	000000 	000000 	000000 		.word	0, 0, 0, 0, 0, 170360, 177777, 177777, 177777, 177777
	054226	000000 	000000 	170360
	054234	177777 	177777 	177777
	054242	177777
   1091	054244	177777 	177777 	177777 		.word	177777, 177777, 177777, 177777, 177777, 100601, 125377, 125377, 125377, 125377
	054252	177777 	177777 	100601
	054260	125377 	125377 	125377
	054266	125377
   1092	054270	125377 	125377 	125377 		.word	125377, 125377, 125377, 125377, 125377, 125377, 125377, 125377, 125377, 125377
	054276	125377 	125377 	125377
	054304	125377 	125377 	125377
	054312	125377
   1093	054314	125377 	125377 	125377 		.word	125377, 125377, 125377, 5037, 0, 0, 0, 0, 0, 0
	054322	005037 	000000 	000000
	054330	000000 	000000 	000000
	054336	000000
   1094	054340	000000 	000000 	000000 		.word	0, 0, 0, 0, 0, 174370, 177777, 177777, 177777, 177777
	054346	000000 	000000 	174370
	054354	177777 	177777 	177777
	054362	177777
   1095	054364	177777 	177777 	177777 		.word	177777, 177777, 177777, 177777, 177777, 7417, 124374, 125377, 125377, 125377
	054372	177777 	177777 	007417
	054400	124374 	125377 	125377
	054406	125377
   1096	054410	125377 	125377 	125377 		.word	125377, 125377, 125377, 125377, 125377, 125377, 125377, 125377, 125377, 125377
	054416	125377 	125377 	125377
	054424	125377 	125377 	125377
	054432	125377
   1097	054434	125377 	125377 	125377 		.word	125377, 125377, 125377, 25077, 0, 0, 0, 0, 0, 0
	054442	025077 	000000 	000000
	054450	000000 	000000 	000000
	054456	000000
   1098	054460	000000 	000000 	000000 		.word	0, 0, 0, 0, 0, 176374, 177777, 177777, 177777, 177777
	054466	000000 	000000 	176374
	054474	177777 	177777 	177777
	054502	177777
   1099	054504	177777 	177777 	177777 		.word	177777, 177777, 177777, 177777, 177777, 77577, 120340, 125377, 125377, 125377
	054512	177777 	177777 	077577
	054520	120340 	125377 	125377
	054526	125377
.MAIN.	MACRO V05.06R Sunday 24-Sep-23 10:55  Page 1-61


   1100	054530	125377 	125377 	125377 		.word	125377, 125377, 125377, 125377, 125377, 125377, 125377, 125377, 125377, 125377
	054536	125377 	125377 	125377
	054544	125377 	125377 	125377
	054552	125377
   1101	054554	125377 	125377 	125377 		.word	125377, 125377, 125377, 25177, 0, 0, 0, 0, 0, 0
	054562	025177 	000000 	000000
	054570	000000 	000000 	000000
	054576	000000
   1102	054600	000000 	000000 	000000 		.word	0, 0, 0, 0, 0, 176374, 177777, 177777, 177777, 177777
	054606	000000 	000000 	176374
	054614	177777 	177777 	177777
	054622	177777
   1103	054624	177777 	177777 	177777 		.word	177777, 177777, 177777, 177777, 177777, 177777, 1403, 125377, 125377, 125377
	054632	177777 	177777 	177777
	054640	001403 	125377 	125377
	054646	125377
   1104	054650	125377 	125377 	125377 		.word	125377, 125377, 125377, 125377, 125377, 125377, 125377, 125377, 125377, 125377
	054656	125377 	125377 	125377
	054664	125377 	125377 	125377
	054672	125377
   1105	054674	125377 	125377 	125377 		.word	125377, 125377, 125377, 25177, 0, 0, 0, 0, 0, 0
	054702	025177 	000000 	000000
	054710	000000 	000000 	000000
	054716	000000
   1106	054720	000000 	000000 	000000 		.word	0, 0, 0, 0, 0, 177376, 177777, 177777, 177777, 177777
	054726	000000 	000000 	177376
	054734	177777 	177777 	177777
	054742	177777
   1107	054744	177777 	177777 	177777 		.word	177777, 177777, 177777, 177777, 177777, 177777, 17437, 124370, 125377, 125377
	054752	177777 	177777 	177777
	054760	017437 	124370 	125377
	054766	125377
   1108	054770	125377 	125377 	125377 		.word	125377, 125377, 125377, 125377, 125377, 125377, 125377, 125377, 125377, 125377
	054776	125377 	125377 	125377
	055004	125377 	125377 	125377
	055012	125377
   1109	055014	125377 	125377 	125377 		.word	125377, 125377, 125377, 125377, 0, 0, 0, 0, 0, 0
	055022	125377 	000000 	000000
	055030	000000 	000000 	000000
	055036	000000
   1110	055040	000000 	000000 	000000 		.word	0, 0, 0, 0, 0, 177376, 177777, 177777, 177777, 177777
	055046	000000 	000000 	177376
	055054	177777 	177777 	177777
	055062	177777
   1111	055064	177777 	177777 	177777 		.word	177777, 177777, 177777, 177777, 177777, 177777, 177777, 100300, 125377, 125377
	055072	177777 	177777 	177777
	055100	177777 	100300 	125377
	055106	125377
   1112	055110	125377 	125377 	125377 		.word	125377, 125377, 125377, 125377, 125377, 125377, 125377, 125377, 125377, 125377
	055116	125377 	125377 	125377
	055124	125377 	125377 	125377
	055132	125377
   1113	055134	125377 	125377 	125377 		.word	125377, 125377, 125377, 125377, 0, 0, 0, 0, 0, 0
	055142	125377 	000000 	000000
	055150	000000 	000000 	000000
	055156	000000
   1114	055160	000000 	000000 	000000 		.word	0, 0, 0, 0, 0, 177777, 177777, 177777, 177777, 177777
.MAIN.	MACRO V05.06R Sunday 24-Sep-23 10:55  Page 1-62


	055166	000000 	000000 	177777
	055174	177777 	177777 	177777
	055202	177777
   1115	055204	177777 	177777 	177777 		.word	177777, 177777, 177777, 177777, 177777, 177777, 177777, 3407, 125376, 125377
	055212	177777 	177777 	177777
	055220	177777 	003407 	125376
	055226	125377
   1116	055230	125377 	125377 	125377 		.word	125377, 125377, 125377, 125377, 125377, 125377, 125377, 125377, 125377, 125377
	055236	125377 	125377 	125377
	055244	125377 	125377 	125377
	055252	125377
   1117	055254	125377 	125377 	125377 		.word	125377, 125377, 125377, 125377, 1, 0, 0, 0, 0, 0
	055262	125377 	000001 	000000
	055270	000000 	000000 	000000
	055276	000000
   1118	055300	000000 	000000 	000000 		.word	0, 0, 0, 0, 0, 177777, 177777, 177777, 177777, 177777
	055306	000000 	000000 	177777
	055314	177777 	177777 	177777
	055322	177777
   1119	055324	177777 	177777 	177777 		.word	177777, 177777, 177777, 177777, 177777, 177777, 177777, 37477, 120360, 125377
	055332	177777 	177777 	177777
	055340	177777 	037477 	120360
	055346	125377
   1120	055350	125377 	125377 	125377 		.word	125377, 125377, 125377, 125377, 125377, 125377, 125377, 125377, 125377, 125377
	055356	125377 	125377 	125377
	055364	125377 	125377 	125377
	055372	125377
   1121	055374	125377 	125377 	125377 		.word	125377, 125377, 125377, 125377, 1, 0, 0, 0, 0, 0
	055402	125377 	000001 	000000
	055410	000000 	000000 	000000
	055416	000000
   1122	055420	000000 	000000 	000000 		.word	0, 0, 0, 0, 0, 177777, 177777, 177777, 177777, 177777
	055426	000000 	000000 	177777
	055434	177777 	177777 	177777
	055442	177777
   1123	055444	177777 	177777 	177777 		.word	177777, 177777, 177777, 177777, 177777, 177777, 177777, 177777, 100601, 125377
	055452	177777 	177777 	177777
	055460	177777 	177777 	100601
	055466	125377
   1124	055470	125377 	125377 	125377 		.word	125377, 125377, 125377, 125377, 125377, 125377, 125377, 125377, 125377, 125377
	055476	125377 	125377 	125377
	055504	125377 	125377 	125377
	055512	125377
   1125	055514	125377 	125377 	125377 		.word	125377, 125377, 125377, 125377, 1, 0, 0, 0, 0, 0
	055522	125377 	000001 	000000
	055530	000000 	000000 	000000
	055536	000000
   1126	055540	000000 	000000 	000000 		.word	0, 0, 0, 0, 0, 177777, 177777, 177777, 177777, 177777
	055546	000000 	000000 	177777
	055554	177777 	177777 	177777
	055562	177777
   1127	055564	177777 	177777 	177777 		.word	177777, 177777, 177777, 177777, 177777, 177777, 177777, 177777, 7417, 124374
	055572	177777 	177777 	177777
	055600	177777 	177777 	007417
	055606	124374
   1128	055610	125377 	125377 	125377 		.word	125377, 125377, 125377, 125377, 125377, 125377, 125377, 125377, 125377, 125377
	055616	125377 	125377 	125377
.MAIN.	MACRO V05.06R Sunday 24-Sep-23 10:55  Page 1-63


	055624	125377 	125377 	125377
	055632	125377
   1129	055634	125377 	125377 	125377 		.word	125377, 125377, 125377, 125377, 1, 0, 0, 0, 0, 0
	055642	125377 	000001 	000000
	055650	000000 	000000 	000000
	055656	000000
   1130	055660	000000 	000000 	000000 		.word	0, 0, 0, 0, 0, 177777, 177777, 177777, 177777, 177777
	055666	000000 	000000 	177777
	055674	177777 	177777 	177777
	055702	177777
   1131	055704	177777 	177777 	177777 		.word	177777, 177777, 177777, 177777, 177777, 177777, 177777, 177777, 77577, 120340
	055712	177777 	177777 	177777
	055720	177777 	177777 	077577
	055726	120340
   1132	055730	125377 	125377 	125377 		.word	125377, 125377, 125377, 125377, 125377, 125377, 125377, 125377, 125377, 125377
	055736	125377 	125377 	125377
	055744	125377 	125377 	125377
	055752	125377
   1133	055754	125377 	125377 	125377 		.word	125377, 125377, 125377, 125377, 1, 0, 0, 0, 0, 0
	055762	125377 	000001 	000000
	055770	000000 	000000 	000000
	055776	000000
   1134	056000	000000 	000000 	000000 		.word	0, 0, 0, 0, 0, 177777, 177777, 177777, 177777, 177777
	056006	000000 	000000 	177777
	056014	177777 	177777 	177777
	056022	177777
   1135	056024	177777 	177777 	177777 		.word	177777, 177777, 177777, 177777, 177777, 177777, 177777, 177777, 177777, 100601
	056032	177777 	177777 	177777
	056040	177777 	177777 	177777
	056046	100601
   1136	056050	125377 	125377 	125377 		.word	125377, 125377, 125377, 125377, 125377, 125377, 125377, 125377, 125377, 125377
	056056	125377 	125377 	125377
	056064	125377 	125377 	125377
	056072	125377
   1137	056074	125377 	125377 	125377 		.word	125377, 125377, 125377, 125377, 1003, 0, 0, 0, 0, 0
	056102	125377 	001003 	000000
	056110	000000 	000000 	000000
	056116	000000
   1138	056120	000000 	000000 	000000 		.word	0, 0, 0, 0, 0, 177777, 177777, 177777, 177777, 177777
	056126	000000 	000000 	177777
	056134	177777 	177777 	177777
	056142	177777
   1139	056144	177777 	177777 	177777 		.word	177777, 177777, 177777, 177777, 177777, 177777, 177777, 177777, 177777, 7417
	056152	177777 	177777 	177777
	056160	177777 	177777 	177777
	056166	007417
   1140	056170	124374 	125377 	125377 		.word	124374, 125377, 125377, 125377, 125377, 125377, 125377, 125377, 125377, 125377
	056176	125377 	125377 	125377
	056204	125377 	125377 	125377
	056212	125377
   1141	056214	125377 	125377 	125377 		.word	125377, 125377, 125377, 125377, 1, 0, 0, 0, 0, 0
	056222	125377 	000001 	000000
	056230	000000 	000000 	000000
	056236	000000
   1142	056240	000000 	000000 	000000 		.word	0, 0, 0, 0, 0, 177777, 177777, 177777, 177777, 177777
	056246	000000 	000000 	177777
	056254	177777 	177777 	177777
.MAIN.	MACRO V05.06R Sunday 24-Sep-23 10:55  Page 1-64


	056262	177777
   1143	056264	177777 	177777 	177777 		.word	177777, 177777, 177777, 177777, 177777, 177777, 177777, 177777, 177777, 77577
	056272	177777 	177777 	177777
	056300	177777 	177777 	177777
	056306	077577
   1144	056310	120340 	125377 	125377 		.word	120340, 125377, 125377, 125377, 125377, 125377, 125377, 125377, 125377, 125377
	056316	125377 	125377 	125377
	056324	125377 	125377 	125377
	056332	125377
   1145	056334	125377 	125377 	125377 		.word	125377, 125377, 125377, 125377, 1, 0, 0, 0, 0, 0
	056342	125377 	000001 	000000
	056350	000000 	000000 	000000
	056356	000000
   1146	056360	000000 	000000 	000000 		.word	0, 0, 0, 0, 0, 177777, 177777, 177777, 177777, 177777
	056366	000000 	000000 	177777
	056374	177777 	177777 	177777
	056402	177777
   1147	056404	177777 	177777 	177777 		.word	177777, 177777, 177777, 177777, 177777, 177777, 177777, 177777, 177777, 177777
	056412	177777 	177777 	177777
	056420	177777 	177777 	177777
	056426	177777
   1148	056430	001403 	125377 	125377 		.word	1403, 125377, 125377, 125377, 125377, 125377, 125377, 125377, 125377, 125377
	056436	125377 	125377 	125377
	056444	125377 	125377 	125377
	056452	125377
   1149	056454	125377 	125377 	125377 		.word	125377, 125377, 125377, 125377, 1, 0, 0, 0, 0, 0
	056462	125377 	000001 	000000
	056470	000000 	000000 	000000
	056476	000000
   1150	056500	000000 	000000 	000000 		.word	0, 0, 0, 0, 0, 177777, 177777, 177777, 177777, 177777
	056506	000000 	000000 	177777
	056514	177777 	177777 	177777
	056522	177777
   1151	056524	177777 	177777 	177777 		.word	177777, 177777, 177777, 177777, 177777, 177777, 177777, 177777, 177777, 177777
	056532	177777 	177777 	177777
	056540	177777 	177777 	177777
	056546	177777
   1152	056550	017437 	124370 	125377 		.word	17437, 124370, 125377, 125377, 125377, 125377, 125377, 125377, 125377, 125377
	056556	125377 	125377 	125377
	056564	125377 	125377 	125377
	056572	125377
   1153	056574	125377 	125377 	125377 		.word	125377, 125377, 125377, 125377, 1, 0, 0, 0, 0, 0
	056602	125377 	000001 	000000
	056610	000000 	000000 	000000
	056616	000000
   1154	056620	000000 	000000 	000000 		.word	0, 0, 0, 0, 0, 177777, 177777, 177777, 177777, 177777
	056626	000000 	000000 	177777
	056634	177777 	177777 	177777
	056642	177777
   1155	056644	177777 	177777 	177777 		.word	177777, 177777, 177777, 177777, 177777, 177777, 177777, 177777, 177777, 177777
	056652	177777 	177777 	177777
	056660	177777 	177777 	177777
	056666	177777
   1156	056670	177777 	100300 	125377 		.word	177777, 100300, 125377, 125377, 125377, 125377, 125377, 125377, 125377, 125377
	056676	125377 	125377 	125377
	056704	125377 	125377 	125377
	056712	125377
.MAIN.	MACRO V05.06R Sunday 24-Sep-23 10:55  Page 1-65


   1157	056714	125377 	125377 	125377 		.word	125377, 125377, 125377, 125377, 1, 0, 0, 0, 0, 0
	056722	125377 	000001 	000000
	056730	000000 	000000 	000000
	056736	000000
   1158	056740	000000 	000000 	000000 		.word	0, 0, 0, 0, 0, 177376, 177777, 177777, 177777, 177777
	056746	000000 	000000 	177376
	056754	177777 	177777 	177777
	056762	177777
   1159	056764	177777 	177777 	177777 		.word	177777, 177777, 177777, 177777, 177777, 177777, 177777, 177777, 177777, 177777
	056772	177777 	177777 	177777
	057000	177777 	177777 	177777
	057006	177777
   1160	057010	177777 	003407 	125376 		.word	177777, 3407, 125376, 125377, 125377, 125377, 125377, 125377, 125377, 125377
	057016	125377 	125377 	125377
	057024	125377 	125377 	125377
	057032	125377
   1161	057034	125377 	125377 	125377 		.word	125377, 125377, 125377, 125377, 0, 0, 0, 0, 0, 0
	057042	125377 	000000 	000000
	057050	000000 	000000 	000000
	057056	000000
   1162	057060	000000 	000000 	000000 		.word	0, 0, 0, 0, 0, 177376, 177777, 177777, 177777, 177777
	057066	000000 	000000 	177376
	057074	177777 	177777 	177777
	057102	177777
   1163	057104	177777 	177777 	177777 		.word	177777, 177777, 177777, 177777, 177777, 177777, 177777, 177777, 177777, 177777
	057112	177777 	177777 	177777
	057120	177777 	177777 	177777
	057126	177777
   1164	057130	177777 	037477 	120360 		.word	177777, 37477, 120360, 125377, 125377, 125377, 125377, 125377, 125377, 125377
	057136	125377 	125377 	125377
	057144	125377 	125377 	125377
	057152	125377
   1165	057154	125377 	125377 	125377 		.word	125377, 125377, 125377, 125377, 0, 0, 0, 0, 0, 0
	057162	125377 	000000 	000000
	057170	000000 	000000 	000000
	057176	000000
   1166	057200	000000 	000000 	000000 		.word	0, 0, 0, 0, 0, 176374, 177777, 177777, 177777, 177777
	057206	000000 	000000 	176374
	057214	177777 	177777 	177777
	057222	177777
   1167	057224	177777 	177777 	177777 		.word	177777, 177777, 177777, 177777, 177777, 177777, 177777, 177777, 177777, 177777
	057232	177777 	177777 	177777
	057240	177777 	177777 	177777
	057246	177777
   1168	057250	177777 	177777 	100601 		.word	177777, 177777, 100601, 125377, 125377, 125377, 125377, 125377, 125377, 125377
	057256	125377 	125377 	125377
	057264	125377 	125377 	125377
	057272	125377
   1169	057274	125377 	125377 	125377 		.word	125377, 125377, 125377, 25177, 0, 0, 0, 0, 0, 0
	057302	025177 	000000 	000000
	057310	000000 	000000 	000000
	057316	000000
   1170	057320	000000 	000000 	000000 		.word	0, 0, 0, 0, 0, 176374, 177777, 177777, 177777, 177777
	057326	000000 	000000 	176374
	057334	177777 	177777 	177777
	057342	177777
   1171	057344	177777 	177777 	177777 		.word	177777, 177777, 177777, 177777, 177777, 177777, 177777, 177777, 177777, 177777
.MAIN.	MACRO V05.06R Sunday 24-Sep-23 10:55  Page 1-66


	057352	177777 	177777 	177777
	057360	177777 	177777 	177777
	057366	177777
   1172	057370	177777 	177777 	007417 		.word	177777, 177777, 7417, 124374, 125377, 125377, 125377, 125377, 125377, 125377
	057376	124374 	125377 	125377
	057404	125377 	125377 	125377
	057412	125377
   1173	057414	125377 	125377 	125377 		.word	125377, 125377, 125377, 25177, 0, 0, 0, 0, 0, 0
	057422	025177 	000000 	000000
	057430	000000 	000000 	000000
	057436	000000
   1174	057440	000000 	000000 	000000 		.word	0, 0, 0, 0, 0, 174370, 177777, 177777, 177777, 177777
	057446	000000 	000000 	174370
	057454	177777 	177777 	177777
	057462	177777
   1175	057464	177777 	177777 	177777 		.word	177777, 177777, 177777, 177777, 177777, 177777, 177777, 177777, 177777, 177777
	057472	177777 	177777 	177777
	057500	177777 	177777 	177777
	057506	177777
   1176	057510	177777 	177777 	077577 		.word	177777, 177777, 77577, 120340, 125377, 125377, 125377, 125377, 125377, 125377
	057516	120340 	125377 	125377
	057524	125377 	125377 	125377
	057532	125377
   1177	057534	125377 	125377 	125377 		.word	125377, 125377, 125377, 25077, 0, 0, 0, 0, 0, 0
	057542	025077 	000000 	000000
	057550	000000 	000000 	000000
	057556	000000
   1178	057560	000000 	000000 	000000 		.word	0, 0, 0, 0, 0, 170360, 177777, 177777, 177777, 177777
	057566	000000 	000000 	170360
	057574	177777 	177777 	177777
	057602	177777
   1179	057604	177777 	177777 	177777 		.word	177777, 177777, 177777, 177777, 177777, 177777, 177777, 177777, 177777, 177777
	057612	177777 	177777 	177777
	057620	177777 	177777 	177777
	057626	177777
   1180	057630	177777 	177777 	177777 		.word	177777, 177777, 177777, 1403, 125377, 125377, 125377, 125377, 125377, 125377
	057636	001403 	125377 	125377
	057644	125377 	125377 	125377
	057652	125377
   1181	057654	125377 	125377 	125377 		.word	125377, 125377, 125377, 5037, 0, 0, 0, 0, 0, 0
	057662	005037 	000000 	000000
	057670	000000 	000000 	000000
	057676	000000
   1182	057700	000000 	000000 	000000 		.word	0, 0, 0, 0, 0, 160340, 177777, 177777, 177777, 177777
	057706	000000 	000000 	160340
	057714	177777 	177777 	177777
	057722	177777
   1183	057724	177777 	177777 	177777 		.word	177777, 177777, 177777, 177777, 177777, 177777, 177777, 177777, 177777, 177777
	057732	177777 	177777 	177777
	057740	177777 	177777 	177777
	057746	177777
   1184	057750	177777 	177777 	177777 		.word	177777, 177777, 177777, 7417, 124374, 125377, 125377, 125377, 125377, 125377
	057756	007417 	124374 	125377
	057764	125377 	125377 	125377
	057772	125377
   1185	057774	125377 	125377 	125377 		.word	125377, 125377, 125377, 5017, 0, 0, 0, 0, 0, 0
	060002	005017 	000000 	000000
.MAIN.	MACRO V05.06R Sunday 24-Sep-23 10:55  Page 1-67


	060010	000000 	000000 	000000
	060016	000000
   1186	060020	000000 	000000 	000000 		.word	0, 0, 0, 0, 0, 140300, 177777, 177777, 177777, 177777
	060026	000000 	000000 	140300
	060034	177777 	177777 	177777
	060042	177777
   1187	060044	177777 	177777 	177777 		.word	177777, 177777, 177777, 177777, 177777, 177777, 177777, 177777, 177777, 177777
	060052	177777 	177777 	177777
	060060	177777 	177777 	177777
	060066	177777
   1188	060070	177777 	177777 	177777 		.word	177777, 177777, 177777, 77577, 120340, 125377, 125377, 125377, 125377, 125377
	060076	077577 	120340 	125377
	060104	125377 	125377 	125377
	060112	125377
   1189	060114	125377 	125377 	125377 		.word	125377, 125377, 125377, 1007, 0, 0, 0, 0, 0, 0
	060122	001007 	000000 	000000
	060130	000000 	000000 	000000
	060136	000000
   1190	060140	000000 	000000 	000000 		.word	0, 0, 0, 0, 0, 100200, 177777, 177777, 177777, 177777
	060146	000000 	000000 	100200
	060154	177777 	177777 	177777
	060162	177777
   1191	060164	177777 	177777 	177777 		.word	177777, 177777, 177777, 177777, 177777, 177777, 177777, 177777, 177777, 177777
	060172	177777 	177777 	177777
	060200	177777 	177777 	177777
	060206	177777
   1192	060210	177777 	177777 	177777 		.word	177777, 177777, 177777, 177777, 1403, 125377, 125377, 125377, 125377, 125377
	060216	177777 	001403 	125377
	060224	125377 	125377 	125377
	060232	125377
   1193	060234	125377 	125377 	125377 		.word	125377, 125377, 125377, 1003, 0, 0, 0, 0, 0, 0
	060242	001003 	000000 	000000
	060250	000000 	000000 	000000
	060256	000000
   1194	060260	000000 	000000 	000000 		.word	0, 0, 0, 0, 0, 0, 177777, 177777, 177777, 177777
	060266	000000 	000000 	000000
	060274	177777 	177777 	177777
	060302	177777
   1195	060304	177777 	177777 	177777 		.word	177777, 177777, 177777, 177777, 177777, 177777, 177777, 177777, 177777, 177777
	060312	177777 	177777 	177777
	060320	177777 	177777 	177777
	060326	177777
   1196	060330	177777 	177777 	177777 		.word	177777, 177777, 177777, 177777, 17437, 124370, 125377, 125377, 125377, 125377
	060336	177777 	017437 	124370
	060344	125377 	125377 	125377
	060352	125377
   1197	060354	125377 	125377 	125377 		.word	125377, 125377, 125377, 1, 0, 0, 0, 0, 0, 0
	060362	000001 	000000 	000000
	060370	000000 	000000 	000000
	060376	000000
   1198	060400	000000 	000000 	000000 		.word	0, 0, 0, 0, 0, 0, 177376, 177777, 177777, 177777
	060406	000000 	000000 	000000
	060414	177376 	177777 	177777
	060422	177777
   1199	060424	177777 	177777 	177777 		.word	177777, 177777, 177777, 177777, 177777, 177777, 177777, 177777, 177777, 177777
	060432	177777 	177777 	177777
	060440	177777 	177777 	177777
.MAIN.	MACRO V05.06R Sunday 24-Sep-23 10:55  Page 1-68


	060446	177777
   1200	060450	177777 	177777 	177777 		.word	177777, 177777, 177777, 177777, 77577, 120340, 125377, 125377, 125377, 125377
	060456	177777 	077577 	120340
	060464	125377 	125377 	125377
	060472	125377
   1201	060474	125377 	125377 	125377 		.word	125377, 125377, 125377, 0, 0, 0, 0, 0, 0, 0
	060502	000000 	000000 	000000
	060510	000000 	000000 	000000
	060516	000000
   1202	060520	000000 	000000 	000000 		.word	0, 0, 0, 0, 0, 0, 176374, 177777, 177777, 177777
	060526	000000 	000000 	000000
	060534	176374 	177777 	177777
	060542	177777
   1203	060544	177777 	177777 	177777 		.word	177777, 177777, 177777, 177777, 177777, 177777, 177777, 177777, 177777, 177777
	060552	177777 	177777 	177777
	060560	177777 	177777 	177777
	060566	177777
   1204	060570	177777 	177777 	177777 		.word	177777, 177777, 177777, 177777, 177777, 1403, 125377, 125377, 125377, 125377
	060576	177777 	177777 	001403
	060604	125377 	125377 	125377
	060612	125377
   1205	060614	125377 	125377 	025177 		.word	125377, 125377, 25177, 0, 0, 0, 0, 0, 0, 0
	060622	000000 	000000 	000000
	060630	000000 	000000 	000000
	060636	000000
   1206	060640	000000 	000000 	000000 		.word	0, 0, 0, 0, 0, 0, 174370, 177777, 177777, 177777
	060646	000000 	000000 	000000
	060654	174370 	177777 	177777
	060662	177777
   1207	060664	177777 	177777 	177777 		.word	177777, 177777, 177777, 177777, 177777, 177777, 177777, 177777, 177777, 177777
	060672	177777 	177777 	177777
	060700	177777 	177777 	177777
	060706	177777
   1208	060710	177777 	177777 	177777 		.word	177777, 177777, 177777, 177777, 177777, 17437, 124370, 125377, 125377, 125377
	060716	177777 	177777 	017437
	060724	124370 	125377 	125377
	060732	125377
   1209	060734	125377 	125377 	025077 		.word	125377, 125377, 25077, 0, 0, 0, 0, 0, 0, 0
	060742	000000 	000000 	000000
	060750	000000 	000000 	000000
	060756	000000
   1210	060760	000000 	000000 	000000 		.word	0, 0, 0, 0, 0, 0, 170360, 177777, 177777, 177777
	060766	000000 	000000 	000000
	060774	170360 	177777 	177777
	061002	177777
   1211	061004	177777 	177777 	177777 		.word	177777, 177777, 177777, 177777, 177777, 177777, 177777, 177777, 177777, 177777
	061012	177777 	177777 	177777
	061020	177777 	177777 	177777
	061026	177777
   1212	061030	177777 	177777 	177777 		.word	177777, 177777, 177777, 177777, 177777, 77577, 120340, 125377, 125377, 125377
	061036	177777 	177777 	077577
	061044	120340 	125377 	125377
	061052	125377
   1213	061054	125377 	125377 	005037 		.word	125377, 125377, 5037, 0, 0, 0, 0, 0, 0, 0
	061062	000000 	000000 	000000
	061070	000000 	000000 	000000
	061076	000000
.MAIN.	MACRO V05.06R Sunday 24-Sep-23 10:55  Page 1-69


   1214	061100	000000 	000000 	000000 		.word	0, 0, 0, 0, 0, 0, 140300, 177777, 177777, 177777
	061106	000000 	000000 	000000
	061114	140300 	177777 	177777
	061122	177777
   1215	061124	177777 	177777 	177777 		.word	177777, 177777, 177777, 177777, 177777, 177777, 177777, 177777, 177777, 177777
	061132	177777 	177777 	177777
	061140	177777 	177777 	177777
	061146	177777
   1216	061150	177777 	177777 	177777 		.word	177777, 177777, 177777, 177777, 177777, 177777, 1403, 125377, 125377, 125377
	061156	177777 	177777 	177777
	061164	001403 	125377 	125377
	061172	125377
   1217	061174	125377 	125377 	001007 		.word	125377, 125377, 1007, 0, 0, 0, 0, 0, 0, 0
	061202	000000 	000000 	000000
	061210	000000 	000000 	000000
	061216	000000
   1218	061220	000000 	000000 	000000 		.word	0, 0, 0, 0, 0, 0, 100200, 177777, 177777, 177777
	061226	000000 	000000 	000000
	061234	100200 	177777 	177777
	061242	177777
   1219	061244	177777 	177777 	177777 		.word	177777, 177777, 177777, 177777, 177777, 177777, 177777, 177777, 177777, 177777
	061252	177777 	177777 	177777
	061260	177777 	177777 	177777
	061266	177777
   1220	061270	177777 	177777 	177777 		.word	177777, 177777, 177777, 177777, 177777, 177777, 17437, 124370, 125377, 125377
	061276	177777 	177777 	177777
	061304	017437 	124370 	125377
	061312	125377
   1221	061314	125377 	125377 	001003 		.word	125377, 125377, 1003, 0, 0, 0, 0, 0, 0, 0
	061322	000000 	000000 	000000
	061330	000000 	000000 	000000
	061336	000000
   1222	061340	000000 	000000 	000000 		.word	0, 0, 0, 0, 0, 0, 0, 177376, 177777, 177777
	061346	000000 	000000 	000000
	061354	000000 	177376 	177777
	061362	177777
   1223	061364	177777 	177777 	177777 		.word	177777, 177777, 177777, 177777, 177777, 177777, 177777, 177777, 177777, 177777
	061372	177777 	177777 	177777
	061400	177777 	177777 	177777
	061406	177777
   1224	061410	177777 	177777 	177777 		.word	177777, 177777, 177777, 177777, 177777, 177777, 77577, 120340, 125377, 125377
	061416	177777 	177777 	177777
	061424	077577 	120340 	125377
	061432	125377
   1225	061434	125377 	125377 	000000 		.word	125377, 125377, 0, 0, 0, 0, 0, 0, 0, 0
	061442	000000 	000000 	000000
	061450	000000 	000000 	000000
	061456	000000
   1226	061460	000000 	000000 	000000 		.word	0, 0, 0, 0, 0, 0, 0, 176374, 177777, 177777
	061466	000000 	000000 	000000
	061474	000000 	176374 	177777
	061502	177777
   1227	061504	177777 	177777 	177777 		.word	177777, 177777, 177777, 177777, 177777, 177777, 177777, 177777, 177777, 177777
	061512	177777 	177777 	177777
	061520	177777 	177777 	177777
	061526	177777
   1228	061530	177777 	177777 	177777 		.word	177777, 177777, 177777, 177777, 177777, 177777, 177777, 1403, 125377, 125377
.MAIN.	MACRO V05.06R Sunday 24-Sep-23 10:55  Page 1-70


	061536	177777 	177777 	177777
	061544	177777 	001403 	125377
	061552	125377
   1229	061554	125377 	025177 	000000 		.word	125377, 25177, 0, 0, 0, 0, 0, 0, 0, 0
	061562	000000 	000000 	000000
	061570	000000 	000000 	000000
	061576	000000
   1230	061600	000000 	000000 	000000 		.word	0, 0, 0, 0, 0, 0, 0, 170360, 177777, 177777
	061606	000000 	000000 	000000
	061614	000000 	170360 	177777
	061622	177777
   1231	061624	177777 	177777 	177777 		.word	177777, 177777, 177777, 177777, 177777, 177777, 177777, 177777, 177777, 177777
	061632	177777 	177777 	177777
	061640	177777 	177777 	177777
	061646	177777
   1232	061650	177777 	177777 	177777 		.word	177777, 177777, 177777, 177777, 177777, 177777, 177777, 7417, 124374, 125377
	061656	177777 	177777 	177777
	061664	177777 	007417 	124374
	061672	125377
   1233	061674	125377 	005037 	000000 		.word	125377, 5037, 0, 0, 0, 0, 0, 0, 0, 0
	061702	000000 	000000 	000000
	061710	000000 	000000 	000000
	061716	000000
   1234	061720	000000 	000000 	000000 		.word	0, 0, 0, 0, 0, 0, 0, 160340, 177777, 177777
	061726	000000 	000000 	000000
	061734	000000 	160340 	177777
	061742	177777
   1235	061744	177777 	177777 	177777 		.word	177777, 177777, 177777, 177777, 177777, 177777, 177777, 177777, 177777, 177777
	061752	177777 	177777 	177777
	061760	177777 	177777 	177777
	061766	177777
   1236	061770	177777 	177777 	177777 		.word	177777, 177777, 177777, 177777, 177777, 177777, 177777, 77577, 120340, 125377
	061776	177777 	177777 	177777
	062004	177777 	077577 	120340
	062012	125377
   1237	062014	125377 	005017 	000000 		.word	125377, 5017, 0, 0, 0, 0, 0, 0, 0, 0
	062022	000000 	000000 	000000
	062030	000000 	000000 	000000
	062036	000000
   1238	062040	000000 	000000 	000000 		.word	0, 0, 0, 0, 0, 0, 0, 100200, 177777, 177777
	062046	000000 	000000 	000000
	062054	000000 	100200 	177777
	062062	177777
   1239	062064	177777 	177777 	177777 		.word	177777, 177777, 177777, 177777, 177777, 177777, 177777, 177777, 177777, 177777
	062072	177777 	177777 	177777
	062100	177777 	177777 	177777
	062106	177777
   1240	062110	177777 	177777 	177777 		.word	177777, 177777, 177777, 177777, 177777, 177777, 177777, 177777, 100601, 125377
	062116	177777 	177777 	177777
	062124	177777 	177777 	100601
	062132	125377
   1241	062134	125377 	001003 	000000 		.word	125377, 1003, 0, 0, 0, 0, 0, 0, 0, 0
	062142	000000 	000000 	000000
	062150	000000 	000000 	000000
	062156	000000
   1242	062160	000000 	000000 	000000 		.word	0, 0, 0, 0, 0, 0, 0, 0, 177376, 177777
	062166	000000 	000000 	000000
.MAIN.	MACRO V05.06R Sunday 24-Sep-23 10:55  Page 1-71


	062174	000000 	000000 	177376
	062202	177777
   1243	062204	177777 	177777 	177777 		.word	177777, 177777, 177777, 177777, 177777, 177777, 177777, 177777, 177777, 177777
	062212	177777 	177777 	177777
	062220	177777 	177777 	177777
	062226	177777
   1244	062230	177777 	177777 	177777 		.word	177777, 177777, 177777, 177777, 177777, 177777, 177777, 177777, 3407, 125376
	062236	177777 	177777 	177777
	062244	177777 	177777 	003407
	062252	125376
   1245	062254	125377 	000000 	000000 		.word	125377, 0, 0, 0, 0, 0, 0, 0, 0, 0
	062262	000000 	000000 	000000
	062270	000000 	000000 	000000
	062276	000000
   1246	062300	000000 	000000 	000000 		.word	0, 0, 0, 0, 0, 0, 0, 0, 174370, 177777
	062306	000000 	000000 	000000
	062314	000000 	000000 	174370
	062322	177777
   1247	062324	177777 	177777 	177777 		.word	177777, 177777, 177777, 177777, 177777, 177777, 177777, 177777, 177777, 177777
	062332	177777 	177777 	177777
	062340	177777 	177777 	177777
	062346	177777
   1248	062350	177777 	177777 	177777 		.word	177777, 177777, 177777, 177777, 177777, 177777, 177777, 177777, 37477, 120360
	062356	177777 	177777 	177777
	062364	177777 	177777 	037477
	062372	120360
   1249	062374	025077 	000000 	000000 		.word	25077, 0, 0, 0, 0, 0, 0, 0, 0, 0
	062402	000000 	000000 	000000
	062410	000000 	000000 	000000
	062416	000000
   1250	062420	000000 	000000 	000000 		.word	0, 0, 0, 0, 0, 0, 0, 0, 160340, 177777
	062426	000000 	000000 	000000
	062434	000000 	000000 	160340
	062442	177777
   1251	062444	177777 	177777 	177777 		.word	177777, 177777, 177777, 177777, 177777, 177777, 177777, 177777, 177777, 177777
	062452	177777 	177777 	177777
	062460	177777 	177777 	177777
	062466	177777
   1252	062470	177777 	177777 	177777 		.word	177777, 177777, 177777, 177777, 177777, 177777, 177777, 177777, 177777, 100300
	062476	177777 	177777 	177777
	062504	177777 	177777 	177777
	062512	100300
   1253	062514	005017 	000000 	000000 		.word	5017, 0, 0, 0, 0, 0, 0, 0, 0, 0
	062522	000000 	000000 	000000
	062530	000000 	000000 	000000
	062536	000000
   1254	062540	000000 	000000 	000000 		.word	0, 0, 0, 0, 0, 0, 0, 0, 100200, 177777
	062546	000000 	000000 	000000
	062554	000000 	000000 	100200
	062562	177777
   1255	062564	177777 	177777 	177777 		.word	177777, 177777, 177777, 177777, 177777, 177777, 177777, 177777, 177777, 177777
	062572	177777 	177777 	177777
	062600	177777 	177777 	177777
	062606	177777
   1256	062610	177777 	177777 	177777 		.word	177777, 177777, 177777, 177777, 177777, 177777, 177777, 177777, 177777, 1403
	062616	177777 	177777 	177777
	062624	177777 	177777 	177777
.MAIN.	MACRO V05.06R Sunday 24-Sep-23 10:55  Page 1-72


	062632	001403
   1257	062634	001003 	000000 	000000 		.word	1003, 0, 0, 0, 0, 0, 0, 0, 0, 0
	062642	000000 	000000 	000000
	062650	000000 	000000 	000000
	062656	000000
   1258	062660	000000 	000000 	000000 		.word	0, 0, 0, 0, 0, 0, 0, 0, 0, 177376
	062666	000000 	000000 	000000
	062674	000000 	000000 	000000
	062702	177376
   1259	062704	177777 	177777 	177777 		.word	177777, 177777, 177777, 177777, 177777, 177777, 177777, 177777, 177777, 177777
	062712	177777 	177777 	177777
	062720	177777 	177777 	177777
	062726	177777
   1260	062730	177777 	177777 	177777 		.word	177777, 177777, 177777, 177777, 177777, 177777, 177777, 177777, 177777, 7417
	062736	177777 	177777 	177777
	062744	177777 	177777 	177777
	062752	007417
   1261	062754	000000 	000000 	000000 		.word	0, 0, 0, 0, 0, 0, 0, 0, 0, 0
	062762	000000 	000000 	000000
	062770	000000 	000000 	000000
	062776	000000
   1262	063000	000000 	000000 	000000 		.word	0, 0, 0, 0, 0, 0, 0, 0, 0, 174370
	063006	000000 	000000 	000000
	063014	000000 	000000 	000000
	063022	174370
   1263	063024	177777 	177777 	177777 		.word	177777, 177777, 177777, 177777, 177777, 177777, 177777, 177777, 177777, 177777
	063032	177777 	177777 	177777
	063040	177777 	177777 	177777
	063046	177777
   1264	063050	177777 	177777 	177777 		.word	177777, 177777, 177777, 177777, 177777, 177777, 177777, 177777, 177777, 37477
	063056	177777 	177777 	177777
	063064	177777 	177777 	177777
	063072	037477
   1265	063074	000000 	000000 	000000 		.word	0, 0, 0, 0, 0, 0, 0, 0, 0, 0
	063102	000000 	000000 	000000
	063110	000000 	000000 	000000
	063116	000000
   1266	063120	000000 	000000 	000000 		.word	0, 0, 0, 0, 0, 0, 0, 0, 0, 160340
	063126	000000 	000000 	000000
	063134	000000 	000000 	000000
	063142	160340
   1267	063144	177777 	177777 	177777 		.word	177777, 177777, 177777, 177777, 177777, 177777, 177777, 177777, 177777, 177777
	063152	177777 	177777 	177777
	063160	177777 	177777 	177777
	063166	177777
   1268	063170	177777 	177777 	177777 		.word	177777, 177777, 177777, 177777, 177777, 177777, 177777, 177777, 177777, 177777
	063176	177777 	177777 	177777
	063204	177777 	177777 	177777
	063212	177777
   1269	063214	000000 	000000 	000000 		.word	0, 0, 0, 0, 0, 0, 0, 0, 0, 0
	063222	000000 	000000 	000000
	063230	000000 	000000 	000000
	063236	000000
   1270	063240	000000 	000000 	000000 		.word	0, 0, 0, 0, 0, 0, 0, 0, 200, 100201
	063246	000000 	000000 	000000
	063254	000000 	000000 	000200
	063262	100201
.MAIN.	MACRO V05.06R Sunday 24-Sep-23 10:55  Page 1-73


   1271	063264	177777 	177777 	177777 		.word	177777, 177777, 177777, 177777, 177777, 177777, 177777, 177777, 177777, 177777
	063272	177777 	177777 	177777
	063300	177777 	177777 	177777
	063306	177777
   1272	063310	177777 	177777 	177777 		.word	177777, 177777, 177777, 177777, 177777, 177777, 177777, 177777, 177777, 177777
	063316	177777 	177777 	177777
	063324	177777 	177777 	177777
	063332	177777
   1273	063334	001403 	000000 	000000 		.word	1403, 0, 0, 0, 0, 0, 0, 0, 0, 0
	063342	000000 	000000 	000000
	063350	000000 	000000 	000000
	063356	000000
   1274	063360	000000 	000000 	000000 		.word	0, 0, 0, 0, 0, 0, 0, 0, 340, 7
	063366	000000 	000000 	000000
	063374	000000 	000000 	000340
	063402	000007
   1275	063404	177376 	177777 	177777 		.word	177376, 177777, 177777, 177777, 177777, 177777, 177777, 177777, 177777, 177777
	063412	177777 	177777 	177777
	063420	177777 	177777 	177777
	063426	177777
   1276	063430	177777 	177777 	177777 		.word	177777, 177777, 177777, 177777, 177777, 177777, 177777, 177777, 177777, 177777
	063436	177777 	177777 	177777
	063444	177777 	177777 	177777
	063452	177777
   1277	063454	007417 	000000 	000000 		.word	7417, 0, 0, 0, 0, 0, 0, 0, 0, 0
	063462	000000 	000000 	000000
	063470	000000 	000000 	000000
	063476	000000
   1278	063500	000000 	000000 	000000 		.word	0, 0, 0, 0, 0, 0, 0, 0, 370, 37
	063506	000000 	000000 	000000
	063514	000000 	000000 	000370
	063522	000037
   1279	063524	174370 	177777 	177777 		.word	174370, 177777, 177777, 177777, 177777, 177777, 177777, 177777, 177777, 177777
	063532	177777 	177777 	177777
	063540	177777 	177777 	177777
	063546	177777
   1280	063550	177777 	177777 	177777 		.word	177777, 177777, 177777, 177777, 177777, 177777, 177777, 177777, 177777, 177777
	063556	177777 	177777 	177777
	063564	177777 	177777 	177777
	063572	177777
   1281	063574	037477 	000000 	000000 		.word	37477, 0, 0, 0, 0, 0, 0, 0, 0, 0
	063602	000000 	000000 	000000
	063610	000000 	000000 	000000
	063616	000000
   1282	063620	000000 	000000 	000000 		.word	0, 0, 0, 0, 0, 0, 0, 0, 376, 377
	063626	000000 	000000 	000000
	063634	000000 	000000 	000376
	063642	000377
   1283	063644	140300 	177777 	177777 		.word	140300, 177777, 177777, 177777, 177777, 177777, 177777, 177777, 177777, 177777
	063652	177777 	177777 	177777
	063660	177777 	177777 	177777
	063666	177777
   1284	063670	177777 	177777 	177777 		.word	177777, 177777, 177777, 177777, 177777, 177777, 177777, 177777, 177777, 177777
	063676	177777 	177777 	177777
	063704	177777 	177777 	177777
	063712	177777
   1285	063714	177777 	000000 	000000 		.word	177777, 0, 0, 0, 0, 0, 0, 0, 0, 0
.MAIN.	MACRO V05.06R Sunday 24-Sep-23 10:55  Page 1-74


	063722	000000 	000000 	000000
	063730	000000 	000000 	000000
	063736	000000
   1286	063740	000000 	000000 	000000 		.word	0, 0, 0, 0, 0, 0, 0, 200, 377, 377
	063746	000000 	000000 	000000
	063754	000000 	000200 	000377
	063762	000377
   1287	063764	000003 	177777 	177777 		.word	3, 177777, 177777, 177777, 177777, 177777, 177777, 177777, 177777, 177777
	063772	177777 	177777 	177777
	064000	177777 	177777 	177777
	064006	177777
   1288	064010	177777 	177777 	177777 		.word	177777, 177777, 177777, 177777, 177777, 177777, 177777, 177777, 177777, 177777
	064016	177777 	177777 	177777
	064024	177777 	177777 	177777
	064032	177777
   1289	064034	177777 	001403 	000000 		.word	177777, 1403, 0, 0, 0, 0, 0, 0, 0, 0
	064042	000000 	000000 	000000
	064050	000000 	000000 	000000
	064056	000000
   1290	064060	000000 	000000 	000000 		.word	0, 0, 0, 0, 0, 0, 0, 340, 377, 377
	064066	000000 	000000 	000000
	064074	000000 	000340 	000377
	064102	000377
   1291	064104	000017 	176374 	177777 		.word	17, 176374, 177777, 177777, 177777, 177777, 177777, 177777, 177777, 177777
	064112	177777 	177777 	177777
	064120	177777 	177777 	177777
	064126	177777
   1292	064130	177777 	177777 	177777 		.word	177777, 177777, 177777, 177777, 177777, 177777, 177777, 177777, 177777, 177777
	064136	177777 	177777 	177777
	064144	177777 	177777 	177777
	064152	177777
   1293	064154	177777 	007417 	000000 		.word	177777, 7417, 0, 0, 0, 0, 0, 0, 0, 0
	064162	000000 	000000 	000000
	064170	000000 	000000 	000000
	064176	000000
   1294	064200	000000 	000000 	000000 		.word	0, 0, 0, 0, 0, 0, 0, 360, 377, 377
	064206	000000 	000000 	000000
	064214	000000 	000360 	000377
	064222	000377
   1295	064224	000177 	160340 	177777 		.word	177, 160340, 177777, 177777, 177777, 177777, 177777, 177777, 177777, 177777
	064232	177777 	177777 	177777
	064240	177777 	177777 	177777
	064246	177777
   1296	064250	177777 	177777 	177777 		.word	177777, 177777, 177777, 177777, 177777, 177777, 177777, 177777, 177777, 177777
	064256	177777 	177777 	177777
	064264	177777 	177777 	177777
	064272	177777
   1297	064274	177777 	017437 	000000 		.word	177777, 17437, 0, 0, 0, 0, 0, 0, 0, 0
	064302	000000 	000000 	000000
	064310	000000 	000000 	000000
	064316	000000
   1298	064320	000000 	000000 	000000 		.word	0, 0, 0, 0, 0, 0, 0, 374, 377, 377
	064326	000000 	000000 	000000
	064334	000000 	000374 	000377
	064342	000377
   1299	064344	000377 	100201 	177777 		.word	377, 100201, 177777, 177777, 177777, 177777, 177777, 177777, 177777, 177777
	064352	177777 	177777 	177777
.MAIN.	MACRO V05.06R Sunday 24-Sep-23 10:55  Page 1-75


	064360	177777 	177777 	177777
	064366	177777
   1300	064370	177777 	177777 	177777 		.word	177777, 177777, 177777, 177777, 177777, 177777, 177777, 177777, 177777, 177777
	064376	177777 	177777 	177777
	064404	177777 	177777 	177777
	064412	177777
   1301	064414	177777 	077577 	000000 		.word	177777, 77577, 0, 0, 0, 0, 0, 0, 0, 0
	064422	000000 	000000 	000000
	064430	000000 	000000 	000000
	064436	000000
   1302	064440	000000 	000000 	000000 		.word	0, 0, 0, 0, 0, 0, 0, 376, 377, 377
	064446	000000 	000000 	000000
	064454	000000 	000376 	000377
	064462	000377
   1303	064464	000377 	000017 	176374 		.word	377, 17, 176374, 177777, 177777, 177777, 177777, 177777, 177777, 177777
	064472	177777 	177777 	177777
	064500	177777 	177777 	177777
	064506	177777
   1304	064510	177777 	177777 	177777 		.word	177777, 177777, 177777, 177777, 177777, 177777, 177777, 177777, 177777, 177777
	064516	177777 	177777 	177777
	064524	177777 	177777 	177777
	064532	177777
   1305	064534	177777 	177777 	000000 		.word	177777, 177777, 0, 0, 0, 0, 0, 0, 0, 0
	064542	000000 	000000 	000000
	064550	000000 	000000 	000000
	064556	000000
   1306	064560	000000 	000000 	000000 		.word	0, 0, 0, 0, 0, 0, 200, 377, 377, 377
	064566	000000 	000000 	000000
	064574	000200 	000377 	000377
	064602	000377
   1307	064604	000377 	000077 	170360 		.word	377, 77, 170360, 177777, 177777, 177777, 177777, 177777, 177777, 177777
	064612	177777 	177777 	177777
	064620	177777 	177777 	177777
	064626	177777
   1308	064630	177777 	177777 	177777 		.word	177777, 177777, 177777, 177777, 177777, 177777, 177777, 177777, 177777, 177777
	064636	177777 	177777 	177777
	064644	177777 	177777 	177777
	064652	177777
   1309	064654	177777 	177777 	001403 		.word	177777, 177777, 1403, 0, 0, 0, 0, 0, 0, 0
	064662	000000 	000000 	000000
	064670	000000 	000000 	000000
	064676	000000
   1310	064700	000000 	000000 	000000 		.word	0, 0, 0, 0, 0, 0, 300, 377, 377, 377
	064706	000000 	000000 	000000
	064714	000300 	000377 	000377
	064722	000377
   1311	064724	000377 	000377 	100201 		.word	377, 377, 100201, 177777, 177777, 177777, 177777, 177777, 177777, 177777
	064732	177777 	177777 	177777
	064740	177777 	177777 	177777
	064746	177777
   1312	064750	177777 	177777 	177777 		.word	177777, 177777, 177777, 177777, 177777, 177777, 177777, 177777, 177777, 177777
	064756	177777 	177777 	177777
	064764	177777 	177777 	177777
	064772	177777
   1313	064774	177777 	177777 	003407 		.word	177777, 177777, 3407, 0, 0, 0, 0, 0, 0, 0
	065002	000000 	000000 	000000
	065010	000000 	000000 	000000
.MAIN.	MACRO V05.06R Sunday 24-Sep-23 10:55  Page 1-76


	065016	000000
   1314	065020	000000 	000000 	000000 		.word	0, 0, 0, 0, 0, 0, 360, 377, 377, 377
	065026	000000 	000000 	000000
	065034	000360 	000377 	000377
	065042	000377
   1315	065044	000377 	000377 	000017 		.word	377, 377, 17, 176374, 177777, 177777, 177777, 177777, 177777, 177777
	065052	176374 	177777 	177777
	065060	177777 	177777 	177777
	065066	177777
   1316	065070	177777 	177777 	177777 		.word	177777, 177777, 177777, 177777, 177777, 177777, 177777, 177777, 177777, 177777
	065076	177777 	177777 	177777
	065104	177777 	177777 	177777
	065112	177777
   1317	065114	177777 	177777 	017437 		.word	177777, 177777, 17437, 0, 0, 0, 0, 0, 0, 0
	065122	000000 	000000 	000000
	065130	000000 	000000 	000000
	065136	000000
   1318	065140	000000 	000000 	000000 		.word	0, 0, 0, 0, 0, 0, 370, 377, 377, 377
	065146	000000 	000000 	000000
	065154	000370 	000377 	000377
	065162	000377
   1319	065164	000377 	000377 	000077 		.word	377, 377, 77, 170360, 177777, 177777, 177777, 177777, 177777, 177777
	065172	170360 	177777 	177777
	065200	177777 	177777 	177777
	065206	177777
   1320	065210	177777 	177777 	177777 		.word	177777, 177777, 177777, 177777, 177777, 177777, 177777, 177777, 177777, 177777
	065216	177777 	177777 	177777
	065224	177777 	177777 	177777
	065232	177777
   1321	065234	177777 	177777 	037477 		.word	177777, 177777, 37477, 0, 0, 0, 0, 0, 0, 0
	065242	000000 	000000 	000000
	065250	000000 	000000 	000000
	065256	000000
   1322	065260	000000 	000000 	000000 		.word	0, 0, 0, 0, 0, 0, 374, 377, 377, 377
	065266	000000 	000000 	000000
	065274	000374 	000377 	000377
	065302	000377
   1323	065304	000377 	000377 	000377 		.word	377, 377, 377, 100201, 177777, 177777, 177777, 177777, 177777, 177777
	065312	100201 	177777 	177777
	065320	177777 	177777 	177777
	065326	177777
   1324	065330	177777 	177777 	177777 		.word	177777, 177777, 177777, 177777, 177777, 177777, 177777, 177777, 177777, 177777
	065336	177777 	177777 	177777
	065344	177777 	177777 	177777
	065352	177777
   1325	065354	177777 	177777 	077577 		.word	177777, 177777, 77577, 0, 0, 0, 0, 0, 0, 0
	065362	000000 	000000 	000000
	065370	000000 	000000 	000000
	065376	000000
   1326	065400	000000 	000000 	000000 		.word	0, 0, 0, 0, 0, 0, 376, 377, 377, 377
	065406	000000 	000000 	000000
	065414	000376 	000377 	000377
	065422	000377
   1327	065424	000377 	000377 	000377 		.word	377, 377, 377, 17, 176374, 177777, 177777, 177777, 177777, 177777
	065432	000017 	176374 	177777
	065440	177777 	177777 	177777
	065446	177777
.MAIN.	MACRO V05.06R Sunday 24-Sep-23 10:55  Page 1-77


   1328	065450	177777 	177777 	177777 		.word	177777, 177777, 177777, 177777, 177777, 177777, 177777, 177777, 177777, 177777
	065456	177777 	177777 	177777
	065464	177777 	177777 	177777
	065472	177777
   1329	065474	177777 	177777 	177777 		.word	177777, 177777, 177777, 0, 0, 0, 0, 0, 0, 0
	065502	000000 	000000 	000000
	065510	000000 	000000 	000000
	065516	000000
   1330	065520	000000 	000000 	000000 		.word	0, 0, 0, 0, 0, 0, 377, 377, 377, 377
	065526	000000 	000000 	000000
	065534	000377 	000377 	000377
	065542	000377
   1331	065544	000377 	000377 	000377 		.word	377, 377, 377, 77, 170360, 177777, 177777, 177777, 177777, 177777
	065552	000077 	170360 	177777
	065560	177777 	177777 	177777
	065566	177777
   1332	065570	177777 	177777 	177777 		.word	177777, 177777, 177777, 177777, 177777, 177777, 177777, 177777, 177777, 177777
	065576	177777 	177777 	177777
	065604	177777 	177777 	177777
	065612	177777
   1333	065614	177777 	177777 	177777 		.word	177777, 177777, 177777, 401, 0, 0, 0, 0, 0, 0
	065622	000401 	000000 	000000
	065630	000000 	000000 	000000
	065636	000000
   1334	065640	000000 	000000 	000000 		.word	0, 0, 0, 0, 0, 200, 377, 377, 377, 377
	065646	000000 	000000 	000200
	065654	000377 	000377 	000377
	065662	000377
   1335	065664	000377 	000377 	000377 		.word	377, 377, 377, 377, 100201, 177777, 177777, 177777, 177777, 177777
	065672	000377 	100201 	177777
	065700	177777 	177777 	177777
	065706	177777
   1336	065710	177777 	177777 	177777 		.word	177777, 177777, 177777, 177777, 177777, 177777, 177777, 177777, 177777, 177777
	065716	177777 	177777 	177777
	065724	177777 	177777 	177777
	065732	177777
   1337	065734	177777 	177777 	177777 		.word	177777, 177777, 177777, 1403, 0, 0, 0, 0, 0, 0
	065742	001403 	000000 	000000
	065750	000000 	000000 	000000
	065756	000000
   1338	065760	000000 	000000 	000000 		.word	0, 0, 0, 0, 0, 300, 377, 377, 377, 377
	065766	000000 	000000 	000300
	065774	000377 	000377 	000377
	066002	000377
   1339	066004	000377 	000377 	000377 		.word	377, 377, 377, 377, 17, 176374, 177777, 177777, 177777, 177777
	066012	000377 	000017 	176374
	066020	177777 	177777 	177777
	066026	177777
   1340	066030	177777 	177777 	177777 		.word	177777, 177777, 177777, 177777, 177777, 177777, 177777, 177777, 177777, 177777
	066036	177777 	177777 	177777
	066044	177777 	177777 	177777
	066052	177777
   1341	066054	177777 	177777 	177777 		.word	177777, 177777, 177777, 3407, 0, 0, 0, 0, 0, 0
	066062	003407 	000000 	000000
	066070	000000 	000000 	000000
	066076	000000
   1342	066100	000000 	000000 	000000 		.word	0, 0, 0, 0, 0, 340, 377, 377, 377, 377
.MAIN.	MACRO V05.06R Sunday 24-Sep-23 10:55  Page 1-78


	066106	000000 	000000 	000340
	066114	000377 	000377 	000377
	066122	000377
   1343	066124	000377 	000377 	000377 		.word	377, 377, 377, 377, 177, 160340, 177777, 177777, 177777, 177777
	066132	000377 	000177 	160340
	066140	177777 	177777 	177777
	066146	177777
   1344	066150	177777 	177777 	177777 		.word	177777, 177777, 177777, 177777, 177777, 177777, 177777, 177777, 177777, 177777
	066156	177777 	177777 	177777
	066164	177777 	177777 	177777
	066172	177777
   1345	066174	177777 	177777 	177777 		.word	177777, 177777, 177777, 7417, 0, 0, 0, 0, 0, 0
	066202	007417 	000000 	000000
	066210	000000 	000000 	000000
	066216	000000
   1346	066220	000000 	000000 	000000 		.word	0, 0, 0, 0, 0, 360, 377, 377, 377, 377
	066226	000000 	000000 	000360
	066234	000377 	000377 	000377
	066242	000377
   1347	066244	000377 	000377 	000377 		.word	377, 377, 377, 377, 377, 100201, 177777, 177777, 177777, 177777
	066252	000377 	000377 	100201
	066260	177777 	177777 	177777
	066266	177777
   1348	066270	177777 	177777 	177777 		.word	177777, 177777, 177777, 177777, 177777, 177777, 177777, 177777, 177777, 177777
	066276	177777 	177777 	177777
	066304	177777 	177777 	177777
	066312	177777
   1349	066314	177777 	177777 	177777 		.word	177777, 177777, 177777, 17437, 0, 0, 0, 0, 0, 0
	066322	017437 	000000 	000000
	066330	000000 	000000 	000000
	066336	000000
   1350	066340	000000 	000000 	000000 		.word	0, 0, 0, 0, 0, 370, 377, 377, 377, 377
	066346	000000 	000000 	000370
	066354	000377 	000377 	000377
	066362	000377
   1351	066364	000377 	000377 	000377 		.word	377, 377, 377, 377, 377, 17, 176374, 177777, 177777, 177777
	066372	000377 	000377 	000017
	066400	176374 	177777 	177777
	066406	177777
   1352	066410	177777 	177777 	177777 		.word	177777, 177777, 177777, 177777, 177777, 177777, 177777, 177777, 177777, 177777
	066416	177777 	177777 	177777
	066424	177777 	177777 	177777
	066432	177777
   1353	066434	177777 	177777 	177777 		.word	177777, 177777, 177777, 37477, 0, 0, 0, 0, 0, 0
	066442	037477 	000000 	000000
	066450	000000 	000000 	000000
	066456	000000
   1354	066460	000000 	000000 	000000 		.word	0, 0, 0, 0, 0, 374, 377, 377, 377, 377
	066466	000000 	000000 	000374
	066474	000377 	000377 	000377
	066502	000377
   1355	066504	000377 	000377 	000377 		.word	377, 377, 377, 377, 377, 177, 160340, 177777, 177777, 177777
	066512	000377 	000377 	000177
	066520	160340 	177777 	177777
	066526	177777
   1356	066530	177777 	177777 	177777 		.word	177777, 177777, 177777, 177777, 177777, 177777, 177777, 177777, 177777, 177777
	066536	177777 	177777 	177777
.MAIN.	MACRO V05.06R Sunday 24-Sep-23 10:55  Page 1-79


	066544	177777 	177777 	177777
	066552	177777
   1357	066554	177777 	177777 	177777 		.word	177777, 177777, 177777, 77577, 0, 0, 0, 0, 0, 0
	066562	077577 	000000 	000000
	066570	000000 	000000 	000000
	066576	000000
   1358	066600	000000 	000000 	000000 		.word	0, 0, 0, 0, 0, 374, 377, 377, 377, 377
	066606	000000 	000000 	000374
	066614	000377 	000377 	000377
	066622	000377
   1359	066624	000377 	000377 	000377 		.word	377, 377, 377, 377, 377, 377, 3, 177777, 177777, 177777
	066632	000377 	000377 	000377
	066640	000003 	177777 	177777
	066646	177777
   1360	066650	177777 	177777 	177777 		.word	177777, 177777, 177777, 177777, 177777, 177777, 177777, 177777, 177777, 177777
	066656	177777 	177777 	177777
	066664	177777 	177777 	177777
	066672	177777
   1361	066674	177777 	177777 	177777 		.word	177777, 177777, 177777, 77577, 0, 0, 0, 0, 0, 0
	066702	077577 	000000 	000000
	066710	000000 	000000 	000000
	066716	000000
   1362	066720	000000 	000000 	000000 		.word	0, 0, 0, 0, 0, 376, 377, 377, 377, 377
	066726	000000 	000000 	000376
	066734	000377 	000377 	000377
	066742	000377
   1363	066744	000377 	000377 	000377 		.word	377, 377, 377, 377, 377, 377, 37, 174370, 177777, 177777
	066752	000377 	000377 	000377
	066760	000037 	174370 	177777
	066766	177777
   1364	066770	177777 	177777 	177777 		.word	177777, 177777, 177777, 177777, 177777, 177777, 177777, 177777, 177777, 177777
	066776	177777 	177777 	177777
	067004	177777 	177777 	177777
	067012	177777
   1365	067014	177777 	177777 	177777 		.word	177777, 177777, 177777, 177777, 0, 0, 0, 0, 0, 0
	067022	177777 	000000 	000000
	067030	000000 	000000 	000000
	067036	000000
   1366	067040	000000 	000000 	000000 		.word	0, 0, 0, 0, 0, 376, 377, 377, 377, 377
	067046	000000 	000000 	000376
	067054	000377 	000377 	000377
	067062	000377
   1367	067064	000377 	000377 	000377 		.word	377, 377, 377, 377, 377, 377, 377, 140300, 177777, 177777
	067072	000377 	000377 	000377
	067100	000377 	140300 	177777
	067106	177777
   1368	067110	177777 	177777 	177777 		.word	177777, 177777, 177777, 177777, 177777, 177777, 177777, 177777, 177777, 177777
	067116	177777 	177777 	177777
	067124	177777 	177777 	177777
	067132	177777
   1369	067134	177777 	177777 	177777 		.word	177777, 177777, 177777, 177777, 0, 0, 0, 0, 0, 0
	067142	177777 	000000 	000000
	067150	000000 	000000 	000000
	067156	000000
   1370	067160	000000 	000000 	000000 		.word	0, 0, 0, 0, 0, 377, 377, 377, 377, 377
	067166	000000 	000000 	000377
	067174	000377 	000377 	000377
.MAIN.	MACRO V05.06R Sunday 24-Sep-23 10:55  Page 1-80


	067202	000377
   1371	067204	000377 	000377 	000377 		.word	377, 377, 377, 377, 377, 377, 377, 7, 177376, 177777
	067212	000377 	000377 	000377
	067220	000377 	000007 	177376
	067226	177777
   1372	067230	177777 	177777 	177777 		.word	177777, 177777, 177777, 177777, 177777, 177777, 177777, 177777, 177777, 177777
	067236	177777 	177777 	177777
	067244	177777 	177777 	177777
	067252	177777
   1373	067254	177777 	177777 	177777 		.word	177777, 177777, 177777, 177777, 401, 0, 0, 0, 0, 0
	067262	177777 	000401 	000000
	067270	000000 	000000 	000000
	067276	000000
   1374	067300	000000 	000000 	000000 		.word	0, 0, 0, 0, 0, 377, 377, 377, 377, 377
	067306	000000 	000000 	000377
	067314	000377 	000377 	000377
	067322	000377
   1375	067324	000377 	000377 	000377 		.word	377, 377, 377, 377, 377, 377, 377, 77, 170360, 177777
	067332	000377 	000377 	000377
	067340	000377 	000077 	170360
	067346	177777
   1376	067350	177777 	177777 	177777 		.word	177777, 177777, 177777, 177777, 177777, 177777, 177777, 177777, 177777, 177777
	067356	177777 	177777 	177777
	067364	177777 	177777 	177777
	067372	177777
   1377	067374	177777 	177777 	177777 		.word	177777, 177777, 177777, 177777, 401, 0, 0, 0, 0, 0
	067402	177777 	000401 	000000
	067410	000000 	000000 	000000
	067416	000000
   1378	067420	000000 	000000 	000000 		.word	0, 0, 0, 0, 0, 377, 377, 377, 377, 377
	067426	000000 	000000 	000377
	067434	000377 	000377 	000377
	067442	000377
   1379	067444	000377 	000377 	000377 		.word	377, 377, 377, 377, 377, 377, 377, 377, 100201, 177777
	067452	000377 	000377 	000377
	067460	000377 	000377 	100201
	067466	177777
   1380	067470	177777 	177777 	177777 		.word	177777, 177777, 177777, 177777, 177777, 177777, 177777, 177777, 177777, 177777
	067476	177777 	177777 	177777
	067504	177777 	177777 	177777
	067512	177777
   1381	067514	177777 	177777 	177777 		.word	177777, 177777, 177777, 177777, 401, 0, 0, 0, 0, 0
	067522	177777 	000401 	000000
	067530	000000 	000000 	000000
	067536	000000
   1382	067540	000000 	000000 	000000 		.word	0, 0, 0, 0, 0, 377, 377, 377, 377, 377
	067546	000000 	000000 	000377
	067554	000377 	000377 	000377
	067562	000377
   1383	067564	000377 	000377 	000377 		.word	377, 377, 377, 377, 377, 377, 377, 377, 17, 176374
	067572	000377 	000377 	000377
	067600	000377 	000377 	000017
	067606	176374
   1384	067610	177777 	177777 	177777 		.word	177777, 177777, 177777, 177777, 177777, 177777, 177777, 177777, 177777, 177777
	067616	177777 	177777 	177777
	067624	177777 	177777 	177777
	067632	177777
.MAIN.	MACRO V05.06R Sunday 24-Sep-23 10:55  Page 1-81


   1385	067634	177777 	177777 	177777 		.word	177777, 177777, 177777, 177777, 401, 0, 0, 0, 0, 0
	067642	177777 	000401 	000000
	067650	000000 	000000 	000000
	067656	000000
   1386	067660	000000 	000000 	000000 		.word	0, 0, 0, 0, 0, 377, 377, 377, 377, 377
	067666	000000 	000000 	000377
	067674	000377 	000377 	000377
	067702	000377
   1387	067704	000377 	000377 	000377 		.word	377, 377, 377, 377, 377, 377, 377, 377, 177, 160340
	067712	000377 	000377 	000377
	067720	000377 	000377 	000177
	067726	160340
   1388	067730	177777 	177777 	177777 		.word	177777, 177777, 177777, 177777, 177777, 177777, 177777, 177777, 177777, 177777
	067736	177777 	177777 	177777
	067744	177777 	177777 	177777
	067752	177777
   1389	067754	177777 	177777 	177777 		.word	177777, 177777, 177777, 177777, 401, 0, 0, 0, 0, 0
	067762	177777 	000401 	000000
	067770	000000 	000000 	000000
	067776	000000
   1390
   1391	070000	000000 	000000 	000000 		.word	0, 0, 0, 0, 0, 0, 0, 0, 0, 0
	070006	000000 	000000 	000000
	070014	000000 	000000 	000000
	070022	000000
   1392	070024	000000 	000000 	000000 		.word	0, 0, 0, 0, 0, 0, 0, 0, 0, 0
	070032	000000 	000000 	000000
	070040	000000 	000000 	000000
	070046	000000
   1393	070050	000000 	000000 	000000 		.word	0, 0, 0, 0, 0, 0, 0, 0, 0, 0
	070056	000000 	000000 	000000
	070064	000000 	000000 	000000
	070072	000000
   1394	070074	000000 	000000 	000000 		.word	0, 0, 0, 0, 0, 0, 0, 0, 0, 0
	070102	000000 	000000 	000000
	070110	000000 	000000 	000000
	070116	000000
   1395		001000 				.end	Start
.MAIN.	MACRO V05.06R Sunday 24-Sep-23 10:55  Page 1-82
Symbol table

ALP2VM  004644   	BKW300  002224   	MSG010  001104   	PPLEN   001164   	PPUSTA  001336
ANGLE0  004630   	COSTBL  005644   	PPACP   001162   	PPLIN1  002230   	PRISTR  001060
ANGLE2  004634   	INTKB1  002160   	PPAPP   001160   	PPMSG   001150   	ROTATE  001662
ANGLE3  004640   	INTVSY  002206   	PPARR   001154   	PPRELE  001322   	START   001000
BKW100  002216   	KEYPR0  002204   	PPCMD   001155   	PPRUN   001226   	VADDR = 020000
BKW270  002220   	LIMAIN  002226   	PPCOMM  001102   	PPSEN   001166   	VSYCNT  002214
BKW272  002222   	MSGCLS  001144   	PPEXIT  002104   	PPUEND  006644   	V20000  020000


. ABS.	070120    000	(RW,I,GBL,ABS,OVR)
      	000000    001	(RW,I,LCL,REL,CON)
Errors detected:  0

*** Assembler statistics


Work  file  reads: 0
Work  file writes: 0
Size of work file: 210 Words  ( 1 Pages)
Size of core pool: 16640 Words  ( 65 Pages)
Operating  system: RT-11

Elapsed time: 00:00:00.20
DK:KOSIC2,DK:KOSIC2.LST=DK:KOSIC2.MAC
